{
  "contractName": "Dispute",
  "abi": [
    {
      "constant": true,
      "inputs": [
        {
          "name": "",
          "type": "uint256"
        }
      ],
      "name": "disputes",
      "outputs": [
        {
          "name": "id",
          "type": "uint256"
        },
        {
          "name": "orderId",
          "type": "uint256"
        },
        {
          "name": "createdAt",
          "type": "uint256"
        },
        {
          "name": "refundReceiver",
          "type": "address"
        },
        {
          "name": "reason",
          "type": "string"
        },
        {
          "name": "counterReason",
          "type": "string"
        },
        {
          "name": "state",
          "type": "bytes32"
        }
      ],
      "payable": false,
      "stateMutability": "view",
      "type": "function"
    },
    {
      "constant": true,
      "inputs": [],
      "name": "owner",
      "outputs": [
        {
          "name": "",
          "type": "address"
        }
      ],
      "payable": false,
      "stateMutability": "view",
      "type": "function"
    },
    {
      "constant": true,
      "inputs": [],
      "name": "store",
      "outputs": [
        {
          "name": "",
          "type": "address"
        }
      ],
      "payable": false,
      "stateMutability": "view",
      "type": "function"
    },
    {
      "constant": true,
      "inputs": [
        {
          "name": "",
          "type": "uint256"
        }
      ],
      "name": "disputeById",
      "outputs": [
        {
          "name": "id",
          "type": "uint256"
        },
        {
          "name": "orderId",
          "type": "uint256"
        },
        {
          "name": "createdAt",
          "type": "uint256"
        },
        {
          "name": "refundReceiver",
          "type": "address"
        },
        {
          "name": "reason",
          "type": "string"
        },
        {
          "name": "counterReason",
          "type": "string"
        },
        {
          "name": "state",
          "type": "bytes32"
        }
      ],
      "payable": false,
      "stateMutability": "view",
      "type": "function"
    },
    {
      "constant": true,
      "inputs": [
        {
          "name": "",
          "type": "uint256"
        }
      ],
      "name": "operators",
      "outputs": [
        {
          "name": "",
          "type": "address"
        }
      ],
      "payable": false,
      "stateMutability": "view",
      "type": "function"
    },
    {
      "inputs": [
        {
          "name": "_store",
          "type": "address"
        }
      ],
      "payable": false,
      "stateMutability": "nonpayable",
      "type": "constructor"
    },
    {
      "anonymous": false,
      "inputs": [
        {
          "indexed": true,
          "name": "id",
          "type": "uint256"
        },
        {
          "indexed": true,
          "name": "orderId",
          "type": "uint256"
        },
        {
          "indexed": false,
          "name": "reason",
          "type": "string"
        }
      ],
      "name": "DisputeGenerated",
      "type": "event"
    },
    {
      "constant": false,
      "inputs": [
        {
          "name": "_id",
          "type": "uint256"
        },
        {
          "name": "_reason",
          "type": "string"
        }
      ],
      "name": "disputeOrder",
      "outputs": [],
      "payable": false,
      "stateMutability": "nonpayable",
      "type": "function"
    },
    {
      "constant": false,
      "inputs": [
        {
          "name": "_disputeId",
          "type": "uint256"
        },
        {
          "name": "_counterReason",
          "type": "string"
        }
      ],
      "name": "counterDispute",
      "outputs": [],
      "payable": false,
      "stateMutability": "nonpayable",
      "type": "function"
    },
    {
      "constant": false,
      "inputs": [
        {
          "name": "_disputeId",
          "type": "uint256"
        },
        {
          "name": "_isBuyerWinner",
          "type": "bool"
        }
      ],
      "name": "resolveDispute",
      "outputs": [],
      "payable": false,
      "stateMutability": "nonpayable",
      "type": "function"
    },
    {
      "constant": false,
      "inputs": [
        {
          "name": "_user",
          "type": "address"
        },
        {
          "name": "_isRemoved",
          "type": "bool"
        }
      ],
      "name": "setOperator",
      "outputs": [],
      "payable": false,
      "stateMutability": "nonpayable",
      "type": "function"
    }
  ],
  "bytecode": "0x608060405234801561001057600080fd5b50604051602080612e578339810180604052602081101561003057600080fd5b810190808051906020019092919050505080600260006101000a81548173ffffffffffffffffffffffffffffffffffffffff021916908373ffffffffffffffffffffffffffffffffffffffff16021790555033600460006101000a81548173ffffffffffffffffffffffffffffffffffffffff021916908373ffffffffffffffffffffffffffffffffffffffff16021790555060033390806001815401808255809150509060018203906000526020600020016000909192909190916101000a81548173ffffffffffffffffffffffffffffffffffffffff021916908373ffffffffffffffffffffffffffffffffffffffff1602179055505050612d1e806101396000396000f3fe608060405260043610610099576000357c0100000000000000000000000000000000000000000000000000000000900463ffffffff16806334b25ee21461009e578063558a7297146100e5578063564a565d146101425780635911388a146102b15780638da5cb5b14610383578063975057e7146103da578063a998704814610431578063cb34797114610503578063e28d490614610672575b600080fd5b3480156100aa57600080fd5b506100e3600480360360408110156100c157600080fd5b81019080803590602001909291908035151590602001909291905050506106ed565b005b3480156100f157600080fd5b506101406004803603604081101561010857600080fd5b81019080803573ffffffffffffffffffffffffffffffffffffffff16906020019092919080351515906020019092919050505061114d565b005b34801561014e57600080fd5b5061017b6004803603602081101561016557600080fd5b81019080803590602001909291905050506113cc565b604051808881526020018781526020018681526020018573ffffffffffffffffffffffffffffffffffffffff1673ffffffffffffffffffffffffffffffffffffffff1681526020018060200180602001848152602001838103835286818151815260200191508051906020019080838360005b838110156102095780820151818401526020810190506101ee565b50505050905090810190601f1680156102365780820380516001836020036101000a031916815260200191505b50838103825285818151815260200191508051906020019080838360005b8381101561026f578082015181840152602081019050610254565b50505050905090810190601f16801561029c5780820380516001836020036101000a031916815260200191505b50995050505050505050505060405180910390f35b3480156102bd57600080fd5b50610381600480360360408110156102d457600080fd5b8101908080359060200190929190803590602001906401000000008111156102fb57600080fd5b82018360208201111561030d57600080fd5b8035906020019184600183028401116401000000008311171561032f57600080fd5b91908080601f016020809104026020016040519081016040528093929190818152602001838380828437600081840152601f19601f82011690508083019250505050505050919291929050505061156d565b005b34801561038f57600080fd5b50610398611f34565b604051808273ffffffffffffffffffffffffffffffffffffffff1673ffffffffffffffffffffffffffffffffffffffff16815260200191505060405180910390f35b3480156103e657600080fd5b506103ef611f5a565b604051808273ffffffffffffffffffffffffffffffffffffffff1673ffffffffffffffffffffffffffffffffffffffff16815260200191505060405180910390f35b34801561043d57600080fd5b506105016004803603604081101561045457600080fd5b81019080803590602001909291908035906020019064010000000081111561047b57600080fd5b82018360208201111561048d57600080fd5b803590602001918460018302840111640100000000831117156104af57600080fd5b91908080601f016020809104026020016040519081016040528093929190818152602001838380828437600081840152601f19601f820116905080830192505050505050509192919290505050611f80565b005b34801561050f57600080fd5b5061053c6004803603602081101561052657600080fd5b8101908080359060200190929190505050612956565b604051808881526020018781526020018681526020018573ffffffffffffffffffffffffffffffffffffffff1673ffffffffffffffffffffffffffffffffffffffff1681526020018060200180602001848152602001838103835286818151815260200191508051906020019080838360005b838110156105ca5780820151818401526020810190506105af565b50505050905090810190601f1680156105f75780820380516001836020036101000a031916815260200191505b50838103825285818151815260200191508051906020019080838360005b83811015610630578082015181840152602081019050610615565b50505050905090810190601f16801561065d5780820380516001836020036101000a031916815260200191505b50995050505050505050505060405180910390f35b34801561067e57600080fd5b506106ab6004803603602081101561069557600080fd5b8101908080359060200190929190505050612ae8565b604051808273ffffffffffffffffffffffffffffffffffffffff1673ffffffffffffffffffffffffffffffffffffffff16815260200191505060405180910390f35b6106f633612b26565b1515610790576040517f08c379a000000000000000000000000000000000000000000000000000000000815260040180806020018281038252602b8152602001807f4f6e6c7920612076616c6964206f70657261746f722063616e2072756e20746881526020017f69732066756e6374696f6e00000000000000000000000000000000000000000081525060400191505060405180910390fd5b610798612bca565b60008084815260200190815260200160002060e060405190810160405290816000820154815260200160018201548152602001600282015481526020016003820160009054906101000a900473ffffffffffffffffffffffffffffffffffffffff1673ffffffffffffffffffffffffffffffffffffffff1673ffffffffffffffffffffffffffffffffffffffff168152602001600482018054600181600116156101000203166002900480601f0160208091040260200160405190810160405280929190818152602001828054600181600116156101000203166002900480156108c35780601f10610898576101008083540402835291602001916108c3565b820191906000526020600020905b8154815290600101906020018083116108a657829003601f168201915b50505050508152602001600582018054600181600116156101000203166002900480601f0160208091040260200160405190810160405280929190818152602001828054600181600116156101000203166002900480156109655780601f1061093a57610100808354040283529160200191610965565b820191906000526020600020905b81548152906001019060200180831161094857829003601f168201915b50505050508152602001600682015481525050905060008160a00151511115156109f7576040517f08c379a000000000000000000000000000000000000000000000000000000000815260040180806020018281038252601e8152602001807f54686520636f756e74657220726561736f6e206d75737420626520736574000081525060200191505060405180910390fd5b7f636f756e746572656400000000000000000000000000000000000000000000008160c00151141515610ab8576040517f08c379a00000000000000000000000000000000000000000000000000000000081526004018080602001828103825260218152602001807f546865206f72646572207374617465206d75737420626520636f756e7465726581526020017f640000000000000000000000000000000000000000000000000000000000000081525060400191505060405180910390fd5b6000806000806000806000600260009054906101000a900473ffffffffffffffffffffffffffffffffffffffff1673ffffffffffffffffffffffffffffffffffffffff16638d77eba589602001516040518263ffffffff167c01000000000000000000000000000000000000000000000000000000000281526004018082815260200191505060e06040518083038186803b158015610b5657600080fd5b505afa158015610b6a573d6000803e3d6000fd5b505050506040513d60e0811015610b8057600080fd5b810190808051906020019092919080519060200190929190805190602001909291908051906020019092919080519060200190929190805190602001909291908051906020019092919050505096509650965096509650965096506213c680844203101515610c7d576040517f08c379a000000000000000000000000000000000000000000000000000000000815260040180806020018281038252603a8152602001807f596f752063616e206f6e6c79206469737075746520616e206f7264657220746881526020017f617420686173206e6f74206265656e20636c6f7365642079657400000000000081525060400191505060405180910390fd5b7f7265736f6c7665640000000000000000000000000000000000000000000000008860c0018181525050876000808c815260200190815260200160002060008201518160000155602082015181600101556040820151816002015560608201518160030160006101000a81548173ffffffffffffffffffffffffffffffffffffffff021916908373ffffffffffffffffffffffffffffffffffffffff1602179055506080820151816004019080519060200190610d3b929190612c21565b5060a0820151816005019080519060200190610d58929190612c21565b5060c0820151816006015590505060008090505b600180549050811015610e7d578a600182815481101515610d8957fe5b9060005260206000209060070201600001541415610e705788600182815481101515610db157fe5b906000526020600020906007020160008201518160000155602082015181600101556040820151816002015560608201518160030160006101000a81548173ffffffffffffffffffffffffffffffffffffffff021916908373ffffffffffffffffffffffffffffffffffffffff1602179055506080820151816004019080519060200190610e40929190612c21565b5060a0820151816005019080519060200190610e5d929190612c21565b5060c08201518160060155905050610e7d565b8080600101915050610d6c565b50881561114157600260009054906101000a900473ffffffffffffffffffffffffffffffffffffffff1673ffffffffffffffffffffffffffffffffffffffff1663fc0c546a6040518163ffffffff167c010000000000000000000000000000000000000000000000000000000002815260040160206040518083038186803b158015610f0857600080fd5b505afa158015610f1c573d6000803e3d6000fd5b505050506040513d6020811015610f3257600080fd5b810190808051906020019092919050505073ffffffffffffffffffffffffffffffffffffffff166323b872dd600260009054906101000a900473ffffffffffffffffffffffffffffffffffffffff1684600260009054906101000a900473ffffffffffffffffffffffffffffffffffffffff1673ffffffffffffffffffffffffffffffffffffffff1663e7bf7dfc8a6040518263ffffffff167c01000000000000000000000000000000000000000000000000000000000281526004018082815260200191505060206040518083038186803b15801561101157600080fd5b505afa158015611025573d6000803e3d6000fd5b505050506040513d602081101561103b57600080fd5b81019080805190602001909291905050506040518463ffffffff167c0100000000000000000000000000000000000000000000000000000000028152600401808473ffffffffffffffffffffffffffffffffffffffff1673ffffffffffffffffffffffffffffffffffffffff1681526020018373ffffffffffffffffffffffffffffffffffffffff1673ffffffffffffffffffffffffffffffffffffffff1681526020018281526020019350505050602060405180830381600087803b15801561110457600080fd5b505af1158015611118573d6000803e3d6000fd5b505050506040513d602081101561112e57600080fd5b8101908080519060200190929190505050505b50505050505050505050565b600460009054906101000a900473ffffffffffffffffffffffffffffffffffffffff1673ffffffffffffffffffffffffffffffffffffffff163373ffffffffffffffffffffffffffffffffffffffff16141515611212576040517f08c379a00000000000000000000000000000000000000000000000000000000081526004018080602001828103825260208152602001807f4f6e6c7920746865206f776e65722063616e20616464206f70657261746f727381525060200191505060405180910390fd5b80156113615760008090505b60038054905081101561135b578273ffffffffffffffffffffffffffffffffffffffff1660038281548110151561125157fe5b9060005260206000200160009054906101000a900473ffffffffffffffffffffffffffffffffffffffff1673ffffffffffffffffffffffffffffffffffffffff16141561134e57600060036001600380549050038154811015156112b157fe5b9060005260206000200160009054906101000a900473ffffffffffffffffffffffffffffffffffffffff169050806003838154811015156112ee57fe5b9060005260206000200160006101000a81548173ffffffffffffffffffffffffffffffffffffffff021916908373ffffffffffffffffffffffffffffffffffffffff160217905550600380548091906001900361134b9190612ca1565b50505b808060010191505061121e565b506113c8565b60038290806001815401808255809150509060018203906000526020600020016000909192909190916101000a81548173ffffffffffffffffffffffffffffffffffffffff021916908373ffffffffffffffffffffffffffffffffffffffff160217905550505b5050565b6001818154811015156113db57fe5b90600052602060002090600702016000915090508060000154908060010154908060020154908060030160009054906101000a900473ffffffffffffffffffffffffffffffffffffffff1690806004018054600181600116156101000203166002900480601f0160208091040260200160405190810160405280929190818152602001828054600181600116156101000203166002900480156114bf5780601f10611494576101008083540402835291602001916114bf565b820191906000526020600020905b8154815290600101906020018083116114a257829003601f168201915b505050505090806005018054600181600116156101000203166002900480601f01602080910402602001604051908101604052809291908181526020018280546001816001161561010002031660029004801561155d5780601f106115325761010080835404028352916020019161155d565b820191906000526020600020905b81548152906001019060200180831161154057829003601f168201915b5050505050908060060154905087565b6000815111151561160c576040517f08c379a00000000000000000000000000000000000000000000000000000000081526004018080602001828103825260328152602001807f54686520726561736f6e20666f7220646973707574696e6720746865206f726481526020017f65722063616e6e6f7420626520656d707479000000000000000000000000000081525060400191505060405180910390fd5b611614612bca565b60008084815260200190815260200160002060e060405190810160405290816000820154815260200160018201548152602001600282015481526020016003820160009054906101000a900473ffffffffffffffffffffffffffffffffffffffff1673ffffffffffffffffffffffffffffffffffffffff1673ffffffffffffffffffffffffffffffffffffffff168152602001600482018054600181600116156101000203166002900480601f01602080910402602001604051908101604052809291908181526020018280546001816001161561010002031660029004801561173f5780601f106117145761010080835404028352916020019161173f565b820191906000526020600020905b81548152906001019060200180831161172257829003601f168201915b50505050508152602001600582018054600181600116156101000203166002900480601f0160208091040260200160405190810160405280929190818152602001828054600181600116156101000203166002900480156117e15780601f106117b6576101008083540402835291602001916117e1565b820191906000526020600020905b8154815290600101906020018083116117c457829003601f168201915b50505050508152602001600682015481525050905060006001028160c00151141515611875576040517f08c379a000000000000000000000000000000000000000000000000000000000815260040180806020018281038252601d8152602001807f546865206f72646572207374617465206d75737420626520656d70747900000081525060200191505060405180910390fd5b6000806000806000806000600260009054906101000a900473ffffffffffffffffffffffffffffffffffffffff1673ffffffffffffffffffffffffffffffffffffffff16638d77eba58b6040518263ffffffff167c01000000000000000000000000000000000000000000000000000000000281526004018082815260200191505060e06040518083038186803b15801561190f57600080fd5b505afa158015611923573d6000803e3d6000fd5b505050506040513d60e081101561193957600080fd5b810190808051906020019092919080519060200190929190805190602001909291908051906020019092919080519060200190929190805190602001909291908051906020019092919050505096509650965096509650965096506213c680844203101515611a36576040517f08c379a000000000000000000000000000000000000000000000000000000000815260040180806020018281038252603a8152602001807f596f752063616e206f6e6c79206469737075746520616e206f7264657220746881526020017f617420686173206e6f74206265656e20636c6f7365642079657400000000000081525060400191505060405180910390fd5b6000600260009054906101000a900473ffffffffffffffffffffffffffffffffffffffff1673ffffffffffffffffffffffffffffffffffffffff1663134e18f46040518163ffffffff167c010000000000000000000000000000000000000000000000000000000002815260040160206040518083038186803b158015611abc57600080fd5b505afa158015611ad0573d6000803e3d6000fd5b505050506040513d6020811015611ae657600080fd5b810190808051906020019092919050505073ffffffffffffffffffffffffffffffffffffffff166305c62c2f336040518263ffffffff167c0100000000000000000000000000000000000000000000000000000000028152600401808273ffffffffffffffffffffffffffffffffffffffff1673ffffffffffffffffffffffffffffffffffffffff16815260200191505060206040518083038186803b158015611b8f57600080fd5b505afa158015611ba3573d6000803e3d6000fd5b505050506040513d6020811015611bb957600080fd5b810190808051906020019092919050505090508084141515611c69576040517f08c379a00000000000000000000000000000000000000000000000000000000081526004018080602001828103825260248152602001807f4f6e6c79207468652062757965722063616e206469737075746520686973206f81526020017f726465720000000000000000000000000000000000000000000000000000000081525060400191505060405180910390fd5b6000600180549050905060e0604051908101604052808281526020018d81526020014281526020013373ffffffffffffffffffffffffffffffffffffffff1681526020018c8152602001602060405190810160405280600081525081526020017f70656e64696e6700000000000000000000000000000000000000000000000000815250995060018a9080600181540180825580915050906001820390600052602060002090600702016000909192909190915060008201518160000155602082015181600101556040820151816002015560608201518160030160006101000a81548173ffffffffffffffffffffffffffffffffffffffff021916908373ffffffffffffffffffffffffffffffffffffffff1602179055506080820151816004019080519060200190611d9e929190612c21565b5060a0820151816005019080519060200190611dbb929190612c21565b5060c082015181600601555050508960008083815260200190815260200160002060008201518160000155602082015181600101556040820151816002015560608201518160030160006101000a81548173ffffffffffffffffffffffffffffffffffffffff021916908373ffffffffffffffffffffffffffffffffffffffff1602179055506080820151816004019080519060200190611e5d929190612c21565b5060a0820151816005019080519060200190611e7a929190612c21565b5060c082015181600601559050508b817fcdd6d7fb526e73f042aa315659c984834a9d0b73feff18236c9bb71123b106c28d6040518080602001828103825283818151815260200191508051906020019080838360005b83811015611eec578082015181840152602081019050611ed1565b50505050905090810190601f168015611f195780820380516001836020036101000a031916815260200191505b509250505060405180910390a3505050505050505050505050565b600460009054906101000a900473ffffffffffffffffffffffffffffffffffffffff1681565b600260009054906101000a900473ffffffffffffffffffffffffffffffffffffffff1681565b60008151111515611ff9576040517f08c379a000000000000000000000000000000000000000000000000000000000815260040180806020018281038252601e8152602001807f54686520636f756e74657220726561736f6e206d75737420626520736574000081525060200191505060405180910390fd5b612001612bca565b60008084815260200190815260200160002060e060405190810160405290816000820154815260200160018201548152602001600282015481526020016003820160009054906101000a900473ffffffffffffffffffffffffffffffffffffffff1673ffffffffffffffffffffffffffffffffffffffff1673ffffffffffffffffffffffffffffffffffffffff168152602001600482018054600181600116156101000203166002900480601f01602080910402602001604051908101604052809291908181526020018280546001816001161561010002031660029004801561212c5780601f106121015761010080835404028352916020019161212c565b820191906000526020600020905b81548152906001019060200180831161210f57829003601f168201915b50505050508152602001600582018054600181600116156101000203166002900480601f0160208091040260200160405190810160405280929190818152602001828054600181600116156101000203166002900480156121ce5780601f106121a3576101008083540402835291602001916121ce565b820191906000526020600020905b8154815290600101906020018083116121b157829003601f168201915b5050505050815260200160068201548152505090507f70656e64696e67000000000000000000000000000000000000000000000000008160c0015114151561227e576040517f08c379a000000000000000000000000000000000000000000000000000000000815260040180806020018281038252601f8152602001807f546865206f72646572207374617465206d7573742062652070656e64696e670081525060200191505060405180910390fd5b6000806000806000806000600260009054906101000a900473ffffffffffffffffffffffffffffffffffffffff1673ffffffffffffffffffffffffffffffffffffffff16638d77eba589602001516040518263ffffffff167c01000000000000000000000000000000000000000000000000000000000281526004018082815260200191505060e06040518083038186803b15801561231c57600080fd5b505afa158015612330573d6000803e3d6000fd5b505050506040513d60e081101561234657600080fd5b810190808051906020019092919080519060200190929190805190602001909291908051906020019092919080519060200190929190805190602001909291908051906020019092919050505096509650965096509650965096506213c680844203101515612443576040517f08c379a000000000000000000000000000000000000000000000000000000000815260040180806020018281038252603a8152602001807f596f752063616e206f6e6c79206469737075746520616e206f7264657220746881526020017f617420686173206e6f74206265656e20636c6f7365642079657400000000000081525060400191505060405180910390fd5b6000600260009054906101000a900473ffffffffffffffffffffffffffffffffffffffff1673ffffffffffffffffffffffffffffffffffffffff1663134e18f46040518163ffffffff167c010000000000000000000000000000000000000000000000000000000002815260040160206040518083038186803b1580156124c957600080fd5b505afa1580156124dd573d6000803e3d6000fd5b505050506040513d60208110156124f357600080fd5b810190808051906020019092919050505073ffffffffffffffffffffffffffffffffffffffff166305c62c2f336040518263ffffffff167c0100000000000000000000000000000000000000000000000000000000028152600401808273ffffffffffffffffffffffffffffffffffffffff1673ffffffffffffffffffffffffffffffffffffffff16815260200191505060206040518083038186803b15801561259c57600080fd5b505afa1580156125b0573d6000803e3d6000fd5b505050506040513d60208110156125c657600080fd5b8101908080519060200190929190505050905080600260009054906101000a900473ffffffffffffffffffffffffffffffffffffffff1673ffffffffffffffffffffffffffffffffffffffff1663a9a92430886040518263ffffffff167c01000000000000000000000000000000000000000000000000000000000281526004018082815260200191505060206040518083038186803b15801561266957600080fd5b505afa15801561267d573d6000803e3d6000fd5b505050506040513d602081101561269357600080fd5b810190808051906020019092919050505014151561273f576040517f08c379a000000000000000000000000000000000000000000000000000000000815260040180806020018281038252602e8152602001807f4f6e6c79207468652073656c6c65722063616e20636f756e746572206469737081526020017f7574652074686973206f7264657200000000000000000000000000000000000081525060400191505060405180910390fd5b898960a001819052507f636f756e746572656400000000000000000000000000000000000000000000008960c0018181525050886000808d815260200190815260200160002060008201518160000155602082015181600101556040820151816002015560608201518160030160006101000a81548173ffffffffffffffffffffffffffffffffffffffff021916908373ffffffffffffffffffffffffffffffffffffffff1602179055506080820151816004019080519060200190612806929190612c21565b5060a0820151816005019080519060200190612823929190612c21565b5060c0820151816006015590505060008090505b600180549050811015612948578b60018281548110151561285457fe5b906000526020600020906007020160000154141561293b578960018281548110151561287c57fe5b906000526020600020906007020160008201518160000155602082015181600101556040820151816002015560608201518160030160006101000a81548173ffffffffffffffffffffffffffffffffffffffff021916908373ffffffffffffffffffffffffffffffffffffffff160217905550608082015181600401908051906020019061290b929190612c21565b5060a0820151816005019080519060200190612928929190612c21565b5060c08201518160060155905050612948565b8080600101915050612837565b505050505050505050505050565b60006020528060005260406000206000915090508060000154908060010154908060020154908060030160009054906101000a900473ffffffffffffffffffffffffffffffffffffffff1690806004018054600181600116156101000203166002900480601f016020809104026020016040519081016040528092919081815260200182805460018160011615610100020316600290048015612a3a5780601f10612a0f57610100808354040283529160200191612a3a565b820191906000526020600020905b815481529060010190602001808311612a1d57829003601f168201915b505050505090806005018054600181600116156101000203166002900480601f016020809104026020016040519081016040528092919081815260200182805460018160011615610100020316600290048015612ad85780601f10612aad57610100808354040283529160200191612ad8565b820191906000526020600020905b815481529060010190602001808311612abb57829003601f168201915b5050505050908060060154905087565b600381815481101515612af757fe5b906000526020600020016000915054906101000a900473ffffffffffffffffffffffffffffffffffffffff1681565b600080600090505b600380549050811015612bbf57600381815481101515612b4a57fe5b9060005260206000200160009054906101000a900473ffffffffffffffffffffffffffffffffffffffff1673ffffffffffffffffffffffffffffffffffffffff168373ffffffffffffffffffffffffffffffffffffffff161415612bb2576001915050612bc5565b8080600101915050612b2e565b50600090505b919050565b60e060405190810160405280600081526020016000815260200160008152602001600073ffffffffffffffffffffffffffffffffffffffff1681526020016060815260200160608152602001600080191681525090565b828054600181600116156101000203166002900490600052602060002090601f016020900481019282601f10612c6257805160ff1916838001178555612c90565b82800160010185558215612c90579182015b82811115612c8f578251825591602001919060010190612c74565b5b509050612c9d9190612ccd565b5090565b815481835581811115612cc857818360005260206000209182019101612cc79190612ccd565b5b505050565b612cef91905b80821115612ceb576000816000905550600101612cd3565b5090565b9056fea165627a7a72305820356edd3c6dc97015373dd7757cd08a6dc9652a9165419b1778d63f06575ef9f40029",
  "source": "pragma solidity ^0.5.0;\r\n\r\ninterface HydroTokenTestnetInterface {\r\n    function transfer(address _to, uint256 _amount) external returns (bool success);\r\n    function transferFrom(address _from, address _to, uint256 _amount) external returns (bool success);\r\n    function doTransfer(address _from, address _to, uint _amount) external;\r\n    function balanceOf(address _owner) external view returns (uint256 balance);\r\n    function approve(address _spender, uint256 _amount) external returns (bool success);\r\n    function approveAndCall(address _spender, uint256 _value, bytes calldata _extraData) external returns (bool success);\r\n    function burn(uint256 _value) external;\r\n    function allowance(address _owner, address _spender) external view returns (uint256 remaining);\r\n    function totalSupply() external view returns (uint);\r\n    function setRaindropAddress(address _raindrop) external;\r\n    function authenticate(uint _value, uint _challenge, uint _partnerId) external;\r\n    function setBalances(address[] calldata _addressList, uint[] calldata _amounts) external;\r\n    function getMoreTokens() external;\r\n}\r\n\r\ninterface IdentityRegistryInterface {\r\n    function isSigned(address _address, bytes32 messageHash, uint8 v, bytes32 r, bytes32 s)\r\n        external pure returns (bool);\r\n    function identityExists(uint ein) external view returns (bool);\r\n    function hasIdentity(address _address) external view returns (bool);\r\n    function getEIN(address _address) external view returns (uint ein);\r\n    function isAssociatedAddressFor(uint ein, address _address) external view returns (bool);\r\n    function isProviderFor(uint ein, address provider) external view returns (bool);\r\n    function isResolverFor(uint ein, address resolver) external view returns (bool);\r\n    function getIdentity(uint ein) external view returns (\r\n        address recoveryAddress,\r\n        address[] memory associatedAddresses, address[] memory providers, address[] memory resolvers\r\n    );\r\n    function createIdentity(address recoveryAddress, address[] calldata providers, address[] calldata resolvers)\r\n        external returns (uint ein);\r\n    function createIdentityDelegated(\r\n        address recoveryAddress, address associatedAddress, address[] calldata providers, address[] calldata resolvers,\r\n        uint8 v, bytes32 r, bytes32 s, uint timestamp\r\n    ) external returns (uint ein);\r\n    function addAssociatedAddress(\r\n        address approvingAddress, address addressToAdd, uint8 v, bytes32 r, bytes32 s, uint timestamp\r\n    ) external;\r\n    function addAssociatedAddressDelegated(\r\n        address approvingAddress, address addressToAdd,\r\n        uint8[2] calldata v, bytes32[2] calldata r, bytes32[2] calldata s, uint[2] calldata timestamp\r\n    ) external;\r\n    function removeAssociatedAddress() external;\r\n    function removeAssociatedAddressDelegated(address addressToRemove, uint8 v, bytes32 r, bytes32 s, uint timestamp)\r\n        external;\r\n    function addProviders(address[] calldata providers) external;\r\n    function addProvidersFor(uint ein, address[] calldata providers) external;\r\n    function removeProviders(address[] calldata providers) external;\r\n    function removeProvidersFor(uint ein, address[] calldata providers) external;\r\n    function addResolvers(address[] calldata resolvers) external;\r\n    function addResolversFor(uint ein, address[] calldata resolvers) external;\r\n    function removeResolvers(address[] calldata resolvers) external;\r\n    function removeResolversFor(uint ein, address[] calldata resolvers) external;\r\n    function triggerRecoveryAddressChange(address newRecoveryAddress) external;\r\n    function triggerRecoveryAddressChangeFor(uint ein, address newRecoveryAddress) external;\r\n    function triggerRecovery(uint ein, address newAssociatedAddress, uint8 v, bytes32 r, bytes32 s, uint timestamp)\r\n        external;\r\n    function triggerDestruction(\r\n        uint ein, address[] calldata firstChunk, address[] calldata lastChunk, bool resetResolvers\r\n    ) external;\r\n}\r\n\r\ncontract Dispute {\r\n    event DisputeGenerated(uint256 indexed id, uint256 indexed orderId, string reason);\r\n\r\n    struct DisputeItem {\r\n        uint256 id;\r\n        uint256 orderId;\r\n        uint256 createdAt;\r\n        address refundReceiver;\r\n        string reason;\r\n        string counterReason;\r\n        bytes32 state; // Either pending, countered or resolved. Where pending indicates \"waiting for the seller to respond\", countered means \"the seller has responded\" and resolved is \"the dispute has been resolved\"\r\n    }\r\n\r\n    // DisputeItem id => dispute struct\r\n    mapping(uint256 => DisputeItem) public disputeById;\r\n    DisputeItem[] public disputes;\r\n    Store public store;\r\n    address[] public operators;\r\n    address public owner;\r\n\r\n    modifier onlyOperator {\r\n        require(operatorExists(msg.sender), 'Only a valid operator can run this function');\r\n        _;\r\n    }\r\n\r\n    /// @notice To setup the store address\r\n    /// @param _store The address of the store contract that will be used in this contract\r\n    constructor(address _store) public {\r\n        store = Store(_store);\r\n        owner = msg.sender;\r\n        operators.push(msg.sender);\r\n    }\r\n\r\n    /// @notice To dispute an order for the specified reason as a buyer\r\n    /// @param _id The order id to dispute\r\n    /// @param _reason The string indicating why the buyer is disputing this order\r\n    function disputeOrder(uint256 _id, string memory _reason) public {\r\n        require(bytes(_reason).length > 0, 'The reason for disputing the order cannot be empty');\r\n        DisputeItem memory d = disputeById[_id];\r\n        require(d.state == 0, 'The order state must be empty');\r\n        (uint256 id, uint256 addressId, uint256 productId, uint256 date, uint256 buyer, address addressBuyer, bytes32 state) = store.orderById(_id);\r\n        require(now - date < 15 days, 'You can only dispute an order that has not been closed yet');\r\n        uint256 ein = IdentityRegistryInterface(store.identityRegistry()).getEIN(msg.sender);\r\n        require(buyer == ein, 'Only the buyer can dispute his order');\r\n        uint256 disputeId = disputes.length;\r\n        d = DisputeItem(disputeId, _id, now, msg.sender, _reason, '', 'pending');\r\n        disputes.push(d);\r\n        disputeById[disputeId] = d;\r\n        emit DisputeGenerated(disputeId, _id, _reason);\r\n    }\r\n\r\n    /// @notice To respond to a dispute as a seller\r\n    /// @param _disputeId The id of the dispute to respond to\r\n    /// @param _counterReason The reason for countering the argument of the buyer\r\n    function counterDispute(uint256 _disputeId, string memory _counterReason) public {\r\n        require(bytes(_counterReason).length > 0, 'The counter reason must be set');\r\n        DisputeItem memory d = disputeById[_disputeId];\r\n        require(d.state == 'pending', 'The order state must be pending');\r\n        (uint256 id, uint256 addressId, uint256 productId, uint256 date, uint256 buyer, address addressBuyer, bytes32 state) = store.orderById(d.orderId);\r\n        require(now - date < 15 days, 'You can only dispute an order that has not been closed yet');\r\n\r\n        uint256 ein = IdentityRegistryInterface(store.identityRegistry()).getEIN(msg.sender);\r\n        require(store.getProductEinOwner(productId) == ein, 'Only the seller can counter dispute this order');\r\n        d.counterReason = _counterReason;\r\n        d.state = 'countered';\r\n        disputeById[_disputeId] = d;\r\n        for(uint256 i = 0; i < disputes.length; i++) {\r\n            if(disputes[i].id == _disputeId) {\r\n                disputes[i] = d;\r\n                break;\r\n            }\r\n        }\r\n    }\r\n\r\n    /// @notice To resolve a dispute and pay the buyer from the seller's approved balance\r\n    /// @param _disputeId The id of the dispute to resolve\r\n    /// @param _isBuyerWinner If the winner is the buyer or not to perform the transfer\r\n    function resolveDispute(uint256 _disputeId, bool _isBuyerWinner) public onlyOperator {\r\n        DisputeItem memory d = disputeById[_disputeId];\r\n        require(bytes(d.counterReason).length > 0, 'The counter reason must be set');\r\n        require(d.state == 'countered', 'The order state must be countered');\r\n        (uint256 id, uint256 addressId, uint256 productId, uint256 date, uint256 buyer, address addressBuyer, bytes32 state) = store.orderById(d.orderId);\r\n        require(now - date < 15 days, 'You can only dispute an order that has not been closed yet');\r\n\r\n        d.state = 'resolved';\r\n        disputeById[_disputeId] = d;\r\n        for(uint256 i = 0; i < disputes.length; i++) {\r\n            if(disputes[i].id == _disputeId) {\r\n                disputes[i] = d;\r\n                break;\r\n            }\r\n        }\r\n\r\n        if(_isBuyerWinner) {\r\n            // Pay the product price to the buyer as a refund\r\n            HydroTokenTestnetInterface(store.token()).transferFrom(address(store), addressBuyer, store.getProductPrice(productId));\r\n        }\r\n    }\r\n\r\n    /// @notice To add or delete operators by the owner\r\n    /// @param _user A valid address to add or remove from the list of operators\r\n    /// @param _isRemoved Whether you want to add or remove this operator\r\n    function setOperator(address _user, bool _isRemoved) public {\r\n        require(msg.sender == owner, 'Only the owner can add operators');\r\n        if(_isRemoved) {\r\n            for(uint256 i = 0; i < operators.length; i++) {\r\n                if(operators[i] == _user) {\r\n                    address lastElement = operators[operators.length - 1];\r\n                    operators[i] = lastElement;\r\n                    operators.length--;\r\n                }\r\n            }\r\n        } else {\r\n            operators.push(_user);\r\n        }\r\n    }\r\n\r\n    /// @notice To check if an operator exists\r\n    /// @param _operator The address of the operator to check\r\n    /// @return bool Whether he's a valid operator or not\r\n    function operatorExists(address _operator) internal view returns(bool) {\r\n        for(uint256 i = 0; i < operators.length; i++) {\r\n            if(_operator == operators[i]) {\r\n                return true;\r\n            }\r\n        }\r\n        return false;\r\n    }\r\n}\r\n\r\n\r\ncontract Store {\r\n    struct Product {\r\n        uint256 id;\r\n        bytes32 sku;\r\n        string title;\r\n        string description;\r\n        uint256 date;\r\n        uint256 einOwner; // EIN owner\r\n        address owner;\r\n        uint256 price;\r\n        string image;\r\n        bytes32[] attributes;\r\n        bytes32[] attributeValues;\r\n        uint256 quantity;\r\n        uint256 barcode;\r\n    }\r\n    struct Order {\r\n        uint256 id; // Unique order ID\r\n        uint256 addressId;\r\n        uint256 productId;\r\n        uint256 date;\r\n        uint256 buyer; // EIN buyer\r\n        address addressBuyer;\r\n        bytes32 state; // Either 'pending', 'sent', 'completed' completed means that the seller has sent the product and he's extracted the payment\r\n    }\r\n    struct Address {\r\n        string nameSurname;\r\n        string direction;\r\n        bytes32 city;\r\n        bytes32 stateRegion;\r\n        uint256 postalCode;\r\n        bytes32 country;\r\n        uint256 phone;\r\n    }\r\n    struct Inventory {\r\n        uint256 id;\r\n        string name;\r\n        bytes32[] skus;\r\n    }\r\n\r\n    // Seller ein => orders\r\n    mapping(uint256 => Order[]) public pendingOrders; // The products waiting to be fulfilled\r\n    // Buyer ein => orders\r\n    mapping(uint256 => Order[]) public completedOrders;\r\n    // Product id => product\r\n    mapping(uint256 => Product) public productById;\r\n    // Order id => order struct\r\n    mapping(uint256 => Order) public orderById;\r\n    // Id => address\r\n    mapping(uint256 => Address) public addressById;\r\n    Product[] public products;\r\n    Inventory[] public inventories;\r\n    address public owner;\r\n    uint256 public lastId;\r\n    uint256 public lastOrderId;\r\n    uint256 public lastAddressId;\r\n    address public token;\r\n    address public identityRegistry;\r\n    address public disputeContract;\r\n\r\n    /// @notice To setup the address of the ERC-721 token to use for this contract\r\n    /// @param _token The token address\r\n    constructor(address _token, address _identityRegistry) public {\r\n        owner = msg.sender;\r\n        token = _token;\r\n        identityRegistry = _identityRegistry;\r\n    }\r\n\r\n    /// @notice To set the address of the dispute contract for making disputes\r\n    /// @param _dispute The dispute address\r\n    function setDisputeAddress(address _dispute) public {\r\n        require(msg.sender == owner, 'Only the owner can set the dispute contract');\r\n        require(disputeContract == address(0), 'You cannot change the address of the contract once set');\r\n        require(_dispute != address(0), 'The dispute address cannot be empty');\r\n        disputeContract = _dispute;\r\n    }\r\n\r\n    /// @notice To publish a product as a seller\r\n    /// @param _title The title of the product\r\n    /// @param _description The description of the product\r\n    /// @param _price The price of the product in ETH\r\n    /// @param _image The image URL of the product\r\n    function publishProduct(string memory _title, bytes32 _sku, string memory _description, uint256 _price, string memory _image, bytes32[] memory _attributes, bytes32[] memory _attributeValues, uint256 _quantity, uint256 _barcode) public {\r\n        require(bytes(_title).length > 0, 'The title cannot be empty');\r\n        require(bytes(_description).length > 0, 'The description cannot be empty');\r\n        require(_price > 0, 'The price cannot be empty');\r\n        require(bytes(_image).length > 0, 'The image cannot be empty');\r\n        require(IdentityRegistryInterface(identityRegistry).hasIdentity(msg.sender), 'You must have an EIN associated with your Ethereum account to add a product');\r\n\r\n        Product memory p = Product(lastId, _sku, _title, _description, now, IdentityRegistryInterface(identityRegistry).getEIN(msg.sender), msg.sender, _price, _image, _attributes, _attributeValues, _quantity, _barcode);\r\n        products.push(p);\r\n        productById[lastId] = p;\r\n        lastId++;\r\n    }\r\n\r\n    /// @notice To create an inventory in which to store product skus\r\n    /// @param _name The name of the inventory\r\n    /// @param _skus The array of skus to add to the inventory\r\n    function createInventory(string memory _name, bytes32[] memory _skus) public {\r\n        require(bytes(_name).length > 0, 'The name must be set');\r\n        require(_skus.length > 0, 'There must be at least one sku for this inventory');\r\n        Inventory memory inv = Inventory(inventories.length, _name, _skus);\r\n        inventories.push(inv);\r\n    }\r\n\r\n    /// @notice To buy a new product, note that the seller must authorize this contract to manage the token\r\n    /// @param _id The id of the product to buy\r\n    /// @param _nameSurname The name and surname of the buyer\r\n    /// @param _lineOneDirection The first line for the user address\r\n    /// @param _lineTwoDirection The second, optional user address line\r\n    /// @param _city Buyer's city\r\n    /// @param _stateRegion The state or region where the buyer lives\r\n    /// @param _postalCode The postal code of his location\r\n    /// @param _country Buyer's country\r\n    /// @param _phone The optional phone number for the shipping company\r\n    /// The payment in HYDRO is made automatically by making a transferFrom after approving the right amount of tokens using the product price\r\n    function buyProduct(uint256 _id, string memory _nameSurname, string memory _direction, bytes32 _city, bytes32 _stateRegion, uint256 _postalCode, bytes32 _country, uint256 _phone) public {\r\n        // The line 2 address and phone are optional, the rest are mandatory\r\n        require(bytes(_nameSurname).length > 0, 'The name and surname must be set');\r\n        require(bytes(_direction).length > 0, 'The line one direction must be set');\r\n        require(_city.length > 0, 'The city must be set');\r\n        require(_stateRegion.length > 0, 'The state or region must be set');\r\n        require(_postalCode > 0, 'The postal code must be set');\r\n        require(_country > 0, 'The country must be set');\r\n        require(IdentityRegistryInterface(identityRegistry).hasIdentity(msg.sender), 'You must have an EIN associated with your Ethereum account to purchase the product');\r\n\r\n        uint256 ein = IdentityRegistryInterface(identityRegistry).getEIN(msg.sender);\r\n        Product memory p = productById[_id];\r\n        require(bytes(p.title).length > 0, 'The product must exist to be purchased');\r\n        require(HydroTokenTestnetInterface(token).allowance(msg.sender, address(this)) >= p.price, 'You must have enough HYDRO tokens approved to purchase this product');\r\n        Address memory newAddress = Address(_nameSurname, _direction, _city, _stateRegion, _postalCode, _country, _phone);\r\n        Order memory newOrder = Order(lastOrderId, lastAddressId, _id, now, ein, msg.sender, 'pending');\r\n\r\n        // Update the quantity of remaining products\r\n        if(p.quantity > 0) {\r\n            p.quantity--;\r\n            productById[_id] = p;\r\n            // Update the products array\r\n            for(uint256 i = 0; i < products.length; i++) {\r\n                if(products[i].id == p.id) {\r\n                    products[i] = p;\r\n                    break;\r\n                }\r\n            }\r\n        }\r\n\r\n        pendingOrders[ein].push(newOrder);\r\n        orderById[_id] = newOrder;\r\n        addressById[lastAddressId] = newAddress;\r\n        // TODO remember that the payment has been done to the store contract and not the seller yet\r\n        HydroTokenTestnetInterface(token).transferFrom(msg.sender, address(this), p.price); // Pay the product price to this contract\r\n        HydroTokenTestnetInterface(token).approve(disputeContract, p.price);\r\n        lastOrderId++;\r\n        lastAddressId++;\r\n    }\r\n\r\n    /// @notice To receive payments for sellers that sold a product, each product must be checked independently. You can only do it after the product has been marked as sent and the\r\n    /// @param _orderId The ID of the order that you want to mark as completed and receie the payment\r\n    function receivePayment(uint256 _orderId) public {\r\n        Order memory order = orderById[_orderId];\r\n        Product memory p = productById[order.productId];\r\n        uint256 ein = IdentityRegistryInterface(identityRegistry).getEIN(msg.sender);\r\n        require(p.einOwner == ein, 'Only the seller can receive the payment of the order');\r\n        require(order.state == 'sent', 'The order must be marked as sent to receive the payment');\r\n        require(now - order.date >= 15 days, 'You can only retrieve the payment after 15 days');\r\n\r\n        order.state = 'completed';\r\n        // Delete the seller order from the array of pending orders\r\n        for(uint256 i = 0; i < pendingOrders[p.einOwner].length; i++) {\r\n            if(pendingOrders[p.einOwner][i].id == _orderId) {\r\n                Order memory lastElement = orderById[pendingOrders[p.einOwner].length - 1];\r\n                pendingOrders[p.einOwner][i] = lastElement;\r\n                pendingOrders[p.einOwner].length--;\r\n            }\r\n        }\r\n        completedOrders[order.buyer].push(order);\r\n        orderById[_orderId] = order;\r\n        HydroTokenTestnetInterface(token).transfer(p.owner, p.price);\r\n    }\r\n\r\n    /// @notice To mark an order as sent\r\n    /// @param _id The id of the order to mark as sent and completed\r\n    function markOrderSent(uint256 _id) public {\r\n        Order memory order = orderById[_id];\r\n        Product memory product = productById[order.productId];\r\n        require(IdentityRegistryInterface(identityRegistry).hasIdentity(msg.sender), 'You must have an EIN associated with your Ethereum account to mark the order as completed');\r\n        uint256 ein = IdentityRegistryInterface(identityRegistry).getEIN(msg.sender);\r\n        require(product.einOwner == ein, 'Only the seller can mark the order as sent');\r\n        order.state = 'sent';\r\n        orderById[_id] = order;\r\n    }\r\n\r\n    /// @notice To get the ein owner of a product for the dispute contract\r\n    /// @param _id The id of the product\r\n    /// @return Returns the ein owner\r\n    function getProductEinOwner(uint256 _id) public view returns(uint256) {\r\n        return productById[_id].einOwner;\r\n    }\r\n\r\n    /// @notice To get the price of a product for the dispute contract\r\n    /// @param _id The id of the product\r\n    /// @return Returns the price\r\n    function getProductPrice(uint256 _id) public view returns(uint256) {\r\n        return productById[_id].price;\r\n    }\r\n}\r\n",
  "sourcePath": "C:/Users/merun/Desktop/ethereum-store/contracts/Store.sol",
  "compiler": {
    "name": "solc",
    "version": "0.5.0+commit.1d4f565a.Emscripten.clang"
  },
  "schemaVersion": "3.0.5",
  "updatedAt": "2019-05-11T11:04:04.646Z",
  "devdoc": {
    "methods": {
      "constructor": {
        "params": {
          "_store": "The address of the store contract that will be used in this contract"
        }
      },
      "counterDispute(uint256,string)": {
        "params": {
          "_counterReason": "The reason for countering the argument of the buyer"
        }
      },
      "disputeOrder(uint256,string)": {
        "params": {
          "_reason": "The string indicating why the buyer is disputing this order"
        }
      },
      "resolveDispute(uint256,bool)": {
        "params": {
          "_isBuyerWinner": "If the winner is the buyer or not to perform the transfer"
        }
      },
      "setOperator(address,bool)": {
        "params": {
          "_isRemoved": "Whether you want to add or remove this operator"
        }
      }
    }
  },
  "userdoc": {
    "methods": {}
  }
}