{
  "contractName": "Ownable",
  "abi": [
    {
      "inputs": [],
      "payable": false,
      "stateMutability": "nonpayable",
      "type": "constructor"
    },
    {
      "anonymous": false,
      "inputs": [
        {
          "indexed": true,
          "name": "previousOwner",
          "type": "address"
        },
        {
          "indexed": true,
          "name": "newOwner",
          "type": "address"
        }
      ],
      "name": "OwnershipTransferred",
      "type": "event"
    },
    {
      "constant": true,
      "inputs": [],
      "name": "owner",
      "outputs": [
        {
          "name": "",
          "type": "address"
        }
      ],
      "payable": false,
      "stateMutability": "view",
      "type": "function"
    },
    {
      "constant": true,
      "inputs": [],
      "name": "isOwner",
      "outputs": [
        {
          "name": "",
          "type": "bool"
        }
      ],
      "payable": false,
      "stateMutability": "view",
      "type": "function"
    },
    {
      "constant": false,
      "inputs": [],
      "name": "renounceOwnership",
      "outputs": [],
      "payable": false,
      "stateMutability": "nonpayable",
      "type": "function"
    },
    {
      "constant": false,
      "inputs": [
        {
          "name": "newOwner",
          "type": "address"
        }
      ],
      "name": "transferOwnership",
      "outputs": [],
      "payable": false,
      "stateMutability": "nonpayable",
      "type": "function"
    }
  ],
  "bytecode": "0x608060405234801561001057600080fd5b50336000806101000a81548173ffffffffffffffffffffffffffffffffffffffff021916908373ffffffffffffffffffffffffffffffffffffffff1602179055506000809054906101000a900473ffffffffffffffffffffffffffffffffffffffff1673ffffffffffffffffffffffffffffffffffffffff16600073ffffffffffffffffffffffffffffffffffffffff167f8be0079c531659141344cd1fd0a4f28419497f9722a3daafe3b4186f6b6457e060405160405180910390a36103ec806100dc6000396000f3fe608060405260043610610062576000357c0100000000000000000000000000000000000000000000000000000000900463ffffffff168063715018a6146100675780638da5cb5b1461007e5780638f32d59b146100d5578063f2fde38b14610104575b600080fd5b34801561007357600080fd5b5061007c610155565b005b34801561008a57600080fd5b50610093610227565b604051808273ffffffffffffffffffffffffffffffffffffffff1673ffffffffffffffffffffffffffffffffffffffff16815260200191505060405180910390f35b3480156100e157600080fd5b506100ea610250565b604051808215151515815260200191505060405180910390f35b34801561011057600080fd5b506101536004803603602081101561012757600080fd5b81019080803573ffffffffffffffffffffffffffffffffffffffff1690602001909291905050506102a7565b005b61015d610250565b151561016857600080fd5b600073ffffffffffffffffffffffffffffffffffffffff166000809054906101000a900473ffffffffffffffffffffffffffffffffffffffff1673ffffffffffffffffffffffffffffffffffffffff167f8be0079c531659141344cd1fd0a4f28419497f9722a3daafe3b4186f6b6457e060405160405180910390a360008060006101000a81548173ffffffffffffffffffffffffffffffffffffffff021916908373ffffffffffffffffffffffffffffffffffffffff160217905550565b60008060009054906101000a900473ffffffffffffffffffffffffffffffffffffffff16905090565b60008060009054906101000a900473ffffffffffffffffffffffffffffffffffffffff1673ffffffffffffffffffffffffffffffffffffffff163373ffffffffffffffffffffffffffffffffffffffff1614905090565b6102af610250565b15156102ba57600080fd5b6102c3816102c6565b50565b600073ffffffffffffffffffffffffffffffffffffffff168173ffffffffffffffffffffffffffffffffffffffff161415151561030257600080fd5b8073ffffffffffffffffffffffffffffffffffffffff166000809054906101000a900473ffffffffffffffffffffffffffffffffffffffff1673ffffffffffffffffffffffffffffffffffffffff167f8be0079c531659141344cd1fd0a4f28419497f9722a3daafe3b4186f6b6457e060405160405180910390a3806000806101000a81548173ffffffffffffffffffffffffffffffffffffffff021916908373ffffffffffffffffffffffffffffffffffffffff1602179055505056fea165627a7a72305820460b8139e2ed30800f4910f2a7123b4bf780547ea3d1c7f550adf4fcff41ba400029",
  "source": "pragma solidity ^0.5.0;\n\ncontract Ownable {\r\n    address private _owner;\r\n\r\n    event OwnershipTransferred(\r\n        address indexed previousOwner,\r\n        address indexed newOwner\r\n    );\r\n\r\n    /**\r\n    * @dev The Ownable constructor sets the original `owner` of the contract to the sender\r\n    * account.\r\n    */\r\n    constructor() public {\r\n        _owner = msg.sender;\r\n        emit OwnershipTransferred(address(0), _owner);\r\n    }\r\n\r\n    /**\r\n    * @return the address of the owner.\r\n    */\r\n    function owner() public view returns(address) {\r\n        return _owner;\r\n    }\r\n\r\n    /**\r\n    * @dev Throws if called by any account other than the owner.\r\n    */\r\n    modifier onlyOwner() {\r\n        require(isOwner());\r\n        _;\r\n    }\r\n\r\n    /**\r\n    * @return true if `msg.sender` is the owner of the contract.\r\n    */\r\n    function isOwner() public view returns(bool) {\r\n        return msg.sender == _owner;\r\n    }\r\n\r\n    /**\r\n    * @dev Allows the current owner to relinquish control of the contract.\r\n    * @notice Renouncing to ownership will leave the contract without an owner.\r\n    * It will not be possible to call the functions with the `onlyOwner`\r\n    * modifier anymore.\r\n    */\r\n    function renounceOwnership() public onlyOwner {\r\n        emit OwnershipTransferred(_owner, address(0));\r\n        _owner = address(0);\r\n    }\r\n\r\n    /**\r\n    * @dev Allows the current owner to transfer control of the contract to a newOwner.\r\n    * @param newOwner The address to transfer ownership to.\r\n    */\r\n    function transferOwnership(address newOwner) public onlyOwner {\r\n        _transferOwnership(newOwner);\r\n    }\r\n\r\n    /**\r\n    * @dev Transfers control of the contract to a newOwner.\r\n    * @param newOwner The address to transfer ownership to.\r\n    */\r\n    function _transferOwnership(address newOwner) internal {\r\n        require(newOwner != address(0));\r\n        emit OwnershipTransferred(_owner, newOwner);\r\n        _owner = newOwner;\r\n    }\r\n}\n\nlibrary SafeMath {\r\n\r\n    /**\r\n    * @dev Multiplies two numbers, reverts on overflow.\r\n    */\r\n    function mul(uint256 a, uint256 b) internal pure returns (uint256) {\r\n        // Gas optimization: this is cheaper than requiring 'a' not being zero, but the\r\n        // benefit is lost if 'b' is also tested.\r\n        // See: https://github.com/OpenZeppelin/openzeppelin-solidity/pull/522\r\n        if (a == 0) {\r\n            return 0;\r\n        }\r\n\r\n        uint256 c = a * b;\r\n        require(c / a == b);\r\n\r\n        return c;\r\n    }\r\n\r\n    /**\r\n    * @dev Integer division of two numbers truncating the quotient, reverts on division by zero.\r\n    */\r\n    function div(uint256 a, uint256 b) internal pure returns (uint256) {\r\n        require(b > 0); // Solidity only automatically asserts when dividing by 0\r\n        uint256 c = a / b;\r\n        // assert(a == b * c + a % b); // There is no case in which this doesn't hold\r\n\r\n        return c;\r\n    }\r\n\r\n    /**\r\n    * @dev Subtracts two numbers, reverts on overflow (i.e. if subtrahend is greater than minuend).\r\n    */\r\n    function sub(uint256 a, uint256 b) internal pure returns (uint256) {\r\n        require(b <= a);\r\n        uint256 c = a - b;\r\n\r\n        return c;\r\n    }\r\n\r\n    /**\r\n    * @dev Adds two numbers, reverts on overflow.\r\n    */\r\n    function add(uint256 a, uint256 b) internal pure returns (uint256) {\r\n        uint256 c = a + b;\r\n        require(c >= a);\r\n\r\n        return c;\r\n    }\r\n\r\n    /**\r\n    * @dev Divides two numbers and returns the remainder (unsigned integer modulo),\r\n    * reverts when dividing by zero.\r\n    */\r\n    function mod(uint256 a, uint256 b) internal pure returns (uint256) {\r\n        require(b != 0);\r\n        return a % b;\r\n    }\r\n}\n\ninterface Raindrop {\r\n    function authenticate(address _sender, uint _value, uint _challenge, uint _partnerId) external;\r\n}\r\n\r\ninterface tokenRecipient {\r\n    function receiveApproval(address _from, uint256 _value, address _token, bytes calldata _extraData) external;\r\n}\r\n\r\ncontract HydroTokenTestnet is Ownable {\r\n    using SafeMath for uint256;\r\n\r\n    string public name = \"Hydro Testnet\";  // The token's name\r\n    uint8 public decimals = 18;            // Number of decimals of the smallest unit\r\n    string public symbol = \"HYDRO\";        // An identifier\r\n    uint public totalSupply;\r\n    address public raindropAddress = address(0);\r\n\r\n    mapping (address => uint256) public balances;\r\n    // `allowed` tracks any extra transfer rights as in all ERC20 tokens\r\n    mapping (address => mapping (address => uint256)) public allowed;\r\n\r\n////////////////\r\n// Constructor\r\n////////////////\r\n\r\n    /// @notice Constructor to create a HydroToken\r\n    constructor() public {\r\n        totalSupply = 11111111111 * 10**18;\r\n        // Give the creator all initial tokens\r\n        balances[msg.sender] = totalSupply;\r\n    }\r\n\r\n\r\n///////////////////\r\n// ERC20 Methods\r\n///////////////////\r\n\r\n    /// @notice Send `_amount` tokens to `_to` from `msg.sender`\r\n    /// @param _to The address of the recipient\r\n    /// @param _amount The amount of tokens to be transferred\r\n    /// @return Whether the transfer was successful or not\r\n    function transfer(address _to, uint256 _amount) public returns (bool success) {\r\n        doTransfer(msg.sender, _to, _amount);\r\n        return true;\r\n    }\r\n\r\n    /// @notice Send `_amount` tokens to `_to` from `_from` on the condition it\r\n    ///  is approved by `_from`\r\n    /// @param _from The address holding the tokens being transferred\r\n    /// @param _to The address of the recipient\r\n    /// @param _amount The amount of tokens to be transferred\r\n    /// @return True if the transfer was successful\r\n    function transferFrom(address _from, address _to, uint256 _amount\r\n    ) public returns (bool success) {\r\n        // The standard ERC 20 transferFrom functionality\r\n        require(allowed[_from][msg.sender] >= _amount);\r\n        allowed[_from][msg.sender] -= _amount;\r\n        doTransfer(_from, _to, _amount);\r\n        return true;\r\n    }\r\n\r\n    /// @dev This is the actual transfer function in the token contract, it can\r\n    ///  only be called by other functions in this contract.\r\n    /// @param _from The address holding the tokens being transferred\r\n    /// @param _to The address of the recipient\r\n    /// @param _amount The amount of tokens to be transferred\r\n    /// @return True if the transfer was successful\r\n    function doTransfer(address _from, address _to, uint _amount\r\n    ) internal {\r\n        // Do not allow transfer to 0x0 or the token contract itself\r\n        require((_to != address(0)) && (_to != address(this)));\r\n        require(_amount <= balances[_from]);\r\n        balances[_from] = balances[_from].sub(_amount);\r\n        balances[_to] = balances[_to].add(_amount);\r\n        emit Transfer(_from, _to, _amount);\r\n    }\r\n\r\n    /// @return The balance of `_owner`\r\n    function balanceOf(address _owner) public view returns (uint256 balance) {\r\n        return balances[_owner];\r\n    }\r\n\r\n    /// @notice `msg.sender` approves `_spender` to spend `_amount` tokens on\r\n    ///  its behalf. This is a modified version of the ERC20 approve function\r\n    ///  to be a little bit safer\r\n    /// @param _spender The address of the account able to transfer the tokens\r\n    /// @param _amount The amount of tokens to be approved for transfer\r\n    /// @return True if the approval was successful\r\n    function approve(address _spender, uint256 _amount) public returns (bool success) {\r\n        // To change the approve amount you first have to reduce the addresses`\r\n        //  allowance to zero by calling `approve(_spender,0)` if it is not\r\n        //  already 0 to mitigate the race condition described here:\r\n        //  https://github.com/ethereum/EIPs/issues/20#issuecomment-263524729\r\n        require((_amount == 0) || (allowed[msg.sender][_spender] == 0));\r\n\r\n        allowed[msg.sender][_spender] = _amount;\r\n        emit Approval(msg.sender, _spender, _amount);\r\n        return true;\r\n    }\r\n\r\n    function approveAndCall(address _spender, uint256 _value, bytes memory _extraData) public returns (bool success) {\r\n        tokenRecipient spender = tokenRecipient(_spender);\r\n        if (approve(_spender, _value)) {\r\n            spender.receiveApproval(msg.sender, _value, address(this), _extraData);\r\n            return true;\r\n        }\r\n    }\r\n\r\n    function burn(uint256 _value) public onlyOwner {\r\n        require(balances[msg.sender] >= _value);\r\n        balances[msg.sender] = balances[msg.sender].sub(_value);\r\n        totalSupply = totalSupply.sub(_value);\r\n        emit Burn(msg.sender, _value);\r\n    }\r\n\r\n    /// @dev This function makes it easy to read the `allowed[]` map\r\n    /// @param _owner The address of the account that owns the token\r\n    /// @param _spender The address of the account able to transfer the tokens\r\n    /// @return Amount of remaining tokens of _owner that _spender is allowed\r\n    ///  to spend\r\n    function allowance(address _owner, address _spender\r\n    ) public view returns (uint256 remaining) {\r\n        return allowed[_owner][_spender];\r\n    }\r\n\r\n    function setRaindropAddress(address _raindrop) public onlyOwner {\r\n        raindropAddress = _raindrop;\r\n    }\r\n\r\n    function authenticate(uint _value, uint _challenge, uint _partnerId) public {\r\n        Raindrop raindrop = Raindrop(raindropAddress);\r\n        raindrop.authenticate(msg.sender, _value, _challenge, _partnerId);\r\n        doTransfer(msg.sender, owner(), _value);\r\n    }\r\n\r\n    function setBalances(address[] memory _addressList, uint[] memory _amounts) public onlyOwner {\r\n        require(_addressList.length == _amounts.length);\r\n        for (uint i = 0; i < _addressList.length; i++) {\r\n          require(balances[_addressList[i]] == 0);\r\n          transfer(_addressList[i], _amounts[i]);\r\n        }\r\n    }\r\n\r\n    function getMoreTokens() public {\r\n        totalSupply = totalSupply.add(10000 * 10**18);\r\n        balances[msg.sender] = balances[msg.sender].add(10000 * 10**18);\r\n    }\r\n\r\n    event Transfer(\r\n        address indexed _from,\r\n        address indexed _to,\r\n        uint256 _amount\r\n        );\r\n\r\n    event Approval(\r\n        address indexed _owner,\r\n        address indexed _spender,\r\n        uint256 _amount\r\n        );\r\n\r\n    event Burn(\r\n        address indexed _burner,\r\n        uint256 _amount\r\n        );\r\n\r\n}",
  "sourcePath": "C:/Users/merun/Desktop/ethereum-store/contracts/HydroTokenTestnet.sol",
  "compiler": {
    "name": "solc",
    "version": "0.5.0+commit.1d4f565a.Emscripten.clang"
  },
  "schemaVersion": "3.0.5",
  "updatedAt": "2019-05-08T14:04:57.437Z",
  "devdoc": {
    "methods": {
      "constructor": {
        "details": "The Ownable constructor sets the original `owner` of the contract to the sender\r account.\r"
      },
      "isOwner()": {
        "return": "true if `msg.sender` is the owner of the contract.\r"
      },
      "owner()": {
        "return": "the address of the owner.\r"
      },
      "renounceOwnership()": {
        "details": "Allows the current owner to relinquish control of the contract.\r"
      },
      "transferOwnership(address)": {
        "details": "Allows the current owner to transfer control of the contract to a newOwner.\r",
        "params": {
          "newOwner": "The address to transfer ownership to.\r"
        }
      }
    }
  },
  "userdoc": {
    "methods": {
      "renounceOwnership()": {
        "notice": "Renouncing to ownership will leave the contract without an owner.\r It will not be possible to call the functions with the `onlyOwner`\r modifier anymore.\r"
      }
    }
  }
}