{
  "contractName": "Store",
  "abi": [
    {
      "constant": true,
      "inputs": [],
      "name": "lastAddressId",
      "outputs": [
        {
          "name": "",
          "type": "uint256"
        }
      ],
      "payable": false,
      "stateMutability": "view",
      "type": "function"
    },
    {
      "constant": true,
      "inputs": [],
      "name": "identityRegistry",
      "outputs": [
        {
          "name": "",
          "type": "address"
        }
      ],
      "payable": false,
      "stateMutability": "view",
      "type": "function"
    },
    {
      "constant": true,
      "inputs": [],
      "name": "disputeContract",
      "outputs": [
        {
          "name": "",
          "type": "address"
        }
      ],
      "payable": false,
      "stateMutability": "view",
      "type": "function"
    },
    {
      "constant": true,
      "inputs": [],
      "name": "lastOrderId",
      "outputs": [
        {
          "name": "",
          "type": "uint256"
        }
      ],
      "payable": false,
      "stateMutability": "view",
      "type": "function"
    },
    {
      "constant": true,
      "inputs": [
        {
          "name": "",
          "type": "uint256"
        }
      ],
      "name": "products",
      "outputs": [
        {
          "name": "id",
          "type": "uint256"
        },
        {
          "name": "sku",
          "type": "bytes32"
        },
        {
          "name": "title",
          "type": "string"
        },
        {
          "name": "description",
          "type": "string"
        },
        {
          "name": "date",
          "type": "uint256"
        },
        {
          "name": "einOwner",
          "type": "uint256"
        },
        {
          "name": "owner",
          "type": "address"
        },
        {
          "name": "price",
          "type": "uint256"
        },
        {
          "name": "image",
          "type": "string"
        },
        {
          "name": "quantity",
          "type": "uint256"
        }
      ],
      "payable": false,
      "stateMutability": "view",
      "type": "function"
    },
    {
      "constant": true,
      "inputs": [
        {
          "name": "",
          "type": "uint256"
        }
      ],
      "name": "addressById",
      "outputs": [
        {
          "name": "nameSurname",
          "type": "string"
        },
        {
          "name": "direction",
          "type": "string"
        },
        {
          "name": "city",
          "type": "bytes32"
        },
        {
          "name": "stateRegion",
          "type": "bytes32"
        },
        {
          "name": "postalCode",
          "type": "uint256"
        },
        {
          "name": "country",
          "type": "bytes32"
        },
        {
          "name": "phone",
          "type": "uint256"
        }
      ],
      "payable": false,
      "stateMutability": "view",
      "type": "function"
    },
    {
      "constant": true,
      "inputs": [
        {
          "name": "",
          "type": "uint256"
        },
        {
          "name": "",
          "type": "uint256"
        }
      ],
      "name": "completedOrders",
      "outputs": [
        {
          "name": "id",
          "type": "uint256"
        },
        {
          "name": "addressId",
          "type": "uint256"
        },
        {
          "name": "productId",
          "type": "uint256"
        },
        {
          "name": "date",
          "type": "uint256"
        },
        {
          "name": "buyer",
          "type": "uint256"
        },
        {
          "name": "addressBuyer",
          "type": "address"
        },
        {
          "name": "state",
          "type": "string"
        },
        {
          "name": "barcode",
          "type": "uint256"
        }
      ],
      "payable": false,
      "stateMutability": "view",
      "type": "function"
    },
    {
      "constant": true,
      "inputs": [
        {
          "name": "",
          "type": "uint256"
        }
      ],
      "name": "orderById",
      "outputs": [
        {
          "name": "id",
          "type": "uint256"
        },
        {
          "name": "addressId",
          "type": "uint256"
        },
        {
          "name": "productId",
          "type": "uint256"
        },
        {
          "name": "date",
          "type": "uint256"
        },
        {
          "name": "buyer",
          "type": "uint256"
        },
        {
          "name": "addressBuyer",
          "type": "address"
        },
        {
          "name": "state",
          "type": "string"
        },
        {
          "name": "barcode",
          "type": "uint256"
        }
      ],
      "payable": false,
      "stateMutability": "view",
      "type": "function"
    },
    {
      "constant": true,
      "inputs": [],
      "name": "owner",
      "outputs": [
        {
          "name": "",
          "type": "address"
        }
      ],
      "payable": false,
      "stateMutability": "view",
      "type": "function"
    },
    {
      "constant": true,
      "inputs": [
        {
          "name": "",
          "type": "uint256"
        }
      ],
      "name": "productById",
      "outputs": [
        {
          "name": "id",
          "type": "uint256"
        },
        {
          "name": "sku",
          "type": "bytes32"
        },
        {
          "name": "title",
          "type": "string"
        },
        {
          "name": "description",
          "type": "string"
        },
        {
          "name": "date",
          "type": "uint256"
        },
        {
          "name": "einOwner",
          "type": "uint256"
        },
        {
          "name": "owner",
          "type": "address"
        },
        {
          "name": "price",
          "type": "uint256"
        },
        {
          "name": "image",
          "type": "string"
        },
        {
          "name": "quantity",
          "type": "uint256"
        }
      ],
      "payable": false,
      "stateMutability": "view",
      "type": "function"
    },
    {
      "constant": true,
      "inputs": [],
      "name": "lastId",
      "outputs": [
        {
          "name": "",
          "type": "uint256"
        }
      ],
      "payable": false,
      "stateMutability": "view",
      "type": "function"
    },
    {
      "constant": true,
      "inputs": [
        {
          "name": "",
          "type": "uint256"
        }
      ],
      "name": "inventories",
      "outputs": [
        {
          "name": "id",
          "type": "uint256"
        },
        {
          "name": "name",
          "type": "string"
        }
      ],
      "payable": false,
      "stateMutability": "view",
      "type": "function"
    },
    {
      "constant": true,
      "inputs": [
        {
          "name": "",
          "type": "uint256"
        },
        {
          "name": "",
          "type": "uint256"
        }
      ],
      "name": "pendingOrders",
      "outputs": [
        {
          "name": "id",
          "type": "uint256"
        },
        {
          "name": "addressId",
          "type": "uint256"
        },
        {
          "name": "productId",
          "type": "uint256"
        },
        {
          "name": "date",
          "type": "uint256"
        },
        {
          "name": "buyer",
          "type": "uint256"
        },
        {
          "name": "addressBuyer",
          "type": "address"
        },
        {
          "name": "state",
          "type": "string"
        },
        {
          "name": "barcode",
          "type": "uint256"
        }
      ],
      "payable": false,
      "stateMutability": "view",
      "type": "function"
    },
    {
      "constant": true,
      "inputs": [],
      "name": "token",
      "outputs": [
        {
          "name": "",
          "type": "address"
        }
      ],
      "payable": false,
      "stateMutability": "view",
      "type": "function"
    },
    {
      "inputs": [
        {
          "name": "_token",
          "type": "address"
        },
        {
          "name": "_identityRegistry",
          "type": "address"
        }
      ],
      "payable": false,
      "stateMutability": "nonpayable",
      "type": "constructor"
    },
    {
      "constant": false,
      "inputs": [
        {
          "name": "_dispute",
          "type": "address"
        }
      ],
      "name": "setDisputeAddress",
      "outputs": [],
      "payable": false,
      "stateMutability": "nonpayable",
      "type": "function"
    },
    {
      "constant": false,
      "inputs": [
        {
          "name": "_title",
          "type": "string"
        },
        {
          "name": "_sku",
          "type": "bytes32"
        },
        {
          "name": "_description",
          "type": "string"
        },
        {
          "name": "_price",
          "type": "uint256"
        },
        {
          "name": "_image",
          "type": "string"
        },
        {
          "name": "_attributes",
          "type": "bytes32[]"
        },
        {
          "name": "_attributeValues",
          "type": "bytes32[]"
        },
        {
          "name": "_quantity",
          "type": "uint256"
        }
      ],
      "name": "publishProduct",
      "outputs": [],
      "payable": false,
      "stateMutability": "nonpayable",
      "type": "function"
    },
    {
      "constant": false,
      "inputs": [
        {
          "name": "_name",
          "type": "string"
        },
        {
          "name": "_skus",
          "type": "bytes32[]"
        }
      ],
      "name": "createInventory",
      "outputs": [],
      "payable": false,
      "stateMutability": "nonpayable",
      "type": "function"
    },
    {
      "constant": false,
      "inputs": [
        {
          "name": "_id",
          "type": "uint256"
        }
      ],
      "name": "deleteInventory",
      "outputs": [],
      "payable": false,
      "stateMutability": "nonpayable",
      "type": "function"
    },
    {
      "constant": false,
      "inputs": [
        {
          "name": "_id",
          "type": "uint256"
        },
        {
          "name": "_nameSurname",
          "type": "string"
        },
        {
          "name": "_direction",
          "type": "string"
        },
        {
          "name": "_city",
          "type": "bytes32"
        },
        {
          "name": "_stateRegion",
          "type": "bytes32"
        },
        {
          "name": "_postalCode",
          "type": "uint256"
        },
        {
          "name": "_country",
          "type": "bytes32"
        },
        {
          "name": "_phone",
          "type": "uint256"
        },
        {
          "name": "_barcode",
          "type": "uint256"
        }
      ],
      "name": "buyProduct",
      "outputs": [],
      "payable": false,
      "stateMutability": "nonpayable",
      "type": "function"
    },
    {
      "constant": false,
      "inputs": [
        {
          "name": "_orderId",
          "type": "uint256"
        }
      ],
      "name": "receivePayment",
      "outputs": [],
      "payable": false,
      "stateMutability": "nonpayable",
      "type": "function"
    },
    {
      "constant": false,
      "inputs": [
        {
          "name": "_id",
          "type": "uint256"
        }
      ],
      "name": "markOrderSent",
      "outputs": [],
      "payable": false,
      "stateMutability": "nonpayable",
      "type": "function"
    },
    {
      "constant": false,
      "inputs": [
        {
          "name": "_id",
          "type": "uint256"
        }
      ],
      "name": "deleteProduct",
      "outputs": [],
      "payable": false,
      "stateMutability": "nonpayable",
      "type": "function"
    },
    {
      "constant": true,
      "inputs": [],
      "name": "getProductsLength",
      "outputs": [
        {
          "name": "",
          "type": "uint256"
        }
      ],
      "payable": false,
      "stateMutability": "view",
      "type": "function"
    },
    {
      "constant": true,
      "inputs": [
        {
          "name": "_type",
          "type": "bytes32"
        },
        {
          "name": "_einOwner",
          "type": "uint256"
        }
      ],
      "name": "getOrdersLength",
      "outputs": [
        {
          "name": "",
          "type": "uint256"
        }
      ],
      "payable": false,
      "stateMutability": "view",
      "type": "function"
    },
    {
      "constant": true,
      "inputs": [
        {
          "name": "_id",
          "type": "uint256"
        }
      ],
      "name": "getProductEinOwner",
      "outputs": [
        {
          "name": "",
          "type": "uint256"
        }
      ],
      "payable": false,
      "stateMutability": "view",
      "type": "function"
    },
    {
      "constant": true,
      "inputs": [
        {
          "name": "_id",
          "type": "uint256"
        }
      ],
      "name": "getProductOwner",
      "outputs": [
        {
          "name": "",
          "type": "address"
        }
      ],
      "payable": false,
      "stateMutability": "view",
      "type": "function"
    },
    {
      "constant": true,
      "inputs": [
        {
          "name": "_id",
          "type": "uint256"
        }
      ],
      "name": "getProductPrice",
      "outputs": [
        {
          "name": "",
          "type": "uint256"
        }
      ],
      "payable": false,
      "stateMutability": "view",
      "type": "function"
    }
  ],
  "bytecode": "0x60806040523480156200001157600080fd5b5060405160408062006a69833981018060405260408110156200003357600080fd5b81019080805190602001909291908051906020019092919050505033600760006101000a81548173ffffffffffffffffffffffffffffffffffffffff021916908373ffffffffffffffffffffffffffffffffffffffff16021790555081600b60006101000a81548173ffffffffffffffffffffffffffffffffffffffff021916908373ffffffffffffffffffffffffffffffffffffffff16021790555080600c60006101000a81548173ffffffffffffffffffffffffffffffffffffffff021916908373ffffffffffffffffffffffffffffffffffffffff160217905550505061694680620001236000396000f3fe60806040526004361061015f576000357c0100000000000000000000000000000000000000000000000000000000900463ffffffff1680630ea9bf92146101645780631155dfe51461019f578063119a6fe7146101ca578063134e18f4146101f55780631f2cb8511461024c578063210a7cfb146103f25780634010b84e1461042d5780635662ecc7146104845780637acc0b20146104af57806387d3a024146106985780638cb0fe27146107db5780638d77eba5146108f65780638da5cb5b14610a075780639b90457614610a5e5780639dd162b514610aaf578063a30b475f14610c0b578063a30fb05b14610df4578063a9a9243014611131578063c051160814611180578063c1292cc3146111d9578063cd78ba0114611204578063e2eab483146112bf578063e4c0bc9b146112fa578063e7bf7dfc14611415578063ed90c7b714611464578063fc0c546a1461149f578063fe542c9b146114f6575b600080fd5b34801561017057600080fd5b5061019d6004803603602081101561018757600080fd5b8101908080359060200190929190505050611571565b005b3480156101ab57600080fd5b506101b4611779565b6040518082815260200191505060405180910390f35b3480156101d657600080fd5b506101df611786565b6040518082815260200191505060405180910390f35b34801561020157600080fd5b5061020a61178c565b604051808273ffffffffffffffffffffffffffffffffffffffff1673ffffffffffffffffffffffffffffffffffffffff16815260200191505060405180910390f35b34801561025857600080fd5b506103f0600480360361012081101561027057600080fd5b81019080803590602001909291908035906020019064010000000081111561029757600080fd5b8201836020820111156102a957600080fd5b803590602001918460018302840111640100000000831117156102cb57600080fd5b91908080601f016020809104026020016040519081016040528093929190818152602001838380828437600081840152601f19601f8201169050808301925050505050505091929192908035906020019064010000000081111561032e57600080fd5b82018360208201111561034057600080fd5b8035906020019184600183028401116401000000008311171561036257600080fd5b91908080601f016020809104026020016040519081016040528093929190818152602001838380828437600081840152601f19601f8201169050808301925050505050505091929192908035906020019092919080359060200190929190803590602001909291908035906020019092919080359060200190929190803590602001909291905050506117b2565b005b3480156103fe57600080fd5b5061042b6004803603602081101561041557600080fd5b8101908080359060200190929190505050612ba8565b005b34801561043957600080fd5b506104426134a8565b604051808273ffffffffffffffffffffffffffffffffffffffff1673ffffffffffffffffffffffffffffffffffffffff16815260200191505060405180910390f35b34801561049057600080fd5b506104996134ce565b6040518082815260200191505060405180910390f35b3480156104bb57600080fd5b506104e8600480360360208110156104d257600080fd5b81019080803590602001909291905050506134d4565b604051808b81526020018a815260200180602001806020018981526020018881526020018773ffffffffffffffffffffffffffffffffffffffff1673ffffffffffffffffffffffffffffffffffffffff1681526020018681526020018060200185815260200184810384528c818151815260200191508051906020019080838360005b8381101561058657808201518184015260208101905061056b565b50505050905090810190601f1680156105b35780820380516001836020036101000a031916815260200191505b5084810383528b818151815260200191508051906020019080838360005b838110156105ec5780820151818401526020810190506105d1565b50505050905090810190601f1680156106195780820380516001836020036101000a031916815260200191505b50848103825286818151815260200191508051906020019080838360005b83811015610652578082015181840152602081019050610637565b50505050905090810190601f16801561067f5780820380516001836020036101000a031916815260200191505b509d505050505050505050505050505060405180910390f35b3480156106a457600080fd5b506106d1600480360360208110156106bb57600080fd5b810190808035906020019092919050505061371f565b60405180806020018060200188815260200187815260200186815260200185815260200184815260200183810383528a818151815260200191508051906020019080838360005b83811015610733578082015181840152602081019050610718565b50505050905090810190601f1680156107605780820380516001836020036101000a031916815260200191505b50838103825289818151815260200191508051906020019080838360005b8381101561079957808201518184015260208101905061077e565b50505050905090810190601f1680156107c65780820380516001836020036101000a031916815260200191505b50995050505050505050505060405180910390f35b3480156107e757600080fd5b5061081e600480360360408110156107fe57600080fd5b810190808035906020019092919080359060200190929190505050613891565b604051808981526020018881526020018781526020018681526020018581526020018473ffffffffffffffffffffffffffffffffffffffff1673ffffffffffffffffffffffffffffffffffffffff16815260200180602001838152602001828103825284818151815260200191508051906020019080838360005b838110156108b4578082015181840152602081019050610899565b50505050905090810190601f1680156108e15780820380516001836020036101000a031916815260200191505b50995050505050505050505060405180910390f35b34801561090257600080fd5b5061092f6004803603602081101561091957600080fd5b81019080803590602001909291905050506139ad565b604051808981526020018881526020018781526020018681526020018581526020018473ffffffffffffffffffffffffffffffffffffffff1673ffffffffffffffffffffffffffffffffffffffff16815260200180602001838152602001828103825284818151815260200191508051906020019080838360005b838110156109c55780820151818401526020810190506109aa565b50505050905090810190601f1680156109f25780820380516001836020036101000a031916815260200191505b50995050505050505050505060405180910390f35b348015610a1357600080fd5b50610a1c613aad565b604051808273ffffffffffffffffffffffffffffffffffffffff1673ffffffffffffffffffffffffffffffffffffffff16815260200191505060405180910390f35b348015610a6a57600080fd5b50610aad60048036036020811015610a8157600080fd5b81019080803573ffffffffffffffffffffffffffffffffffffffff169060200190929190505050613ad3565b005b348015610abb57600080fd5b50610c0960048036036040811015610ad257600080fd5b8101908080359060200190640100000000811115610aef57600080fd5b820183602082011115610b0157600080fd5b80359060200191846001830284011164010000000083111715610b2357600080fd5b91908080601f016020809104026020016040519081016040528093929190818152602001838380828437600081840152601f19601f82011690508083019250505050505050919291929080359060200190640100000000811115610b8657600080fd5b820183602082011115610b9857600080fd5b80359060200191846020830284011164010000000083111715610bba57600080fd5b919080806020026020016040519081016040528093929190818152602001838360200280828437600081840152601f19601f820116905080830192505050505050509192919290505050613db9565b005b348015610c1757600080fd5b50610c4460048036036020811015610c2e57600080fd5b8101908080359060200190929190505050613f76565b604051808b81526020018a815260200180602001806020018981526020018881526020018773ffffffffffffffffffffffffffffffffffffffff1673ffffffffffffffffffffffffffffffffffffffff1681526020018681526020018060200185815260200184810384528c818151815260200191508051906020019080838360005b83811015610ce2578082015181840152602081019050610cc7565b50505050905090810190601f168015610d0f5780820380516001836020036101000a031916815260200191505b5084810383528b818151815260200191508051906020019080838360005b83811015610d48578082015181840152602081019050610d2d565b50505050905090810190601f168015610d755780820380516001836020036101000a031916815260200191505b50848103825286818151815260200191508051906020019080838360005b83811015610dae578082015181840152602081019050610d93565b50505050905090810190601f168015610ddb5780820380516001836020036101000a031916815260200191505b509d505050505050505050505050505060405180910390f35b348015610e0057600080fd5b5061112f6004803603610100811015610e1857600080fd5b8101908080359060200190640100000000811115610e3557600080fd5b820183602082011115610e4757600080fd5b80359060200191846001830284011164010000000083111715610e6957600080fd5b91908080601f016020809104026020016040519081016040528093929190818152602001838380828437600081840152601f19601f8201169050808301925050505050505091929192908035906020019092919080359060200190640100000000811115610ed657600080fd5b820183602082011115610ee857600080fd5b80359060200191846001830284011164010000000083111715610f0a57600080fd5b91908080601f016020809104026020016040519081016040528093929190818152602001838380828437600081840152601f19601f8201169050808301925050505050505091929192908035906020019092919080359060200190640100000000811115610f7757600080fd5b820183602082011115610f8957600080fd5b80359060200191846001830284011164010000000083111715610fab57600080fd5b91908080601f016020809104026020016040519081016040528093929190818152602001838380828437600081840152601f19601f8201169050808301925050505050505091929192908035906020019064010000000081111561100e57600080fd5b82018360208201111561102057600080fd5b8035906020019184602083028401116401000000008311171561104257600080fd5b919080806020026020016040519081016040528093929190818152602001838360200280828437600081840152601f19601f820116905080830192505050505050509192919290803590602001906401000000008111156110a257600080fd5b8201836020820111156110b457600080fd5b803590602001918460208302840111640100000000831117156110d657600080fd5b919080806020026020016040519081016040528093929190818152602001838360200280828437600081840152601f19601f820116905080830192505050505050509192919290803590602001909291905050506141b2565b005b34801561113d57600080fd5b5061116a6004803603602081101561115457600080fd5b810190808035906020019092919050505061494c565b6040518082815260200191505060405180910390f35b34801561118c57600080fd5b506111c3600480360360408110156111a357600080fd5b81019080803590602001909291908035906020019092919050505061496c565b6040518082815260200191505060405180910390f35b3480156111e557600080fd5b506111ee614a00565b6040518082815260200191505060405180910390f35b34801561121057600080fd5b5061123d6004803603602081101561122757600080fd5b8101908080359060200190929190505050614a06565b6040518083815260200180602001828103825283818151815260200191508051906020019080838360005b83811015611283578082015181840152602081019050611268565b50505050905090810190601f1680156112b05780820380516001836020036101000a031916815260200191505b50935050505060405180910390f35b3480156112cb57600080fd5b506112f8600480360360208110156112e257600080fd5b8101908080359060200190929190505050614ad1565b005b34801561130657600080fd5b5061133d6004803603604081101561131d57600080fd5b81019080803590602001909291908035906020019092919050505061587a565b604051808981526020018881526020018781526020018681526020018581526020018473ffffffffffffffffffffffffffffffffffffffff1673ffffffffffffffffffffffffffffffffffffffff16815260200180602001838152602001828103825284818151815260200191508051906020019080838360005b838110156113d35780820151818401526020810190506113b8565b50505050905090810190601f1680156114005780820380516001836020036101000a031916815260200191505b50995050505050505050505060405180910390f35b34801561142157600080fd5b5061144e6004803603602081101561143857600080fd5b8101908080359060200190929190505050615996565b6040518082815260200191505060405180910390f35b34801561147057600080fd5b5061149d6004803603602081101561148757600080fd5b81019080803590602001909291905050506159b6565b005b3480156114ab57600080fd5b506114b46162d8565b604051808273ffffffffffffffffffffffffffffffffffffffff1673ffffffffffffffffffffffffffffffffffffffff16815260200191505060405180910390f35b34801561150257600080fd5b5061152f6004803603602081101561151957600080fd5b81019080803590602001909291905050506162fe565b604051808273ffffffffffffffffffffffffffffffffffffffff1673ffffffffffffffffffffffffffffffffffffffff16815260200191505060405180910390f35b60008090505b600680549050811015611775578160068281548110151561159457fe5b9060005260206000209060030201600001541415611768576115b4616431565b60066001600680549050038154811015156115cb57fe5b90600052602060002090600302016060604051908101604052908160008201548152602001600182018054600181600116156101000203166002900480601f0160208091040260200160405190810160405280929190818152602001828054600181600116156101000203166002900480156116885780601f1061165d57610100808354040283529160200191611688565b820191906000526020600020905b81548152906001019060200180831161166b57829003601f168201915b50505050508152602001600282018054806020026020016040519081016040528092919081815260200182805480156116e057602002820191906000526020600020905b8154815260200190600101908083116116cc575b5050505050815250509050806006838154811015156116fb57fe5b906000526020600020906003020160008201518160000155602082015181600101908051906020019061172f929190616453565b50604082015181600201908051906020019061174c9291906164d3565b5090505060068054809190600190036117659190616520565b50505b8080600101915050611577565b5050565b6000600580549050905090565b600a5481565b600c60009054906101000a900473ffffffffffffffffffffffffffffffffffffffff1681565b6000885111151561182b576040517f08c379a00000000000000000000000000000000000000000000000000000000081526004018080602001828103825260208152602001807f546865206e616d6520616e64207375726e616d65206d7573742062652073657481525060200191505060405180910390fd5b600087511115156118ca576040517f08c379a00000000000000000000000000000000000000000000000000000000081526004018080602001828103825260228152602001807f546865206c696e65206f6e6520646972656374696f6e206d757374206265207381526020017f657400000000000000000000000000000000000000000000000000000000000081525060400191505060405180910390fd5b6000602060ff16111515611946576040517f08c379a00000000000000000000000000000000000000000000000000000000081526004018080602001828103825260148152602001807f5468652063697479206d7573742062652073657400000000000000000000000081525060200191505060405180910390fd5b6000602060ff161115156119c2576040517f08c379a000000000000000000000000000000000000000000000000000000000815260040180806020018281038252601f8152602001807f546865207374617465206f7220726567696f6e206d757374206265207365740081525060200191505060405180910390fd5b600084111515611a3a576040517f08c379a000000000000000000000000000000000000000000000000000000000815260040180806020018281038252601b8152602001807f54686520706f7374616c20636f6465206d75737420626520736574000000000081525060200191505060405180910390fd5b600060010283111515611ab5576040517f08c379a00000000000000000000000000000000000000000000000000000000081526004018080602001828103825260178152602001807f54686520636f756e747279206d7573742062652073657400000000000000000081525060200191505060405180910390fd5b600c60009054906101000a900473ffffffffffffffffffffffffffffffffffffffff1673ffffffffffffffffffffffffffffffffffffffff1663237f1a21336040518263ffffffff167c0100000000000000000000000000000000000000000000000000000000028152600401808273ffffffffffffffffffffffffffffffffffffffff1673ffffffffffffffffffffffffffffffffffffffff16815260200191505060206040518083038186803b158015611b7057600080fd5b505afa158015611b84573d6000803e3d6000fd5b505050506040513d6020811015611b9a57600080fd5b81019080805190602001909291905050501515611c6b576040517f08c379a00000000000000000000000000000000000000000000000000000000081526004018080602001828103825260528152602001807f596f75206d757374206861766520616e2045494e206173736f6369617465642081526020017f7769746820796f757220457468657265756d206163636f756e7420746f20707581526020017f726368617365207468652070726f64756374000000000000000000000000000081525060600191505060405180910390fd5b6000600c60009054906101000a900473ffffffffffffffffffffffffffffffffffffffff1673ffffffffffffffffffffffffffffffffffffffff166305c62c2f336040518263ffffffff167c0100000000000000000000000000000000000000000000000000000000028152600401808273ffffffffffffffffffffffffffffffffffffffff1673ffffffffffffffffffffffffffffffffffffffff16815260200191505060206040518083038186803b158015611d2857600080fd5b505afa158015611d3c573d6000803e3d6000fd5b505050506040513d6020811015611d5257600080fd5b81019080805190602001909291905050509050611d6d616552565b600260008c815260200190815260200160002061018060405190810160405290816000820154815260200160018201548152602001600282018054600181600116156101000203166002900480601f016020809104026020016040519081016040528092919081815260200182805460018160011615610100020316600290048015611e3a5780601f10611e0f57610100808354040283529160200191611e3a565b820191906000526020600020905b815481529060010190602001808311611e1d57829003601f168201915b50505050508152602001600382018054600181600116156101000203166002900480601f016020809104026020016040519081016040528092919081815260200182805460018160011615610100020316600290048015611edc5780601f10611eb157610100808354040283529160200191611edc565b820191906000526020600020905b815481529060010190602001808311611ebf57829003601f168201915b5050505050815260200160048201548152602001600582015481526020016006820160009054906101000a900473ffffffffffffffffffffffffffffffffffffffff1673ffffffffffffffffffffffffffffffffffffffff1673ffffffffffffffffffffffffffffffffffffffff16815260200160078201548152602001600882018054600181600116156101000203166002900480601f016020809104026020016040519081016040528092919081815260200182805460018160011615610100020316600290048015611ff25780601f10611fc757610100808354040283529160200191611ff2565b820191906000526020600020905b815481529060010190602001808311611fd557829003601f168201915b505050505081526020016009820180548060200260200160405190810160405280929190818152602001828054801561204a57602002820191906000526020600020905b815481526020019060010190808311612036575b50505050508152602001600a82018054806020026020016040519081016040528092919081815260200182805480156120a257602002820191906000526020600020905b81548152602001906001019080831161208e575b50505050508152602001600b820154815250509050600081604001515111151561215a576040517f08c379a00000000000000000000000000000000000000000000000000000000081526004018080602001828103825260268152602001807f5468652070726f64756374206d75737420657869737420746f2062652070757281526020017f636861736564000000000000000000000000000000000000000000000000000081525060400191505060405180910390fd5b8060e00151600b60009054906101000a900473ffffffffffffffffffffffffffffffffffffffff1673ffffffffffffffffffffffffffffffffffffffff1663dd62ed3e33306040518363ffffffff167c0100000000000000000000000000000000000000000000000000000000028152600401808373ffffffffffffffffffffffffffffffffffffffff1673ffffffffffffffffffffffffffffffffffffffff1681526020018273ffffffffffffffffffffffffffffffffffffffff1673ffffffffffffffffffffffffffffffffffffffff1681526020019250505060206040518083038186803b15801561224e57600080fd5b505afa158015612262573d6000803e3d6000fd5b505050506040513d602081101561227857600080fd5b81019080805190602001909291905050501015151561234b576040517f08c379a00000000000000000000000000000000000000000000000000000000081526004018080602001828103825260438152602001807f596f75206d757374206861766520656e6f75676820485944524f20746f6b656e81526020017f7320617070726f76656420746f20707572636861736520746869732070726f6481526020017f756374000000000000000000000000000000000000000000000000000000000081525060600191505060405180910390fd5b6123536165cd565b60e0604051908101604052808c81526020018b81526020018a8152602001898152602001888152602001878152602001868152509050612391616614565b610100604051908101604052806009548152602001600a5481526020018e81526020014281526020018581526020013373ffffffffffffffffffffffffffffffffffffffff1681526020016040805190810160405280600781526020017f70656e64696e67000000000000000000000000000000000000000000000000008152508152602001868152509050600083610160015111156126f85782610160018051809190600190038152505082600260008f815260200190815260200160002060008201518160000155602082015181600101556040820151816002019080519060200190612481929190616453565b50606082015181600301908051906020019061249e929190616453565b506080820151816004015560a0820151816005015560c08201518160060160006101000a81548173ffffffffffffffffffffffffffffffffffffffff021916908373ffffffffffffffffffffffffffffffffffffffff16021790555060e08201518160070155610100820151816008019080519060200190612521929190616453565b5061012082015181600901908051906020019061253f9291906164d3565b5061014082015181600a01908051906020019061255d9291906164d3565b5061016082015181600b015590505060008090505b6005805490508110156126f657836000015160058281548110151561259357fe5b90600052602060002090600c02016000015414156126e957836005828154811015156125bb57fe5b90600052602060002090600c0201600082015181600001556020820151816001015560408201518160020190805190602001906125f9929190616453565b506060820151816003019080519060200190612616929190616453565b506080820151816004015560a0820151816005015560c08201518160060160006101000a81548173ffffffffffffffffffffffffffffffffffffffff021916908373ffffffffffffffffffffffffffffffffffffffff16021790555060e08201518160070155610100820151816008019080519060200190612699929190616453565b506101208201518160090190805190602001906126b79291906164d3565b5061014082015181600a0190805190602001906126d59291906164d3565b5061016082015181600b01559050506126f6565b8080600101915050612572565b505b6000808581526020019081526020016000208190806001815401808255809150509060018203906000526020600020906008020160009091929091909150600082015181600001556020820151816001015560408201518160020155606082015181600301556080820151816004015560a08201518160050160006101000a81548173ffffffffffffffffffffffffffffffffffffffff021916908373ffffffffffffffffffffffffffffffffffffffff16021790555060c08201518160060190805190602001906127cb929190616453565b5060e0820151816007015550505080600360008f8152602001908152602001600020600082015181600001556020820151816001015560408201518160020155606082015181600301556080820151816004015560a08201518160050160006101000a81548173ffffffffffffffffffffffffffffffffffffffff021916908373ffffffffffffffffffffffffffffffffffffffff16021790555060c0820151816006019080519060200190612882929190616453565b5060e082015181600701559050508160046000600a54815260200190815260200160002060008201518160000190805190602001906128c2929190616453565b5060208201518160010190805190602001906128df929190616453565b5060408201518160020155606082015181600301556080820151816004015560a0820151816005015560c08201518160060155905050600b60009054906101000a900473ffffffffffffffffffffffffffffffffffffffff1673ffffffffffffffffffffffffffffffffffffffff166323b872dd33308660e001516040518463ffffffff167c0100000000000000000000000000000000000000000000000000000000028152600401808473ffffffffffffffffffffffffffffffffffffffff1673ffffffffffffffffffffffffffffffffffffffff1681526020018373ffffffffffffffffffffffffffffffffffffffff1673ffffffffffffffffffffffffffffffffffffffff1681526020018281526020019350505050602060405180830381600087803b158015612a1257600080fd5b505af1158015612a26573d6000803e3d6000fd5b505050506040513d6020811015612a3c57600080fd5b810190808051906020019092919050505050600b60009054906101000a900473ffffffffffffffffffffffffffffffffffffffff1673ffffffffffffffffffffffffffffffffffffffff1663095ea7b3600d60009054906101000a900473ffffffffffffffffffffffffffffffffffffffff168560e001516040518363ffffffff167c0100000000000000000000000000000000000000000000000000000000028152600401808373ffffffffffffffffffffffffffffffffffffffff1673ffffffffffffffffffffffffffffffffffffffff16815260200182815260200192505050602060405180830381600087803b158015612b3957600080fd5b505af1158015612b4d573d6000803e3d6000fd5b505050506040513d6020811015612b6357600080fd5b810190808051906020019092919050505050600960008154809291906001019190505550600a6000815480929190600101919050555050505050505050505050505050565b612bb0616614565b60036000838152602001908152602001600020610100604051908101604052908160008201548152602001600182015481526020016002820154815260200160038201548152602001600482015481526020016005820160009054906101000a900473ffffffffffffffffffffffffffffffffffffffff1673ffffffffffffffffffffffffffffffffffffffff1673ffffffffffffffffffffffffffffffffffffffff168152602001600682018054600181600116156101000203166002900480601f016020809104026020016040519081016040528092919081815260200182805460018160011615610100020316600290048015612cf15780601f10612cc657610100808354040283529160200191612cf1565b820191906000526020600020905b815481529060010190602001808311612cd457829003601f168201915b505050505081526020016007820154815250509050612d0e616552565b600260008360400151815260200190815260200160002061018060405190810160405290816000820154815260200160018201548152602001600282018054600181600116156101000203166002900480601f016020809104026020016040519081016040528092919081815260200182805460018160011615610100020316600290048015612ddf5780601f10612db457610100808354040283529160200191612ddf565b820191906000526020600020905b815481529060010190602001808311612dc257829003601f168201915b50505050508152602001600382018054600181600116156101000203166002900480601f016020809104026020016040519081016040528092919081815260200182805460018160011615610100020316600290048015612e815780601f10612e5657610100808354040283529160200191612e81565b820191906000526020600020905b815481529060010190602001808311612e6457829003601f168201915b5050505050815260200160048201548152602001600582015481526020016006820160009054906101000a900473ffffffffffffffffffffffffffffffffffffffff1673ffffffffffffffffffffffffffffffffffffffff1673ffffffffffffffffffffffffffffffffffffffff16815260200160078201548152602001600882018054600181600116156101000203166002900480601f016020809104026020016040519081016040528092919081815260200182805460018160011615610100020316600290048015612f975780601f10612f6c57610100808354040283529160200191612f97565b820191906000526020600020905b815481529060010190602001808311612f7a57829003601f168201915b5050505050815260200160098201805480602002602001604051908101604052809291908181526020018280548015612fef57602002820191906000526020600020905b815481526020019060010190808311612fdb575b50505050508152602001600a820180548060200260200160405190810160405280929190818152602001828054801561304757602002820191906000526020600020905b815481526020019060010190808311613033575b50505050508152602001600b820154815250509050600c60009054906101000a900473ffffffffffffffffffffffffffffffffffffffff1673ffffffffffffffffffffffffffffffffffffffff1663237f1a21336040518263ffffffff167c0100000000000000000000000000000000000000000000000000000000028152600401808273ffffffffffffffffffffffffffffffffffffffff1673ffffffffffffffffffffffffffffffffffffffff16815260200191505060206040518083038186803b15801561311757600080fd5b505afa15801561312b573d6000803e3d6000fd5b505050506040513d602081101561314157600080fd5b81019080805190602001909291905050501515613212576040517f08c379a00000000000000000000000000000000000000000000000000000000081526004018080602001828103825260598152602001807f596f75206d757374206861766520616e2045494e206173736f6369617465642081526020017f7769746820796f757220457468657265756d206163636f756e7420746f206d6181526020017f726b20746865206f7264657220617320636f6d706c657465640000000000000081525060600191505060405180910390fd5b6000600c60009054906101000a900473ffffffffffffffffffffffffffffffffffffffff1673ffffffffffffffffffffffffffffffffffffffff166305c62c2f336040518263ffffffff167c0100000000000000000000000000000000000000000000000000000000028152600401808273ffffffffffffffffffffffffffffffffffffffff1673ffffffffffffffffffffffffffffffffffffffff16815260200191505060206040518083038186803b1580156132cf57600080fd5b505afa1580156132e3573d6000803e3d6000fd5b505050506040513d60208110156132f957600080fd5b81019080805190602001909291905050509050808260a001511415156133ad576040517f08c379a000000000000000000000000000000000000000000000000000000000815260040180806020018281038252602a8152602001807f4f6e6c79207468652073656c6c65722063616e206d61726b20746865206f726481526020017f65722061732073656e740000000000000000000000000000000000000000000081525060400191505060405180910390fd5b6040805190810160405280600481526020017f73656e74000000000000000000000000000000000000000000000000000000008152508360c001819052508260036000868152602001908152602001600020600082015181600001556020820151816001015560408201518160020155606082015181600301556080820151816004015560a08201518160050160006101000a81548173ffffffffffffffffffffffffffffffffffffffff021916908373ffffffffffffffffffffffffffffffffffffffff16021790555060c0820151816006019080519060200190613494929190616453565b5060e0820151816007015590505050505050565b600d60009054906101000a900473ffffffffffffffffffffffffffffffffffffffff1681565b60095481565b6005818154811015156134e357fe5b90600052602060002090600c0201600091509050806000015490806001015490806002018054600181600116156101000203166002900480601f01602080910402602001604051908101604052809291908181526020018280546001816001161561010002031660029004801561359b5780601f106135705761010080835404028352916020019161359b565b820191906000526020600020905b81548152906001019060200180831161357e57829003601f168201915b505050505090806003018054600181600116156101000203166002900480601f0160208091040260200160405190810160405280929190818152602001828054600181600116156101000203166002900480156136395780601f1061360e57610100808354040283529160200191613639565b820191906000526020600020905b81548152906001019060200180831161361c57829003601f168201915b5050505050908060040154908060050154908060060160009054906101000a900473ffffffffffffffffffffffffffffffffffffffff1690806007015490806008018054600181600116156101000203166002900480601f01602080910402602001604051908101604052809291908181526020018280546001816001161561010002031660029004801561370f5780601f106136e45761010080835404028352916020019161370f565b820191906000526020600020905b8154815290600101906020018083116136f257829003601f168201915b50505050509080600b015490508a565b6004602052806000526040600020600091509050806000018054600181600116156101000203166002900480601f0160208091040260200160405190810160405280929190818152602001828054600181600116156101000203166002900480156137cb5780601f106137a0576101008083540402835291602001916137cb565b820191906000526020600020905b8154815290600101906020018083116137ae57829003601f168201915b505050505090806001018054600181600116156101000203166002900480601f0160208091040260200160405190810160405280929190818152602001828054600181600116156101000203166002900480156138695780601f1061383e57610100808354040283529160200191613869565b820191906000526020600020905b81548152906001019060200180831161384c57829003601f168201915b5050505050908060020154908060030154908060040154908060050154908060060154905087565b6001602052816000526040600020818154811015156138ac57fe5b9060005260206000209060080201600091509150508060000154908060010154908060020154908060030154908060040154908060050160009054906101000a900473ffffffffffffffffffffffffffffffffffffffff1690806006018054600181600116156101000203166002900480601f01602080910402602001604051908101604052809291908181526020018280546001816001161561010002031660029004801561399d5780601f106139725761010080835404028352916020019161399d565b820191906000526020600020905b81548152906001019060200180831161398057829003601f168201915b5050505050908060070154905088565b60036020528060005260406000206000915090508060000154908060010154908060020154908060030154908060040154908060050160009054906101000a900473ffffffffffffffffffffffffffffffffffffffff1690806006018054600181600116156101000203166002900480601f016020809104026020016040519081016040528092919081815260200182805460018160011615610100020316600290048015613a9d5780601f10613a7257610100808354040283529160200191613a9d565b820191906000526020600020905b815481529060010190602001808311613a8057829003601f168201915b5050505050908060070154905088565b600760009054906101000a900473ffffffffffffffffffffffffffffffffffffffff1681565b600760009054906101000a900473ffffffffffffffffffffffffffffffffffffffff1673ffffffffffffffffffffffffffffffffffffffff163373ffffffffffffffffffffffffffffffffffffffff16141515613bbe576040517f08c379a000000000000000000000000000000000000000000000000000000000815260040180806020018281038252602b8152602001807f4f6e6c7920746865206f776e65722063616e207365742074686520646973707581526020017f746520636f6e747261637400000000000000000000000000000000000000000081525060400191505060405180910390fd5b600073ffffffffffffffffffffffffffffffffffffffff16600d60009054906101000a900473ffffffffffffffffffffffffffffffffffffffff1673ffffffffffffffffffffffffffffffffffffffff16141515613caa576040517f08c379a00000000000000000000000000000000000000000000000000000000081526004018080602001828103825260368152602001807f596f752063616e6e6f74206368616e6765207468652061646472657373206f6681526020017f2074686520636f6e7472616374206f6e6365207365740000000000000000000081525060400191505060405180910390fd5b600073ffffffffffffffffffffffffffffffffffffffff168173ffffffffffffffffffffffffffffffffffffffff1614151515613d75576040517f08c379a00000000000000000000000000000000000000000000000000000000081526004018080602001828103825260238152602001807f546865206469737075746520616464726573732063616e6e6f7420626520656d81526020017f707479000000000000000000000000000000000000000000000000000000000081525060400191505060405180910390fd5b80600d60006101000a81548173ffffffffffffffffffffffffffffffffffffffff021916908373ffffffffffffffffffffffffffffffffffffffff16021790555050565b60008251111515613e32576040517f08c379a00000000000000000000000000000000000000000000000000000000081526004018080602001828103825260148152602001807f546865206e616d65206d7573742062652073657400000000000000000000000081525060200191505060405180910390fd5b60008151111515613ed1576040517f08c379a00000000000000000000000000000000000000000000000000000000081526004018080602001828103825260318152602001807f5468657265206d757374206265206174206c65617374206f6e6520736b75206681526020017f6f72207468697320696e76656e746f727900000000000000000000000000000081525060400191505060405180910390fd5b613ed9616431565b606060405190810160405280600680549050815260200184815260200183815250905060068190806001815401808255809150509060018203906000526020600020906003020160009091929091909150600082015181600001556020820151816001019080519060200190613f50929190616453565b506040820151816002019080519060200190613f6d9291906164d3565b50505050505050565b6002602052806000526040600020600091509050806000015490806001015490806002018054600181600116156101000203166002900480601f01602080910402602001604051908101604052809291908181526020018280546001816001161561010002031660029004801561402e5780601f106140035761010080835404028352916020019161402e565b820191906000526020600020905b81548152906001019060200180831161401157829003601f168201915b505050505090806003018054600181600116156101000203166002900480601f0160208091040260200160405190810160405280929190818152602001828054600181600116156101000203166002900480156140cc5780601f106140a1576101008083540402835291602001916140cc565b820191906000526020600020905b8154815290600101906020018083116140af57829003601f168201915b5050505050908060040154908060050154908060060160009054906101000a900473ffffffffffffffffffffffffffffffffffffffff1690806007015490806008018054600181600116156101000203166002900480601f0160208091040260200160405190810160405280929190818152602001828054600181600116156101000203166002900480156141a25780601f10614177576101008083540402835291602001916141a2565b820191906000526020600020905b81548152906001019060200180831161418557829003601f168201915b50505050509080600b015490508a565b6000885111151561422b576040517f08c379a00000000000000000000000000000000000000000000000000000000081526004018080602001828103825260198152602001807f546865207469746c652063616e6e6f7420626520656d7074790000000000000081525060200191505060405180910390fd5b600086511115156142a4576040517f08c379a000000000000000000000000000000000000000000000000000000000815260040180806020018281038252601f8152602001807f546865206465736372697074696f6e2063616e6e6f7420626520656d7074790081525060200191505060405180910390fd5b60008511151561431c576040517f08c379a00000000000000000000000000000000000000000000000000000000081526004018080602001828103825260198152602001807f5468652070726963652063616e6e6f7420626520656d7074790000000000000081525060200191505060405180910390fd5b60008451111515614395576040517f08c379a00000000000000000000000000000000000000000000000000000000081526004018080602001828103825260198152602001807f54686520696d6167652063616e6e6f7420626520656d7074790000000000000081525060200191505060405180910390fd5b600c60009054906101000a900473ffffffffffffffffffffffffffffffffffffffff1673ffffffffffffffffffffffffffffffffffffffff1663237f1a21336040518263ffffffff167c0100000000000000000000000000000000000000000000000000000000028152600401808273ffffffffffffffffffffffffffffffffffffffff1673ffffffffffffffffffffffffffffffffffffffff16815260200191505060206040518083038186803b15801561445057600080fd5b505afa158015614464573d6000803e3d6000fd5b505050506040513d602081101561447a57600080fd5b8101908080519060200190929190505050151561454b576040517f08c379a000000000000000000000000000000000000000000000000000000000815260040180806020018281038252604b8152602001807f596f75206d757374206861766520616e2045494e206173736f6369617465642081526020017f7769746820796f757220457468657265756d206163636f756e7420746f20616481526020017f6420612070726f6475637400000000000000000000000000000000000000000081525060600191505060405180910390fd5b614553616552565b6101806040519081016040528060085481526020018981526020018a8152602001888152602001428152602001600c60009054906101000a900473ffffffffffffffffffffffffffffffffffffffff1673ffffffffffffffffffffffffffffffffffffffff166305c62c2f336040518263ffffffff167c0100000000000000000000000000000000000000000000000000000000028152600401808273ffffffffffffffffffffffffffffffffffffffff1673ffffffffffffffffffffffffffffffffffffffff16815260200191505060206040518083038186803b15801561463b57600080fd5b505afa15801561464f573d6000803e3d6000fd5b505050506040513d602081101561466557600080fd5b810190808051906020019092919050505081526020013373ffffffffffffffffffffffffffffffffffffffff1681526020018781526020018681526020018581526020018481526020018381525090506005819080600181540180825580915050906001820390600052602060002090600c02016000909192909190915060008201518160000155602082015181600101556040820151816002019080519060200190614713929190616453565b506060820151816003019080519060200190614730929190616453565b506080820151816004015560a0820151816005015560c08201518160060160006101000a81548173ffffffffffffffffffffffffffffffffffffffff021916908373ffffffffffffffffffffffffffffffffffffffff16021790555060e082015181600701556101008201518160080190805190602001906147b3929190616453565b506101208201518160090190805190602001906147d19291906164d3565b5061014082015181600a0190805190602001906147ef9291906164d3565b5061016082015181600b01555050508060026000600854815260200190815260200160002060008201518160000155602082015181600101556040820151816002019080519060200190614844929190616453565b506060820151816003019080519060200190614861929190616453565b506080820151816004015560a0820151816005015560c08201518160060160006101000a81548173ffffffffffffffffffffffffffffffffffffffff021916908373ffffffffffffffffffffffffffffffffffffffff16021790555060e082015181600701556101008201518160080190805190602001906148e4929190616453565b506101208201518160090190805190602001906149029291906164d3565b5061014082015181600a0190805190602001906149209291906164d3565b5061016082015181600b0155905050600860008154809291906001019190505550505050505050505050565b600060026000838152602001908152602001600020600501549050919050565b60007f70656e64696e67000000000000000000000000000000000000000000000000008314156149b3576000808381526020019081526020016000208054905090506149fa565b7f636f6d706c6574656400000000000000000000000000000000000000000000008314156149f957600160008381526020019081526020016000208054905090506149fa565b5b92915050565b60085481565b600681815481101515614a1557fe5b9060005260206000209060030201600091509050806000015490806001018054600181600116156101000203166002900480601f016020809104026020016040519081016040528092919081815260200182805460018160011615610100020316600290048015614ac75780601f10614a9c57610100808354040283529160200191614ac7565b820191906000526020600020905b815481529060010190602001808311614aaa57829003601f168201915b5050505050905082565b614ad9616614565b60036000838152602001908152602001600020610100604051908101604052908160008201548152602001600182015481526020016002820154815260200160038201548152602001600482015481526020016005820160009054906101000a900473ffffffffffffffffffffffffffffffffffffffff1673ffffffffffffffffffffffffffffffffffffffff1673ffffffffffffffffffffffffffffffffffffffff168152602001600682018054600181600116156101000203166002900480601f016020809104026020016040519081016040528092919081815260200182805460018160011615610100020316600290048015614c1a5780601f10614bef57610100808354040283529160200191614c1a565b820191906000526020600020905b815481529060010190602001808311614bfd57829003601f168201915b505050505081526020016007820154815250509050614c37616552565b600260008360400151815260200190815260200160002061018060405190810160405290816000820154815260200160018201548152602001600282018054600181600116156101000203166002900480601f016020809104026020016040519081016040528092919081815260200182805460018160011615610100020316600290048015614d085780601f10614cdd57610100808354040283529160200191614d08565b820191906000526020600020905b815481529060010190602001808311614ceb57829003601f168201915b50505050508152602001600382018054600181600116156101000203166002900480601f016020809104026020016040519081016040528092919081815260200182805460018160011615610100020316600290048015614daa5780601f10614d7f57610100808354040283529160200191614daa565b820191906000526020600020905b815481529060010190602001808311614d8d57829003601f168201915b5050505050815260200160048201548152602001600582015481526020016006820160009054906101000a900473ffffffffffffffffffffffffffffffffffffffff1673ffffffffffffffffffffffffffffffffffffffff1673ffffffffffffffffffffffffffffffffffffffff16815260200160078201548152602001600882018054600181600116156101000203166002900480601f016020809104026020016040519081016040528092919081815260200182805460018160011615610100020316600290048015614ec05780601f10614e9557610100808354040283529160200191614ec0565b820191906000526020600020905b815481529060010190602001808311614ea357829003601f168201915b5050505050815260200160098201805480602002602001604051908101604052809291908181526020018280548015614f1857602002820191906000526020600020905b815481526020019060010190808311614f04575b50505050508152602001600a8201805480602002602001604051908101604052809291908181526020018280548015614f7057602002820191906000526020600020905b815481526020019060010190808311614f5c575b50505050508152602001600b8201548152505090506000600c60009054906101000a900473ffffffffffffffffffffffffffffffffffffffff1673ffffffffffffffffffffffffffffffffffffffff166305c62c2f336040518263ffffffff167c0100000000000000000000000000000000000000000000000000000000028152600401808273ffffffffffffffffffffffffffffffffffffffff1673ffffffffffffffffffffffffffffffffffffffff16815260200191505060206040518083038186803b15801561504257600080fd5b505afa158015615056573d6000803e3d6000fd5b505050506040513d602081101561506c57600080fd5b81019080805190602001909291905050509050808260a00151141515615120576040517f08c379a00000000000000000000000000000000000000000000000000000000081526004018080602001828103825260348152602001807f4f6e6c79207468652073656c6c65722063616e2072656365697665207468652081526020017f7061796d656e74206f6620746865206f7264657200000000000000000000000081525060400191505060405180910390fd5b6151638360c001516040805190810160405280600481526020017f73656e740000000000000000000000000000000000000000000000000000000081525061633e565b15156151fd576040517f08c379a00000000000000000000000000000000000000000000000000000000081526004018080602001828103825260378152602001807f546865206f72646572206d757374206265206d61726b65642061732073656e7481526020017f20746f207265636569766520746865207061796d656e7400000000000000000081525060400191505060405180910390fd5b6213c68083606001514203101515156152a4576040517f08c379a000000000000000000000000000000000000000000000000000000000815260040180806020018281038252602f8152602001807f596f752063616e206f6e6c7920726574726965766520746865207061796d656e81526020017f742061667465722031352064617973000000000000000000000000000000000081525060400191505060405180910390fd5b6040805190810160405280600981526020017f636f6d706c6574656400000000000000000000000000000000000000000000008152508360c0018190525060008090505b6000808460a001518152602001908152602001600020805490508110156155cd57846000808560a0015181526020019081526020016000208281548110151561532d57fe5b90600052602060002090600802016000015414156155c05761534d616614565b6003600060016000808860a00151815260200190815260200160002080549050038152602001908152602001600020610100604051908101604052908160008201548152602001600182015481526020016002820154815260200160038201548152602001600482015481526020016005820160009054906101000a900473ffffffffffffffffffffffffffffffffffffffff1673ffffffffffffffffffffffffffffffffffffffff1673ffffffffffffffffffffffffffffffffffffffff168152602001600682018054600181600116156101000203166002900480601f0160208091040260200160405190810160405280929190818152602001828054600181600116156101000203166002900480156154aa5780601f1061547f576101008083540402835291602001916154aa565b820191906000526020600020905b81548152906001019060200180831161548d57829003601f168201915b505050505081526020016007820154815250509050806000808660a001518152602001908152602001600020838154811015156154e357fe5b9060005260206000209060080201600082015181600001556020820151816001015560408201518160020155606082015181600301556080820151816004015560a08201518160050160006101000a81548173ffffffffffffffffffffffffffffffffffffffff021916908373ffffffffffffffffffffffffffffffffffffffff16021790555060c0820151816006019080519060200190615586929190616453565b5060e082015181600701559050506000808560a0015181526020019081526020016000208054809190600190036155bd9190616670565b50505b80806001019150506152e8565b5060016000846080015181526020019081526020016000208390806001815401808255809150509060018203906000526020600020906008020160009091929091909150600082015181600001556020820151816001015560408201518160020155606082015181600301556080820151816004015560a08201518160050160006101000a81548173ffffffffffffffffffffffffffffffffffffffff021916908373ffffffffffffffffffffffffffffffffffffffff16021790555060c08201518160060190805190602001906156a6929190616453565b5060e082015181600701555050508260036000868152602001908152602001600020600082015181600001556020820151816001015560408201518160020155606082015181600301556080820151816004015560a08201518160050160006101000a81548173ffffffffffffffffffffffffffffffffffffffff021916908373ffffffffffffffffffffffffffffffffffffffff16021790555060c082015181600601908051906020019061575d929190616453565b5060e08201518160070155905050600b60009054906101000a900473ffffffffffffffffffffffffffffffffffffffff1673ffffffffffffffffffffffffffffffffffffffff1663a9059cbb8360c001518460e001516040518363ffffffff167c0100000000000000000000000000000000000000000000000000000000028152600401808373ffffffffffffffffffffffffffffffffffffffff1673ffffffffffffffffffffffffffffffffffffffff16815260200182815260200192505050602060405180830381600087803b15801561583857600080fd5b505af115801561584c573d6000803e3d6000fd5b505050506040513d602081101561586257600080fd5b81019080805190602001909291905050505050505050565b60006020528160005260406000208181548110151561589557fe5b9060005260206000209060080201600091509150508060000154908060010154908060020154908060030154908060040154908060050160009054906101000a900473ffffffffffffffffffffffffffffffffffffffff1690806006018054600181600116156101000203166002900480601f0160208091040260200160405190810160405280929190818152602001828054600181600116156101000203166002900480156159865780601f1061595b57610100808354040283529160200191615986565b820191906000526020600020905b81548152906001019060200180831161596957829003601f168201915b5050505050908060070154905088565b600060026000838152602001908152602001600020600701549050919050565b600c60009054906101000a900473ffffffffffffffffffffffffffffffffffffffff1673ffffffffffffffffffffffffffffffffffffffff1663237f1a21336040518263ffffffff167c0100000000000000000000000000000000000000000000000000000000028152600401808273ffffffffffffffffffffffffffffffffffffffff1673ffffffffffffffffffffffffffffffffffffffff16815260200191505060206040518083038186803b158015615a7157600080fd5b505afa158015615a85573d6000803e3d6000fd5b505050506040513d6020811015615a9b57600080fd5b81019080805190602001909291905050501515615b6c576040517f08c379a000000000000000000000000000000000000000000000000000000000815260040180806020018281038252604e8152602001807f596f75206d757374206861766520616e2045494e206173736f6369617465642081526020017f7769746820796f757220457468657265756d206163636f756e7420746f20646581526020017f6c65746520612070726f6475637400000000000000000000000000000000000081525060600191505060405180910390fd5b6000600c60009054906101000a900473ffffffffffffffffffffffffffffffffffffffff1673ffffffffffffffffffffffffffffffffffffffff166305c62c2f336040518263ffffffff167c0100000000000000000000000000000000000000000000000000000000028152600401808273ffffffffffffffffffffffffffffffffffffffff1673ffffffffffffffffffffffffffffffffffffffff16815260200191505060206040518083038186803b158015615c2957600080fd5b505afa158015615c3d573d6000803e3d6000fd5b505050506040513d6020811015615c5357600080fd5b81019080805190602001909291905050509050806002600084815260200190815260200160002060050154141515615d19576040517f08c379a000000000000000000000000000000000000000000000000000000000815260040180806020018281038252602b8152602001807f596f75206d75737420626520746865206f776e657220746f2064656c6574652081526020017f7468652070726f6475637400000000000000000000000000000000000000000081525060400191505060405180910390fd5b600260008381526020019081526020016000206000808201600090556001820160009055600282016000615d4d91906166a2565b600382016000615d5d91906166a2565b600482016000905560058201600090556006820160006101000a81549073ffffffffffffffffffffffffffffffffffffffff02191690556007820160009055600882016000615dac91906166a2565b600982016000615dbc91906166ea565b600a82016000615dcc91906166ea565b600b820160009055505060008090505b6005805490508110156162d35782600582815481101515615df957fe5b90600052602060002090600c02016000015414156162c657615e19616552565b6005600160058054905003815481101515615e3057fe5b90600052602060002090600c020161018060405190810160405290816000820154815260200160018201548152602001600282018054600181600116156101000203166002900480601f016020809104026020016040519081016040528092919081815260200182805460018160011615610100020316600290048015615ef85780601f10615ecd57610100808354040283529160200191615ef8565b820191906000526020600020905b815481529060010190602001808311615edb57829003601f168201915b50505050508152602001600382018054600181600116156101000203166002900480601f016020809104026020016040519081016040528092919081815260200182805460018160011615610100020316600290048015615f9a5780601f10615f6f57610100808354040283529160200191615f9a565b820191906000526020600020905b815481529060010190602001808311615f7d57829003601f168201915b5050505050815260200160048201548152602001600582015481526020016006820160009054906101000a900473ffffffffffffffffffffffffffffffffffffffff1673ffffffffffffffffffffffffffffffffffffffff1673ffffffffffffffffffffffffffffffffffffffff16815260200160078201548152602001600882018054600181600116156101000203166002900480601f0160208091040260200160405190810160405280929190818152602001828054600181600116156101000203166002900480156160b05780601f10616085576101008083540402835291602001916160b0565b820191906000526020600020905b81548152906001019060200180831161609357829003601f168201915b505050505081526020016009820180548060200260200160405190810160405280929190818152602001828054801561610857602002820191906000526020600020905b8154815260200190600101908083116160f4575b50505050508152602001600a820180548060200260200160405190810160405280929190818152602001828054801561616057602002820191906000526020600020905b81548152602001906001019080831161614c575b50505050508152602001600b8201548152505090508060058381548110151561618557fe5b90600052602060002090600c0201600082015181600001556020820151816001015560408201518160020190805190602001906161c3929190616453565b5060608201518160030190805190602001906161e0929190616453565b506080820151816004015560a0820151816005015560c08201518160060160006101000a81548173ffffffffffffffffffffffffffffffffffffffff021916908373ffffffffffffffffffffffffffffffffffffffff16021790555060e08201518160070155610100820151816008019080519060200190616263929190616453565b506101208201518160090190805190602001906162819291906164d3565b5061014082015181600a01908051906020019061629f9291906164d3565b5061016082015181600b015590505060058054809190600190036162c3919061670b565b50505b8080600101915050615ddc565b505050565b600b60009054906101000a900473ffffffffffffffffffffffffffffffffffffffff1681565b60006002600083815260200190815260200160002060060160009054906101000a900473ffffffffffffffffffffffffffffffffffffffff169050919050565b6000816040516020018082805190602001908083835b6020831015156163795780518252602082019150602081019050602083039250616354565b6001836020036101000a03801982511681845116808217855250505050505090500191505060405160208183030381529060405280519060200120836040516020018082805190602001908083835b6020831015156163ed57805182526020820191506020810190506020830392506163c8565b6001836020036101000a0380198251168184511680821785525050505050509050019150506040516020818303038152906040528051906020012014905092915050565b6060604051908101604052806000815260200160608152602001606081525090565b828054600181600116156101000203166002900490600052602060002090601f016020900481019282601f1061649457805160ff19168380011785556164c2565b828001600101855582156164c2579182015b828111156164c15782518255916020019190600101906164a6565b5b5090506164cf919061673d565b5090565b82805482825590600052602060002090810192821561650f579160200282015b8281111561650e5782518255916020019190600101906164f3565b5b50905061651c9190616762565b5090565b81548183558181111561654d5760030281600302836000526020600020918201910161654c9190616787565b5b505050565b61018060405190810160405280600081526020016000801916815260200160608152602001606081526020016000815260200160008152602001600073ffffffffffffffffffffffffffffffffffffffff16815260200160008152602001606081526020016060815260200160608152602001600081525090565b60e060405190810160405280606081526020016060815260200160008019168152602001600080191681526020016000815260200160008019168152602001600081525090565b610100604051908101604052806000815260200160008152602001600081526020016000815260200160008152602001600073ffffffffffffffffffffffffffffffffffffffff16815260200160608152602001600081525090565b81548183558181111561669d5760080281600802836000526020600020918201910161669c91906167ce565b5b505050565b50805460018160011615610100020316600290046000825580601f106166c857506166e7565b601f0160209004906000526020600020908101906166e6919061673d565b5b50565b50805460008255906000526020600020908101906167089190616762565b50565b81548183558181111561673857600c0281600c0283600052602060002091820191016167379190616854565b5b505050565b61675f91905b8082111561675b576000816000905550600101616743565b5090565b90565b61678491905b80821115616780576000816000905550600101616768565b5090565b90565b6167cb91905b808211156167c7576000808201600090556001820160006167ae91906166a2565b6002820160006167be91906166ea565b5060030161678d565b5090565b90565b61685191905b8082111561684d5760008082016000905560018201600090556002820160009055600382016000905560048201600090556005820160006101000a81549073ffffffffffffffffffffffffffffffffffffffff021916905560068201600061683c91906166a2565b6007820160009055506008016167d4565b5090565b90565b61691791905b8082111561691357600080820160009055600182016000905560028201600061688391906166a2565b60038201600061689391906166a2565b600482016000905560058201600090556006820160006101000a81549073ffffffffffffffffffffffffffffffffffffffff021916905560078201600090556008820160006168e291906166a2565b6009820160006168f291906166ea565b600a8201600061690291906166ea565b600b82016000905550600c0161685a565b5090565b9056fea165627a7a72305820b22cbdbe318e09f5a1e54829b4b49f9c6e3f6d82729a98878387999113c55dea0029",
  "source": "pragma solidity ^0.5.0;\r\n\r\ninterface HydroTokenTestnetInterface {\r\n    function transfer(address _to, uint256 _amount) external returns (bool success);\r\n    function transferFrom(address _from, address _to, uint256 _amount) external returns (bool success);\r\n    function doTransfer(address _from, address _to, uint _amount) external;\r\n    function balanceOf(address _owner) external view returns (uint256 balance);\r\n    function approve(address _spender, uint256 _amount) external returns (bool success);\r\n    function approveAndCall(address _spender, uint256 _value, bytes calldata _extraData) external returns (bool success);\r\n    function burn(uint256 _value) external;\r\n    function allowance(address _owner, address _spender) external view returns (uint256 remaining);\r\n    function totalSupply() external view returns (uint);\r\n    function setRaindropAddress(address _raindrop) external;\r\n    function authenticate(uint _value, uint _challenge, uint _partnerId) external;\r\n    function setBalances(address[] calldata _addressList, uint[] calldata _amounts) external;\r\n    function getMoreTokens() external;\r\n}\r\n\r\ninterface IdentityRegistryInterface {\r\n    function isSigned(address _address, bytes32 messageHash, uint8 v, bytes32 r, bytes32 s)\r\n        external pure returns (bool);\r\n    function identityExists(uint ein) external view returns (bool);\r\n    function hasIdentity(address _address) external view returns (bool);\r\n    function getEIN(address _address) external view returns (uint ein);\r\n    function isAssociatedAddressFor(uint ein, address _address) external view returns (bool);\r\n    function isProviderFor(uint ein, address provider) external view returns (bool);\r\n    function isResolverFor(uint ein, address resolver) external view returns (bool);\r\n    function getIdentity(uint ein) external view returns (\r\n        address recoveryAddress,\r\n        address[] memory associatedAddresses, address[] memory providers, address[] memory resolvers\r\n    );\r\n    function createIdentity(address recoveryAddress, address[] calldata providers, address[] calldata resolvers)\r\n        external returns (uint ein);\r\n    function createIdentityDelegated(\r\n        address recoveryAddress, address associatedAddress, address[] calldata providers, address[] calldata resolvers,\r\n        uint8 v, bytes32 r, bytes32 s, uint timestamp\r\n    ) external returns (uint ein);\r\n    function addAssociatedAddress(\r\n        address approvingAddress, address addressToAdd, uint8 v, bytes32 r, bytes32 s, uint timestamp\r\n    ) external;\r\n    function addAssociatedAddressDelegated(\r\n        address approvingAddress, address addressToAdd,\r\n        uint8[2] calldata v, bytes32[2] calldata r, bytes32[2] calldata s, uint[2] calldata timestamp\r\n    ) external;\r\n    function removeAssociatedAddress() external;\r\n    function removeAssociatedAddressDelegated(address addressToRemove, uint8 v, bytes32 r, bytes32 s, uint timestamp)\r\n        external;\r\n    function addProviders(address[] calldata providers) external;\r\n    function addProvidersFor(uint ein, address[] calldata providers) external;\r\n    function removeProviders(address[] calldata providers) external;\r\n    function removeProvidersFor(uint ein, address[] calldata providers) external;\r\n    function addResolvers(address[] calldata resolvers) external;\r\n    function addResolversFor(uint ein, address[] calldata resolvers) external;\r\n    function removeResolvers(address[] calldata resolvers) external;\r\n    function removeResolversFor(uint ein, address[] calldata resolvers) external;\r\n    function triggerRecoveryAddressChange(address newRecoveryAddress) external;\r\n    function triggerRecoveryAddressChangeFor(uint ein, address newRecoveryAddress) external;\r\n    function triggerRecovery(uint ein, address newAssociatedAddress, uint8 v, bytes32 r, bytes32 s, uint timestamp)\r\n        external;\r\n    function triggerDestruction(\r\n        uint ein, address[] calldata firstChunk, address[] calldata lastChunk, bool resetResolvers\r\n    ) external;\r\n}\r\n\r\ncontract Dispute {\r\n    event DisputeGenerated(uint256 indexed id, uint256 indexed orderId, string reason);\r\n\r\n    struct DisputeItem {\r\n        uint256 id;\r\n        uint256 orderId;\r\n        uint256 createdAt;\r\n        address refundReceiver;\r\n        string reason;\r\n        string counterReason;\r\n        bytes32 state; // Either pending, countered or resolved. Where pending indicates \"waiting for the seller to respond\", countered means \"the seller has responded\" and resolved is \"the dispute has been resolved\"\r\n    }\r\n\r\n    // DisputeItem id => dispute struct\r\n    mapping(uint256 => DisputeItem) public disputeById;\r\n    DisputeItem[] public disputes;\r\n    Store public store;\r\n    address[] public operators;\r\n    address public owner;\r\n\r\n    modifier onlyOperator {\r\n        require(operatorExists(msg.sender), 'Only a valid operator can run this function');\r\n        _;\r\n    }\r\n\r\n    /// @notice To setup the store address\r\n    /// @param _store The address of the store contract that will be used in this contract\r\n    constructor(address _store) public {\r\n        store = Store(_store);\r\n        owner = msg.sender;\r\n        operators.push(msg.sender);\r\n    }\r\n\r\n    /// @notice To dispute an order for the specified reason as a buyer\r\n    /// @param _id The order id to dispute\r\n    /// @param _reason The string indicating why the buyer is disputing this order\r\n    function disputeOrder(uint256 _id, string memory _reason) public {\r\n        require(bytes(_reason).length > 0, 'The reason for disputing the order cannot be empty');\r\n        (uint256 id, uint256 addressId, uint256 productId, uint256 date, uint256 buyer, address addressBuyer, string memory state, uint256 barcode) = store.orderById(_id);\r\n        require(now - date < 15 days, 'You can only dispute an order that has not been closed yet');\r\n        uint256 ein = IdentityRegistryInterface(store.identityRegistry()).getEIN(msg.sender);\r\n        require(buyer == ein, 'Only the buyer can dispute his order');\r\n        uint256 disputeId = disputes.length;\r\n        DisputeItem memory d = DisputeItem(disputeId, _id, now, msg.sender, _reason, '', 'pending');\r\n        disputes.push(d);\r\n        disputeById[disputeId] = d;\r\n        emit DisputeGenerated(disputeId, _id, _reason);\r\n    }\r\n\r\n    /// @notice To respond to a dispute as a seller\r\n    /// @param _disputeId The id of the dispute to respond to\r\n    /// @param _counterReason The reason for countering the argument of the buyer\r\n    function counterDispute(uint256 _disputeId, string memory _counterReason) public {\r\n        require(bytes(_counterReason).length > 0, 'The counter reason must be set');\r\n        DisputeItem memory d = disputeById[_disputeId];\r\n        (uint256 id, uint256 addressId, uint256 productId, uint256 date, uint256 buyer, address addressBuyer, string memory state, uint256 barcode) = store.orderById(d.orderId);\r\n\r\n        uint256 ein = IdentityRegistryInterface(store.identityRegistry()).getEIN(msg.sender);\r\n        require(store.getProductEinOwner(productId) == ein, 'Only the seller can counter dispute this order');\r\n        d.counterReason = _counterReason;\r\n        d.state = 'countered';\r\n        disputeById[_disputeId] = d;\r\n        for(uint256 i = 0; i < disputes.length; i++) {\r\n            if(disputes[i].id == _disputeId) {\r\n                disputes[i] = d;\r\n                break;\r\n            }\r\n        }\r\n    }\r\n\r\n    /// @notice To resolve a dispute and pay the buyer from the seller's approved balance\r\n    /// @param _disputeId The id of the dispute to resolve\r\n    /// @param _isBuyerWinner If the winner is the buyer or not to perform the transfer\r\n    function resolveDispute(uint256 _disputeId, bool _isBuyerWinner) public onlyOperator {\r\n        DisputeItem memory d = disputeById[_disputeId];\r\n        require(bytes(d.counterReason).length > 0, 'The counter reason must be set');\r\n        (uint256 id, uint256 addressId, uint256 productId, uint256 date, uint256 buyer, address addressBuyer, string memory state, uint256 barcode) = store.orderById(d.orderId);\r\n\r\n        if(_isBuyerWinner) {\r\n            // Pay the product price to the buyer as a refund\r\n            HydroTokenTestnetInterface(store.token()).transferFrom(address(store), addressBuyer, store.getProductPrice(productId));\r\n        }\r\n    }\r\n\r\n    /// @notice To add or delete operators by the owner\r\n    /// @param _user A valid address to add or remove from the list of operators\r\n    /// @param _isRemoved Whether you want to add or remove this operator\r\n    function setOperator(address _user, bool _isRemoved) public {\r\n        require(msg.sender == owner, 'Only the owner can add operators');\r\n        if(_isRemoved) {\r\n            for(uint256 i = 0; i < operators.length; i++) {\r\n                if(operators[i] == _user) {\r\n                    address lastElement = operators[operators.length - 1];\r\n                    operators[i] = lastElement;\r\n                    operators.length--;\r\n                }\r\n            }\r\n        } else {\r\n            operators.push(_user);\r\n        }\r\n    }\r\n\r\n    /// @notice To check if an operator exists\r\n    /// @param _operator The address of the operator to check\r\n    /// @return bool Whether he's a valid operator or not\r\n    function operatorExists(address _operator) internal view returns(bool) {\r\n        for(uint256 i = 0; i < operators.length; i++) {\r\n            if(_operator == operators[i]) {\r\n                return true;\r\n            }\r\n        }\r\n        return false;\r\n    }\r\n}\r\n\r\n\r\ncontract Store {\r\n    struct Product {\r\n        uint256 id;\r\n        bytes32 sku;\r\n        string title;\r\n        string description;\r\n        uint256 date;\r\n        uint256 einOwner; // EIN owner\r\n        address owner;\r\n        uint256 price;\r\n        string image;\r\n        bytes32[] attributes;\r\n        bytes32[] attributeValues;\r\n        uint256 quantity;\r\n    }\r\n    struct Order {\r\n        uint256 id; // Unique order ID\r\n        uint256 addressId;\r\n        uint256 productId;\r\n        uint256 date;\r\n        uint256 buyer; // EIN buyer\r\n        address addressBuyer;\r\n        string state; // Either 'pending', 'sent', 'completed' completed means that the seller has sent the product and he's extracted the payment\r\n        uint256 barcode;\r\n    }\r\n    struct Address {\r\n        string nameSurname;\r\n        string direction;\r\n        bytes32 city;\r\n        bytes32 stateRegion;\r\n        uint256 postalCode;\r\n        bytes32 country;\r\n        uint256 phone;\r\n    }\r\n    struct Inventory {\r\n        uint256 id;\r\n        string name;\r\n        bytes32[] skus;\r\n    }\r\n\r\n    // Seller ein => orders\r\n    mapping(uint256 => Order[]) public pendingOrders; // The products waiting to be fulfilled\r\n    // Buyer ein => orders\r\n    mapping(uint256 => Order[]) public completedOrders;\r\n    // Product id => product\r\n    mapping(uint256 => Product) public productById;\r\n    // Order id => order struct\r\n    mapping(uint256 => Order) public orderById;\r\n    // Id => address\r\n    mapping(uint256 => Address) public addressById;\r\n    Product[] public products;\r\n    Inventory[] public inventories;\r\n    address public owner;\r\n    uint256 public lastId;\r\n    uint256 public lastOrderId;\r\n    uint256 public lastAddressId;\r\n    address public token;\r\n    address public identityRegistry;\r\n    address public disputeContract;\r\n\r\n    /// @notice To setup the address of the ERC-721 token to use for this contract\r\n    /// @param _token The token address\r\n    constructor(address _token, address _identityRegistry) public {\r\n        owner = msg.sender;\r\n        token = _token;\r\n        identityRegistry = _identityRegistry;\r\n    }\r\n\r\n    /// @notice To set the address of the dispute contract for making disputes\r\n    /// @param _dispute The dispute address\r\n    function setDisputeAddress(address _dispute) public {\r\n        require(msg.sender == owner, 'Only the owner can set the dispute contract');\r\n        require(disputeContract == address(0), 'You cannot change the address of the contract once set');\r\n        require(_dispute != address(0), 'The dispute address cannot be empty');\r\n        disputeContract = _dispute;\r\n    }\r\n\r\n    /// @notice To publish a product as a seller\r\n    /// @param _title The title of the product\r\n    /// @param _description The description of the product\r\n    /// @param _price The price of the product in ETH\r\n    /// @param _image The image URL of the product\r\n    function publishProduct(string memory _title, bytes32 _sku, string memory _description, uint256 _price, string memory _image, bytes32[] memory _attributes, bytes32[] memory _attributeValues, uint256 _quantity) public {\r\n        require(bytes(_title).length > 0, 'The title cannot be empty');\r\n        require(bytes(_description).length > 0, 'The description cannot be empty');\r\n        require(_price > 0, 'The price cannot be empty');\r\n        require(bytes(_image).length > 0, 'The image cannot be empty');\r\n        require(IdentityRegistryInterface(identityRegistry).hasIdentity(msg.sender), 'You must have an EIN associated with your Ethereum account to add a product');\r\n\r\n        Product memory p = Product(lastId, _sku, _title, _description, now, IdentityRegistryInterface(identityRegistry).getEIN(msg.sender), msg.sender, _price, _image, _attributes, _attributeValues, _quantity);\r\n        products.push(p);\r\n        productById[lastId] = p;\r\n        lastId++;\r\n    }\r\n\r\n    /// @notice To create an inventory in which to store product skus\r\n    /// @param _name The name of the inventory\r\n    /// @param _skus The array of skus to add to the inventory\r\n    function createInventory(string memory _name, bytes32[] memory _skus) public {\r\n        require(bytes(_name).length > 0, 'The name must be set');\r\n        require(_skus.length > 0, 'There must be at least one sku for this inventory');\r\n        Inventory memory inv = Inventory(inventories.length, _name, _skus);\r\n        inventories.push(inv);\r\n    }\r\n\r\n    /// @notice To delete an inventory by id\r\n    /// @param _id The id of the inventory to delete\r\n    function deleteInventory(uint256 _id) public {\r\n        // Delete the inventory from the array of inventories\r\n        for(uint256 i = 0; i < inventories.length; i++) {\r\n            if(inventories[i].id == _id) {\r\n                Inventory memory lastElement = inventories[inventories.length - 1];\r\n                inventories[i] = lastElement;\r\n                inventories.length--;\r\n            }\r\n        }\r\n    }\r\n\r\n    /// @notice To buy a new product, note that the seller must authorize this contract to manage the token\r\n    /// @param _id The id of the product to buy\r\n    /// @param _nameSurname The name and surname of the buyer\r\n    /// @param _lineOneDirection The first line for the user address\r\n    /// @param _lineTwoDirection The second, optional user address line\r\n    /// @param _city Buyer's city\r\n    /// @param _stateRegion The state or region where the buyer lives\r\n    /// @param _postalCode The postal code of his location\r\n    /// @param _country Buyer's country\r\n    /// @param _phone The optional phone number for the shipping company\r\n    /// The payment in HYDRO is made automatically by making a transferFrom after approving the right amount of tokens using the product price\r\n    function buyProduct(uint256 _id, string memory _nameSurname, string memory _direction, bytes32 _city, bytes32 _stateRegion, uint256 _postalCode, bytes32 _country, uint256 _phone, uint256 _barcode) public {\r\n        // The line 2 address and phone are optional, the rest are mandatory\r\n        require(bytes(_nameSurname).length > 0, 'The name and surname must be set');\r\n        require(bytes(_direction).length > 0, 'The line one direction must be set');\r\n        require(_city.length > 0, 'The city must be set');\r\n        require(_stateRegion.length > 0, 'The state or region must be set');\r\n        require(_postalCode > 0, 'The postal code must be set');\r\n        require(_country > 0, 'The country must be set');\r\n        require(IdentityRegistryInterface(identityRegistry).hasIdentity(msg.sender), 'You must have an EIN associated with your Ethereum account to purchase the product');\r\n\r\n        uint256 ein = IdentityRegistryInterface(identityRegistry).getEIN(msg.sender);\r\n        Product memory p = productById[_id];\r\n        require(bytes(p.title).length > 0, 'The product must exist to be purchased');\r\n        require(HydroTokenTestnetInterface(token).allowance(msg.sender, address(this)) >= p.price, 'You must have enough HYDRO tokens approved to purchase this product');\r\n        Address memory newAddress = Address(_nameSurname, _direction, _city, _stateRegion, _postalCode, _country, _phone);\r\n        Order memory newOrder = Order(lastOrderId, lastAddressId, _id, now, ein, msg.sender, 'pending', _barcode);\r\n\r\n        // Update the quantity of remaining products\r\n        if(p.quantity > 0) {\r\n            p.quantity--;\r\n            productById[_id] = p;\r\n            // Update the products array\r\n            for(uint256 i = 0; i < products.length; i++) {\r\n                if(products[i].id == p.id) {\r\n                    products[i] = p;\r\n                    break;\r\n                }\r\n            }\r\n        }\r\n\r\n        pendingOrders[ein].push(newOrder);\r\n        orderById[_id] = newOrder;\r\n        addressById[lastAddressId] = newAddress;\r\n        // TODO remember that the payment has been done to the store contract and not the seller yet\r\n        HydroTokenTestnetInterface(token).transferFrom(msg.sender, address(this), p.price); // Pay the product price to this contract\r\n        HydroTokenTestnetInterface(token).approve(disputeContract, p.price);\r\n        lastOrderId++;\r\n        lastAddressId++;\r\n    }\r\n\r\n    /// @notice To receive payments for sellers that sold a product, each product must be checked independently. You can only do it after the product has been marked as sent and the\r\n    /// @param _orderId The ID of the order that you want to mark as completed and receie the payment\r\n    function receivePayment(uint256 _orderId) public {\r\n        Order memory order = orderById[_orderId];\r\n        Product memory p = productById[order.productId];\r\n        uint256 ein = IdentityRegistryInterface(identityRegistry).getEIN(msg.sender);\r\n        require(p.einOwner == ein, 'Only the seller can receive the payment of the order');\r\n        require(compareStrings(order.state, 'sent'), 'The order must be marked as sent to receive the payment');\r\n        require(now - order.date >= 15 days, 'You can only retrieve the payment after 15 days');\r\n\r\n        order.state = 'completed';\r\n        // Delete the seller order from the array of pending orders\r\n        for(uint256 i = 0; i < pendingOrders[p.einOwner].length; i++) {\r\n            if(pendingOrders[p.einOwner][i].id == _orderId) {\r\n                Order memory lastElement = orderById[pendingOrders[p.einOwner].length - 1];\r\n                pendingOrders[p.einOwner][i] = lastElement;\r\n                pendingOrders[p.einOwner].length--;\r\n            }\r\n        }\r\n        completedOrders[order.buyer].push(order);\r\n        orderById[_orderId] = order;\r\n        HydroTokenTestnetInterface(token).transfer(p.owner, p.price);\r\n    }\r\n\r\n    /// @notice To mark an order as sent\r\n    /// @param _id The id of the order to mark as sent and completed\r\n    function markOrderSent(uint256 _id) public {\r\n        Order memory order = orderById[_id];\r\n        Product memory product = productById[order.productId];\r\n        require(IdentityRegistryInterface(identityRegistry).hasIdentity(msg.sender), 'You must have an EIN associated with your Ethereum account to mark the order as completed');\r\n        uint256 ein = IdentityRegistryInterface(identityRegistry).getEIN(msg.sender);\r\n        require(product.einOwner == ein, 'Only the seller can mark the order as sent');\r\n        order.state = 'sent';\r\n        orderById[_id] = order;\r\n    }\r\n\r\n    /// @notice To delete a product\r\n    /// @param _id The id of the product to delete\r\n    function deleteProduct(uint256 _id) public {\r\n        require(IdentityRegistryInterface(identityRegistry).hasIdentity(msg.sender), 'You must have an EIN associated with your Ethereum account to delete a product');\r\n        uint256 ein = IdentityRegistryInterface(identityRegistry).getEIN(msg.sender);\r\n        require(productById[_id].einOwner == ein, 'You must be the owner to delete the product');\r\n        delete productById[_id];\r\n        // Delete the product from the array of products since we only want to purchase one product per order\r\n        for(uint256 i = 0; i < products.length; i++) {\r\n            if(products[i].id == _id) {\r\n                Product memory lastElement = products[products.length - 1];\r\n                products[i] = lastElement;\r\n                products.length--;\r\n            }\r\n        }\r\n    }\r\n\r\n    /// @notice Returns the product length\r\n    /// @return uint256 The number of products\r\n    function getProductsLength() public view returns(uint256) {\r\n        return products.length;\r\n    }\r\n\r\n    /// @notice To get the pending seller or buyer orders\r\n    /// @param _type If you want to get the pending seller, buyer or completed orders\r\n    /// @param _einOwner The EIN of the owner of those orders\r\n    /// @return uint256 The number of orders to get\r\n    function getOrdersLength(bytes32 _type, uint256 _einOwner) public view returns(uint256) {\r\n        if(_type == 'pending') return pendingOrders[_einOwner].length;\r\n        else if(_type == 'completed') return completedOrders[_einOwner].length;\r\n    }\r\n\r\n    /// @notice To get the ein owner of a product for the dispute contract\r\n    /// @param _id The id of the product\r\n    /// @return Returns the ein owner\r\n    function getProductEinOwner(uint256 _id) public view returns(uint256) {\r\n        return productById[_id].einOwner;\r\n    }\r\n\r\n    /// @notice To get the address owner of a product for the dispute contract\r\n    /// @param _id The id of the product\r\n    /// @return Returns the address\r\n    function getProductOwner(uint256 _id) public view returns(address) {\r\n        return productById[_id].owner;\r\n    }\r\n\r\n    /// @notice To get the price of a product for the dispute contract\r\n    /// @param _id The id of the product\r\n    /// @return Returns the price\r\n    function getProductPrice(uint256 _id) public view returns(uint256) {\r\n        return productById[_id].price;\r\n    }\r\n\r\n    /// @notice To compare strings\r\n    /// @param _a The first string\r\n    /// @param _b The second string\r\n    /// @return bool Whether it's the same or not\r\n    function compareStrings(string memory _a, string memory _b) internal pure returns(bool) {\r\n        return (keccak256(abi.encodePacked(_a)) == keccak256(abi.encodePacked(_b)));\r\n    }\r\n}\r\n",
  "sourcePath": "C:/Users/merun/Desktop/ethereum-store/contracts/Store.sol",
  "compiler": {
    "name": "solc",
    "version": "0.5.0+commit.1d4f565a.Emscripten.clang"
  },
  "schemaVersion": "3.0.5",
  "updatedAt": "2019-05-09T18:48:03.177Z",
  "devdoc": {
    "methods": {
      "constructor": {
        "params": {
          "_token": "The token address"
        }
      },
      "createInventory(string,bytes32[])": {
        "params": {
          "_skus": "The array of skus to add to the inventory"
        }
      },
      "deleteInventory(uint256)": {
        "params": {
          "_id": "The id of the inventory to delete"
        }
      },
      "deleteProduct(uint256)": {
        "params": {
          "_id": "The id of the product to delete"
        }
      },
      "getOrdersLength(bytes32,uint256)": {
        "return": "uint256 The number of orders to get"
      },
      "getProductEinOwner(uint256)": {
        "return": "Returns the ein owner"
      },
      "getProductOwner(uint256)": {
        "return": "Returns the address"
      },
      "getProductPrice(uint256)": {
        "return": "Returns the price"
      },
      "getProductsLength()": {
        "return": "uint256 The number of products"
      },
      "markOrderSent(uint256)": {
        "params": {
          "_id": "The id of the order to mark as sent and completed"
        }
      },
      "publishProduct(string,bytes32,string,uint256,string,bytes32[],bytes32[],uint256)": {
        "params": {
          "_image": "The image URL of the product"
        }
      },
      "receivePayment(uint256)": {
        "params": {
          "_orderId": "The ID of the order that you want to mark as completed and receie the payment"
        }
      },
      "setDisputeAddress(address)": {
        "params": {
          "_dispute": "The dispute address"
        }
      }
    }
  },
  "userdoc": {
    "methods": {
      "buyProduct(uint256,string,string,bytes32,bytes32,uint256,bytes32,uint256,uint256)": {
        "notice": "The payment in HYDRO is made automatically by making a transferFrom after approving the right amount of tokens using the product price"
      }
    }
  }
}