{
  "contractName": "Store",
  "abi": [
    {
      "constant": true,
      "inputs": [],
      "name": "lastAddressId",
      "outputs": [
        {
          "name": "",
          "type": "uint256"
        }
      ],
      "payable": false,
      "stateMutability": "view",
      "type": "function"
    },
    {
      "constant": true,
      "inputs": [],
      "name": "identityRegistry",
      "outputs": [
        {
          "name": "",
          "type": "address"
        }
      ],
      "payable": false,
      "stateMutability": "view",
      "type": "function"
    },
    {
      "constant": true,
      "inputs": [],
      "name": "lastOrderId",
      "outputs": [
        {
          "name": "",
          "type": "uint256"
        }
      ],
      "payable": false,
      "stateMutability": "view",
      "type": "function"
    },
    {
      "constant": true,
      "inputs": [
        {
          "name": "",
          "type": "uint256"
        }
      ],
      "name": "products",
      "outputs": [
        {
          "name": "id",
          "type": "uint256"
        },
        {
          "name": "sku",
          "type": "bytes32"
        },
        {
          "name": "title",
          "type": "string"
        },
        {
          "name": "description",
          "type": "string"
        },
        {
          "name": "date",
          "type": "uint256"
        },
        {
          "name": "einOwner",
          "type": "uint256"
        },
        {
          "name": "owner",
          "type": "address"
        },
        {
          "name": "price",
          "type": "uint256"
        },
        {
          "name": "image",
          "type": "string"
        },
        {
          "name": "quantity",
          "type": "uint256"
        }
      ],
      "payable": false,
      "stateMutability": "view",
      "type": "function"
    },
    {
      "constant": true,
      "inputs": [
        {
          "name": "",
          "type": "uint256"
        }
      ],
      "name": "addressById",
      "outputs": [
        {
          "name": "nameSurname",
          "type": "string"
        },
        {
          "name": "direction",
          "type": "string"
        },
        {
          "name": "city",
          "type": "bytes32"
        },
        {
          "name": "stateRegion",
          "type": "bytes32"
        },
        {
          "name": "postalCode",
          "type": "uint256"
        },
        {
          "name": "country",
          "type": "bytes32"
        },
        {
          "name": "phone",
          "type": "uint256"
        }
      ],
      "payable": false,
      "stateMutability": "view",
      "type": "function"
    },
    {
      "constant": true,
      "inputs": [
        {
          "name": "",
          "type": "uint256"
        },
        {
          "name": "",
          "type": "uint256"
        }
      ],
      "name": "completedOrders",
      "outputs": [
        {
          "name": "id",
          "type": "uint256"
        },
        {
          "name": "addressId",
          "type": "uint256"
        },
        {
          "name": "productId",
          "type": "uint256"
        },
        {
          "name": "date",
          "type": "uint256"
        },
        {
          "name": "buyer",
          "type": "uint256"
        },
        {
          "name": "addressBuyer",
          "type": "address"
        },
        {
          "name": "state",
          "type": "string"
        },
        {
          "name": "barcode",
          "type": "uint256"
        }
      ],
      "payable": false,
      "stateMutability": "view",
      "type": "function"
    },
    {
      "constant": true,
      "inputs": [
        {
          "name": "",
          "type": "uint256"
        }
      ],
      "name": "orderById",
      "outputs": [
        {
          "name": "id",
          "type": "uint256"
        },
        {
          "name": "addressId",
          "type": "uint256"
        },
        {
          "name": "productId",
          "type": "uint256"
        },
        {
          "name": "date",
          "type": "uint256"
        },
        {
          "name": "buyer",
          "type": "uint256"
        },
        {
          "name": "addressBuyer",
          "type": "address"
        },
        {
          "name": "state",
          "type": "string"
        },
        {
          "name": "barcode",
          "type": "uint256"
        }
      ],
      "payable": false,
      "stateMutability": "view",
      "type": "function"
    },
    {
      "constant": true,
      "inputs": [],
      "name": "owner",
      "outputs": [
        {
          "name": "",
          "type": "address"
        }
      ],
      "payable": false,
      "stateMutability": "view",
      "type": "function"
    },
    {
      "constant": true,
      "inputs": [
        {
          "name": "",
          "type": "uint256"
        }
      ],
      "name": "productById",
      "outputs": [
        {
          "name": "id",
          "type": "uint256"
        },
        {
          "name": "sku",
          "type": "bytes32"
        },
        {
          "name": "title",
          "type": "string"
        },
        {
          "name": "description",
          "type": "string"
        },
        {
          "name": "date",
          "type": "uint256"
        },
        {
          "name": "einOwner",
          "type": "uint256"
        },
        {
          "name": "owner",
          "type": "address"
        },
        {
          "name": "price",
          "type": "uint256"
        },
        {
          "name": "image",
          "type": "string"
        },
        {
          "name": "quantity",
          "type": "uint256"
        }
      ],
      "payable": false,
      "stateMutability": "view",
      "type": "function"
    },
    {
      "constant": true,
      "inputs": [],
      "name": "lastId",
      "outputs": [
        {
          "name": "",
          "type": "uint256"
        }
      ],
      "payable": false,
      "stateMutability": "view",
      "type": "function"
    },
    {
      "constant": true,
      "inputs": [
        {
          "name": "",
          "type": "uint256"
        }
      ],
      "name": "inventories",
      "outputs": [
        {
          "name": "id",
          "type": "uint256"
        },
        {
          "name": "name",
          "type": "string"
        }
      ],
      "payable": false,
      "stateMutability": "view",
      "type": "function"
    },
    {
      "constant": true,
      "inputs": [
        {
          "name": "",
          "type": "uint256"
        },
        {
          "name": "",
          "type": "uint256"
        }
      ],
      "name": "pendingOrders",
      "outputs": [
        {
          "name": "id",
          "type": "uint256"
        },
        {
          "name": "addressId",
          "type": "uint256"
        },
        {
          "name": "productId",
          "type": "uint256"
        },
        {
          "name": "date",
          "type": "uint256"
        },
        {
          "name": "buyer",
          "type": "uint256"
        },
        {
          "name": "addressBuyer",
          "type": "address"
        },
        {
          "name": "state",
          "type": "string"
        },
        {
          "name": "barcode",
          "type": "uint256"
        }
      ],
      "payable": false,
      "stateMutability": "view",
      "type": "function"
    },
    {
      "constant": true,
      "inputs": [],
      "name": "token",
      "outputs": [
        {
          "name": "",
          "type": "address"
        }
      ],
      "payable": false,
      "stateMutability": "view",
      "type": "function"
    },
    {
      "inputs": [
        {
          "name": "_token",
          "type": "address"
        },
        {
          "name": "_identityRegistry",
          "type": "address"
        }
      ],
      "payable": false,
      "stateMutability": "nonpayable",
      "type": "constructor"
    },
    {
      "constant": false,
      "inputs": [
        {
          "name": "_title",
          "type": "string"
        },
        {
          "name": "_sku",
          "type": "bytes32"
        },
        {
          "name": "_description",
          "type": "string"
        },
        {
          "name": "_price",
          "type": "uint256"
        },
        {
          "name": "_image",
          "type": "string"
        },
        {
          "name": "_attributes",
          "type": "bytes32[]"
        },
        {
          "name": "_attributeValues",
          "type": "bytes32[]"
        },
        {
          "name": "_quantity",
          "type": "uint256"
        }
      ],
      "name": "publishProduct",
      "outputs": [],
      "payable": false,
      "stateMutability": "nonpayable",
      "type": "function"
    },
    {
      "constant": false,
      "inputs": [
        {
          "name": "_name",
          "type": "string"
        },
        {
          "name": "_skus",
          "type": "bytes32[]"
        }
      ],
      "name": "createInventory",
      "outputs": [],
      "payable": false,
      "stateMutability": "nonpayable",
      "type": "function"
    },
    {
      "constant": false,
      "inputs": [
        {
          "name": "_id",
          "type": "uint256"
        }
      ],
      "name": "deleteInventory",
      "outputs": [],
      "payable": false,
      "stateMutability": "nonpayable",
      "type": "function"
    },
    {
      "constant": false,
      "inputs": [
        {
          "name": "_id",
          "type": "uint256"
        },
        {
          "name": "_nameSurname",
          "type": "string"
        },
        {
          "name": "_direction",
          "type": "string"
        },
        {
          "name": "_city",
          "type": "bytes32"
        },
        {
          "name": "_stateRegion",
          "type": "bytes32"
        },
        {
          "name": "_postalCode",
          "type": "uint256"
        },
        {
          "name": "_country",
          "type": "bytes32"
        },
        {
          "name": "_phone",
          "type": "uint256"
        },
        {
          "name": "_barcode",
          "type": "uint256"
        }
      ],
      "name": "buyProduct",
      "outputs": [],
      "payable": false,
      "stateMutability": "nonpayable",
      "type": "function"
    },
    {
      "constant": false,
      "inputs": [
        {
          "name": "_id",
          "type": "uint256"
        }
      ],
      "name": "markOrderCompleted",
      "outputs": [],
      "payable": false,
      "stateMutability": "nonpayable",
      "type": "function"
    },
    {
      "constant": false,
      "inputs": [
        {
          "name": "_id",
          "type": "uint256"
        }
      ],
      "name": "deleteProduct",
      "outputs": [],
      "payable": false,
      "stateMutability": "nonpayable",
      "type": "function"
    },
    {
      "constant": true,
      "inputs": [],
      "name": "getProductsLength",
      "outputs": [
        {
          "name": "",
          "type": "uint256"
        }
      ],
      "payable": false,
      "stateMutability": "view",
      "type": "function"
    },
    {
      "constant": true,
      "inputs": [
        {
          "name": "_type",
          "type": "bytes32"
        },
        {
          "name": "_einOwner",
          "type": "uint256"
        }
      ],
      "name": "getOrdersLength",
      "outputs": [
        {
          "name": "",
          "type": "uint256"
        }
      ],
      "payable": false,
      "stateMutability": "view",
      "type": "function"
    },
    {
      "constant": true,
      "inputs": [
        {
          "name": "_id",
          "type": "uint256"
        }
      ],
      "name": "getProductEinOwner",
      "outputs": [
        {
          "name": "",
          "type": "uint256"
        }
      ],
      "payable": false,
      "stateMutability": "view",
      "type": "function"
    },
    {
      "constant": true,
      "inputs": [
        {
          "name": "_id",
          "type": "uint256"
        }
      ],
      "name": "getProductOwner",
      "outputs": [
        {
          "name": "",
          "type": "address"
        }
      ],
      "payable": false,
      "stateMutability": "view",
      "type": "function"
    },
    {
      "constant": true,
      "inputs": [
        {
          "name": "_id",
          "type": "uint256"
        }
      ],
      "name": "getProductPrice",
      "outputs": [
        {
          "name": "",
          "type": "uint256"
        }
      ],
      "payable": false,
      "stateMutability": "view",
      "type": "function"
    }
  ],
  "bytecode": "0x60806040523480156200001157600080fd5b50604051604080620058e1833981018060405260408110156200003357600080fd5b81019080805190602001909291908051906020019092919050505033600760006101000a81548173ffffffffffffffffffffffffffffffffffffffff021916908373ffffffffffffffffffffffffffffffffffffffff16021790555081600b60006101000a81548173ffffffffffffffffffffffffffffffffffffffff021916908373ffffffffffffffffffffffffffffffffffffffff16021790555080600c60006101000a81548173ffffffffffffffffffffffffffffffffffffffff021916908373ffffffffffffffffffffffffffffffffffffffff16021790555050506157be80620001236000396000f3fe60806040526004361061013e576000357c0100000000000000000000000000000000000000000000000000000000900463ffffffff1680630ea9bf92146101435780631155dfe51461017e578063119a6fe7146101a9578063134e18f4146101d45780631f2cb8511461022b5780635662ecc7146103d15780637acc0b20146103fc57806387d3a024146105e55780638cb0fe27146107285780638d77eba5146108435780638da5cb5b146109545780639dd162b5146109ab578063a30b475f14610b07578063a30fb05b14610cf0578063a9a924301461102d578063c05116081461107c578063c1292cc3146110d5578063cd78ba0114611100578063df6711b0146111bb578063e4c0bc9b146111f6578063e7bf7dfc14611311578063ed90c7b714611360578063fc0c546a1461139b578063fe542c9b146113f2575b600080fd5b34801561014f57600080fd5b5061017c6004803603602081101561016657600080fd5b810190808035906020019092919050505061146d565b005b34801561018a57600080fd5b50610193611675565b6040518082815260200191505060405180910390f35b3480156101b557600080fd5b506101be611682565b6040518082815260200191505060405180910390f35b3480156101e057600080fd5b506101e9611688565b604051808273ffffffffffffffffffffffffffffffffffffffff1673ffffffffffffffffffffffffffffffffffffffff16815260200191505060405180910390f35b34801561023757600080fd5b506103cf600480360361012081101561024f57600080fd5b81019080803590602001909291908035906020019064010000000081111561027657600080fd5b82018360208201111561028857600080fd5b803590602001918460018302840111640100000000831117156102aa57600080fd5b91908080601f016020809104026020016040519081016040528093929190818152602001838380828437600081840152601f19601f8201169050808301925050505050505091929192908035906020019064010000000081111561030d57600080fd5b82018360208201111561031f57600080fd5b8035906020019184600183028401116401000000008311171561034157600080fd5b91908080601f016020809104026020016040519081016040528093929190818152602001838380828437600081840152601f19601f8201169050808301925050505050505091929192908035906020019092919080359060200190929190803590602001909291908035906020019092919080359060200190929190803590602001909291905050506116ae565b005b3480156103dd57600080fd5b506103e66127f6565b6040518082815260200191505060405180910390f35b34801561040857600080fd5b506104356004803603602081101561041f57600080fd5b81019080803590602001909291905050506127fc565b604051808b81526020018a815260200180602001806020018981526020018881526020018773ffffffffffffffffffffffffffffffffffffffff1673ffffffffffffffffffffffffffffffffffffffff1681526020018681526020018060200185815260200184810384528c818151815260200191508051906020019080838360005b838110156104d35780820151818401526020810190506104b8565b50505050905090810190601f1680156105005780820380516001836020036101000a031916815260200191505b5084810383528b818151815260200191508051906020019080838360005b8381101561053957808201518184015260208101905061051e565b50505050905090810190601f1680156105665780820380516001836020036101000a031916815260200191505b50848103825286818151815260200191508051906020019080838360005b8381101561059f578082015181840152602081019050610584565b50505050905090810190601f1680156105cc5780820380516001836020036101000a031916815260200191505b509d505050505050505050505050505060405180910390f35b3480156105f157600080fd5b5061061e6004803603602081101561060857600080fd5b8101908080359060200190929190505050612a47565b60405180806020018060200188815260200187815260200186815260200185815260200184815260200183810383528a818151815260200191508051906020019080838360005b83811015610680578082015181840152602081019050610665565b50505050905090810190601f1680156106ad5780820380516001836020036101000a031916815260200191505b50838103825289818151815260200191508051906020019080838360005b838110156106e65780820151818401526020810190506106cb565b50505050905090810190601f1680156107135780820380516001836020036101000a031916815260200191505b50995050505050505050505060405180910390f35b34801561073457600080fd5b5061076b6004803603604081101561074b57600080fd5b810190808035906020019092919080359060200190929190505050612bb9565b604051808981526020018881526020018781526020018681526020018581526020018473ffffffffffffffffffffffffffffffffffffffff1673ffffffffffffffffffffffffffffffffffffffff16815260200180602001838152602001828103825284818151815260200191508051906020019080838360005b838110156108015780820151818401526020810190506107e6565b50505050905090810190601f16801561082e5780820380516001836020036101000a031916815260200191505b50995050505050505050505060405180910390f35b34801561084f57600080fd5b5061087c6004803603602081101561086657600080fd5b8101908080359060200190929190505050612cd5565b604051808981526020018881526020018781526020018681526020018581526020018473ffffffffffffffffffffffffffffffffffffffff1673ffffffffffffffffffffffffffffffffffffffff16815260200180602001838152602001828103825284818151815260200191508051906020019080838360005b838110156109125780820151818401526020810190506108f7565b50505050905090810190601f16801561093f5780820380516001836020036101000a031916815260200191505b50995050505050505050505060405180910390f35b34801561096057600080fd5b50610969612dd5565b604051808273ffffffffffffffffffffffffffffffffffffffff1673ffffffffffffffffffffffffffffffffffffffff16815260200191505060405180910390f35b3480156109b757600080fd5b50610b05600480360360408110156109ce57600080fd5b81019080803590602001906401000000008111156109eb57600080fd5b8201836020820111156109fd57600080fd5b80359060200191846001830284011164010000000083111715610a1f57600080fd5b91908080601f016020809104026020016040519081016040528093929190818152602001838380828437600081840152601f19601f82011690508083019250505050505050919291929080359060200190640100000000811115610a8257600080fd5b820183602082011115610a9457600080fd5b80359060200191846020830284011164010000000083111715610ab657600080fd5b919080806020026020016040519081016040528093929190818152602001838360200280828437600081840152601f19601f820116905080830192505050505050509192919290505050612dfb565b005b348015610b1357600080fd5b50610b4060048036036020811015610b2a57600080fd5b8101908080359060200190929190505050612fb8565b604051808b81526020018a815260200180602001806020018981526020018881526020018773ffffffffffffffffffffffffffffffffffffffff1673ffffffffffffffffffffffffffffffffffffffff1681526020018681526020018060200185815260200184810384528c818151815260200191508051906020019080838360005b83811015610bde578082015181840152602081019050610bc3565b50505050905090810190601f168015610c0b5780820380516001836020036101000a031916815260200191505b5084810383528b818151815260200191508051906020019080838360005b83811015610c44578082015181840152602081019050610c29565b50505050905090810190601f168015610c715780820380516001836020036101000a031916815260200191505b50848103825286818151815260200191508051906020019080838360005b83811015610caa578082015181840152602081019050610c8f565b50505050905090810190601f168015610cd75780820380516001836020036101000a031916815260200191505b509d505050505050505050505050505060405180910390f35b348015610cfc57600080fd5b5061102b6004803603610100811015610d1457600080fd5b8101908080359060200190640100000000811115610d3157600080fd5b820183602082011115610d4357600080fd5b80359060200191846001830284011164010000000083111715610d6557600080fd5b91908080601f016020809104026020016040519081016040528093929190818152602001838380828437600081840152601f19601f8201169050808301925050505050505091929192908035906020019092919080359060200190640100000000811115610dd257600080fd5b820183602082011115610de457600080fd5b80359060200191846001830284011164010000000083111715610e0657600080fd5b91908080601f016020809104026020016040519081016040528093929190818152602001838380828437600081840152601f19601f8201169050808301925050505050505091929192908035906020019092919080359060200190640100000000811115610e7357600080fd5b820183602082011115610e8557600080fd5b80359060200191846001830284011164010000000083111715610ea757600080fd5b91908080601f016020809104026020016040519081016040528093929190818152602001838380828437600081840152601f19601f82011690508083019250505050505050919291929080359060200190640100000000811115610f0a57600080fd5b820183602082011115610f1c57600080fd5b80359060200191846020830284011164010000000083111715610f3e57600080fd5b919080806020026020016040519081016040528093929190818152602001838360200280828437600081840152601f19601f82011690508083019250505050505050919291929080359060200190640100000000811115610f9e57600080fd5b820183602082011115610fb057600080fd5b80359060200191846020830284011164010000000083111715610fd257600080fd5b919080806020026020016040519081016040528093929190818152602001838360200280828437600081840152601f19601f820116905080830192505050505050509192919290803590602001909291905050506131f4565b005b34801561103957600080fd5b506110666004803603602081101561105057600080fd5b810190808035906020019092919050505061398e565b6040518082815260200191505060405180910390f35b34801561108857600080fd5b506110bf6004803603604081101561109f57600080fd5b8101908080359060200190929190803590602001909291905050506139ae565b6040518082815260200191505060405180910390f35b3480156110e157600080fd5b506110ea613a42565b6040518082815260200191505060405180910390f35b34801561110c57600080fd5b506111396004803603602081101561112357600080fd5b8101908080359060200190929190505050613a48565b6040518083815260200180602001828103825283818151815260200191508051906020019080838360005b8381101561117f578082015181840152602081019050611164565b50505050905090810190601f1680156111ac5780820380516001836020036101000a031916815260200191505b50935050505060405180910390f35b3480156111c757600080fd5b506111f4600480360360208110156111de57600080fd5b8101908080359060200190929190505050613b13565b005b34801561120257600080fd5b506112396004803603604081101561121957600080fd5b8101908080359060200190929190803590602001909291905050506147e5565b604051808981526020018881526020018781526020018681526020018581526020018473ffffffffffffffffffffffffffffffffffffffff1673ffffffffffffffffffffffffffffffffffffffff16815260200180602001838152602001828103825284818151815260200191508051906020019080838360005b838110156112cf5780820151818401526020810190506112b4565b50505050905090810190601f1680156112fc5780820380516001836020036101000a031916815260200191505b50995050505050505050505060405180910390f35b34801561131d57600080fd5b5061134a6004803603602081101561133457600080fd5b8101908080359060200190929190505050614901565b6040518082815260200191505060405180910390f35b34801561136c57600080fd5b506113996004803603602081101561138357600080fd5b8101908080359060200190929190505050614921565b005b3480156113a757600080fd5b506113b0615243565b604051808273ffffffffffffffffffffffffffffffffffffffff1673ffffffffffffffffffffffffffffffffffffffff16815260200191505060405180910390f35b3480156113fe57600080fd5b5061142b6004803603602081101561141557600080fd5b8101908080359060200190929190505050615269565b604051808273ffffffffffffffffffffffffffffffffffffffff1673ffffffffffffffffffffffffffffffffffffffff16815260200191505060405180910390f35b60008090505b600680549050811015611671578160068281548110151561149057fe5b9060005260206000209060030201600001541415611664576114b06152a9565b60066001600680549050038154811015156114c757fe5b90600052602060002090600302016060604051908101604052908160008201548152602001600182018054600181600116156101000203166002900480601f0160208091040260200160405190810160405280929190818152602001828054600181600116156101000203166002900480156115845780601f1061155957610100808354040283529160200191611584565b820191906000526020600020905b81548152906001019060200180831161156757829003601f168201915b50505050508152602001600282018054806020026020016040519081016040528092919081815260200182805480156115dc57602002820191906000526020600020905b8154815260200190600101908083116115c8575b5050505050815250509050806006838154811015156115f757fe5b906000526020600020906003020160008201518160000155602082015181600101908051906020019061162b9291906152cb565b50604082015181600201908051906020019061164892919061534b565b5090505060068054809190600190036116619190615398565b50505b8080600101915050611473565b5050565b6000600580549050905090565b600a5481565b600c60009054906101000a900473ffffffffffffffffffffffffffffffffffffffff1681565b60008851111515611727576040517f08c379a00000000000000000000000000000000000000000000000000000000081526004018080602001828103825260208152602001807f546865206e616d6520616e64207375726e616d65206d7573742062652073657481525060200191505060405180910390fd5b600087511115156117c6576040517f08c379a00000000000000000000000000000000000000000000000000000000081526004018080602001828103825260228152602001807f546865206c696e65206f6e6520646972656374696f6e206d757374206265207381526020017f657400000000000000000000000000000000000000000000000000000000000081525060400191505060405180910390fd5b6000602060ff16111515611842576040517f08c379a00000000000000000000000000000000000000000000000000000000081526004018080602001828103825260148152602001807f5468652063697479206d7573742062652073657400000000000000000000000081525060200191505060405180910390fd5b6000602060ff161115156118be576040517f08c379a000000000000000000000000000000000000000000000000000000000815260040180806020018281038252601f8152602001807f546865207374617465206f7220726567696f6e206d757374206265207365740081525060200191505060405180910390fd5b600084111515611936576040517f08c379a000000000000000000000000000000000000000000000000000000000815260040180806020018281038252601b8152602001807f54686520706f7374616c20636f6465206d75737420626520736574000000000081525060200191505060405180910390fd5b6000600102831115156119b1576040517f08c379a00000000000000000000000000000000000000000000000000000000081526004018080602001828103825260178152602001807f54686520636f756e747279206d7573742062652073657400000000000000000081525060200191505060405180910390fd5b600c60009054906101000a900473ffffffffffffffffffffffffffffffffffffffff1673ffffffffffffffffffffffffffffffffffffffff1663237f1a21336040518263ffffffff167c0100000000000000000000000000000000000000000000000000000000028152600401808273ffffffffffffffffffffffffffffffffffffffff1673ffffffffffffffffffffffffffffffffffffffff16815260200191505060206040518083038186803b158015611a6c57600080fd5b505afa158015611a80573d6000803e3d6000fd5b505050506040513d6020811015611a9657600080fd5b81019080805190602001909291905050501515611b67576040517f08c379a00000000000000000000000000000000000000000000000000000000081526004018080602001828103825260528152602001807f596f75206d757374206861766520616e2045494e206173736f6369617465642081526020017f7769746820796f757220457468657265756d206163636f756e7420746f20707581526020017f726368617365207468652070726f64756374000000000000000000000000000081525060600191505060405180910390fd5b6000600c60009054906101000a900473ffffffffffffffffffffffffffffffffffffffff1673ffffffffffffffffffffffffffffffffffffffff166305c62c2f336040518263ffffffff167c0100000000000000000000000000000000000000000000000000000000028152600401808273ffffffffffffffffffffffffffffffffffffffff1673ffffffffffffffffffffffffffffffffffffffff16815260200191505060206040518083038186803b158015611c2457600080fd5b505afa158015611c38573d6000803e3d6000fd5b505050506040513d6020811015611c4e57600080fd5b81019080805190602001909291905050509050611c696153ca565b600260008c815260200190815260200160002061018060405190810160405290816000820154815260200160018201548152602001600282018054600181600116156101000203166002900480601f016020809104026020016040519081016040528092919081815260200182805460018160011615610100020316600290048015611d365780601f10611d0b57610100808354040283529160200191611d36565b820191906000526020600020905b815481529060010190602001808311611d1957829003601f168201915b50505050508152602001600382018054600181600116156101000203166002900480601f016020809104026020016040519081016040528092919081815260200182805460018160011615610100020316600290048015611dd85780601f10611dad57610100808354040283529160200191611dd8565b820191906000526020600020905b815481529060010190602001808311611dbb57829003601f168201915b5050505050815260200160048201548152602001600582015481526020016006820160009054906101000a900473ffffffffffffffffffffffffffffffffffffffff1673ffffffffffffffffffffffffffffffffffffffff1673ffffffffffffffffffffffffffffffffffffffff16815260200160078201548152602001600882018054600181600116156101000203166002900480601f016020809104026020016040519081016040528092919081815260200182805460018160011615610100020316600290048015611eee5780601f10611ec357610100808354040283529160200191611eee565b820191906000526020600020905b815481529060010190602001808311611ed157829003601f168201915b5050505050815260200160098201805480602002602001604051908101604052809291908181526020018280548015611f4657602002820191906000526020600020905b815481526020019060010190808311611f32575b50505050508152602001600a8201805480602002602001604051908101604052809291908181526020018280548015611f9e57602002820191906000526020600020905b815481526020019060010190808311611f8a575b50505050508152602001600b8201548152505090506000816040015151111515612056576040517f08c379a00000000000000000000000000000000000000000000000000000000081526004018080602001828103825260268152602001807f5468652070726f64756374206d75737420657869737420746f2062652070757281526020017f636861736564000000000000000000000000000000000000000000000000000081525060400191505060405180910390fd5b8060e00151600b60009054906101000a900473ffffffffffffffffffffffffffffffffffffffff1673ffffffffffffffffffffffffffffffffffffffff1663dd62ed3e33306040518363ffffffff167c0100000000000000000000000000000000000000000000000000000000028152600401808373ffffffffffffffffffffffffffffffffffffffff1673ffffffffffffffffffffffffffffffffffffffff1681526020018273ffffffffffffffffffffffffffffffffffffffff1673ffffffffffffffffffffffffffffffffffffffff1681526020019250505060206040518083038186803b15801561214a57600080fd5b505afa15801561215e573d6000803e3d6000fd5b505050506040513d602081101561217457600080fd5b810190808051906020019092919050505010151515612247576040517f08c379a00000000000000000000000000000000000000000000000000000000081526004018080602001828103825260438152602001807f596f75206d757374206861766520656e6f75676820485944524f20746f6b656e81526020017f7320617070726f76656420746f20707572636861736520746869732070726f6481526020017f756374000000000000000000000000000000000000000000000000000000000081525060600191505060405180910390fd5b61224f615445565b60e0604051908101604052808c81526020018b81526020018a815260200189815260200188815260200187815260200186815250905061228d61548c565b610100604051908101604052806009548152602001600a5481526020018e81526020014281526020018581526020013373ffffffffffffffffffffffffffffffffffffffff1681526020016040805190810160405280600781526020017f70656e64696e67000000000000000000000000000000000000000000000000008152508152602001868152509050600083610160015111156124695782610160018051809190600190038152505082600260008f81526020019081526020016000206000820151816000015560208201518160010155604082015181600201908051906020019061237d9291906152cb565b50606082015181600301908051906020019061239a9291906152cb565b506080820151816004015560a0820151816005015560c08201518160060160006101000a81548173ffffffffffffffffffffffffffffffffffffffff021916908373ffffffffffffffffffffffffffffffffffffffff16021790555060e0820151816007015561010082015181600801908051906020019061241d9291906152cb565b5061012082015181600901908051906020019061243b92919061534b565b5061014082015181600a01908051906020019061245992919061534b565b5061016082015181600b01559050505b6000808581526020019081526020016000208190806001815401808255809150509060018203906000526020600020906008020160009091929091909150600082015181600001556020820151816001015560408201518160020155606082015181600301556080820151816004015560a08201518160050160006101000a81548173ffffffffffffffffffffffffffffffffffffffff021916908373ffffffffffffffffffffffffffffffffffffffff16021790555060c082015181600601908051906020019061253c9291906152cb565b5060e0820151816007015550505080600360008f8152602001908152602001600020600082015181600001556020820151816001015560408201518160020155606082015181600301556080820151816004015560a08201518160050160006101000a81548173ffffffffffffffffffffffffffffffffffffffff021916908373ffffffffffffffffffffffffffffffffffffffff16021790555060c08201518160060190805190602001906125f39291906152cb565b5060e082015181600701559050508160046000600a54815260200190815260200160002060008201518160000190805190602001906126339291906152cb565b5060208201518160010190805190602001906126509291906152cb565b5060408201518160020155606082015181600301556080820151816004015560a0820151816005015560c08201518160060155905050600b60009054906101000a900473ffffffffffffffffffffffffffffffffffffffff1673ffffffffffffffffffffffffffffffffffffffff166323b872dd338560c001518660e001516040518463ffffffff167c0100000000000000000000000000000000000000000000000000000000028152600401808473ffffffffffffffffffffffffffffffffffffffff1673ffffffffffffffffffffffffffffffffffffffff1681526020018373ffffffffffffffffffffffffffffffffffffffff1673ffffffffffffffffffffffffffffffffffffffff1681526020018281526020019350505050602060405180830381600087803b15801561278757600080fd5b505af115801561279b573d6000803e3d6000fd5b505050506040513d60208110156127b157600080fd5b810190808051906020019092919050505050600960008154809291906001019190505550600a6000815480929190600101919050555050505050505050505050505050565b60095481565b60058181548110151561280b57fe5b90600052602060002090600c0201600091509050806000015490806001015490806002018054600181600116156101000203166002900480601f0160208091040260200160405190810160405280929190818152602001828054600181600116156101000203166002900480156128c35780601f10612898576101008083540402835291602001916128c3565b820191906000526020600020905b8154815290600101906020018083116128a657829003601f168201915b505050505090806003018054600181600116156101000203166002900480601f0160208091040260200160405190810160405280929190818152602001828054600181600116156101000203166002900480156129615780601f1061293657610100808354040283529160200191612961565b820191906000526020600020905b81548152906001019060200180831161294457829003601f168201915b5050505050908060040154908060050154908060060160009054906101000a900473ffffffffffffffffffffffffffffffffffffffff1690806007015490806008018054600181600116156101000203166002900480601f016020809104026020016040519081016040528092919081815260200182805460018160011615610100020316600290048015612a375780601f10612a0c57610100808354040283529160200191612a37565b820191906000526020600020905b815481529060010190602001808311612a1a57829003601f168201915b50505050509080600b015490508a565b6004602052806000526040600020600091509050806000018054600181600116156101000203166002900480601f016020809104026020016040519081016040528092919081815260200182805460018160011615610100020316600290048015612af35780601f10612ac857610100808354040283529160200191612af3565b820191906000526020600020905b815481529060010190602001808311612ad657829003601f168201915b505050505090806001018054600181600116156101000203166002900480601f016020809104026020016040519081016040528092919081815260200182805460018160011615610100020316600290048015612b915780601f10612b6657610100808354040283529160200191612b91565b820191906000526020600020905b815481529060010190602001808311612b7457829003601f168201915b5050505050908060020154908060030154908060040154908060050154908060060154905087565b600160205281600052604060002081815481101515612bd457fe5b9060005260206000209060080201600091509150508060000154908060010154908060020154908060030154908060040154908060050160009054906101000a900473ffffffffffffffffffffffffffffffffffffffff1690806006018054600181600116156101000203166002900480601f016020809104026020016040519081016040528092919081815260200182805460018160011615610100020316600290048015612cc55780601f10612c9a57610100808354040283529160200191612cc5565b820191906000526020600020905b815481529060010190602001808311612ca857829003601f168201915b5050505050908060070154905088565b60036020528060005260406000206000915090508060000154908060010154908060020154908060030154908060040154908060050160009054906101000a900473ffffffffffffffffffffffffffffffffffffffff1690806006018054600181600116156101000203166002900480601f016020809104026020016040519081016040528092919081815260200182805460018160011615610100020316600290048015612dc55780601f10612d9a57610100808354040283529160200191612dc5565b820191906000526020600020905b815481529060010190602001808311612da857829003601f168201915b5050505050908060070154905088565b600760009054906101000a900473ffffffffffffffffffffffffffffffffffffffff1681565b60008251111515612e74576040517f08c379a00000000000000000000000000000000000000000000000000000000081526004018080602001828103825260148152602001807f546865206e616d65206d7573742062652073657400000000000000000000000081525060200191505060405180910390fd5b60008151111515612f13576040517f08c379a00000000000000000000000000000000000000000000000000000000081526004018080602001828103825260318152602001807f5468657265206d757374206265206174206c65617374206f6e6520736b75206681526020017f6f72207468697320696e76656e746f727900000000000000000000000000000081525060400191505060405180910390fd5b612f1b6152a9565b606060405190810160405280600680549050815260200184815260200183815250905060068190806001815401808255809150509060018203906000526020600020906003020160009091929091909150600082015181600001556020820151816001019080519060200190612f929291906152cb565b506040820151816002019080519060200190612faf92919061534b565b50505050505050565b6002602052806000526040600020600091509050806000015490806001015490806002018054600181600116156101000203166002900480601f0160208091040260200160405190810160405280929190818152602001828054600181600116156101000203166002900480156130705780601f1061304557610100808354040283529160200191613070565b820191906000526020600020905b81548152906001019060200180831161305357829003601f168201915b505050505090806003018054600181600116156101000203166002900480601f01602080910402602001604051908101604052809291908181526020018280546001816001161561010002031660029004801561310e5780601f106130e35761010080835404028352916020019161310e565b820191906000526020600020905b8154815290600101906020018083116130f157829003601f168201915b5050505050908060040154908060050154908060060160009054906101000a900473ffffffffffffffffffffffffffffffffffffffff1690806007015490806008018054600181600116156101000203166002900480601f0160208091040260200160405190810160405280929190818152602001828054600181600116156101000203166002900480156131e45780601f106131b9576101008083540402835291602001916131e4565b820191906000526020600020905b8154815290600101906020018083116131c757829003601f168201915b50505050509080600b015490508a565b6000885111151561326d576040517f08c379a00000000000000000000000000000000000000000000000000000000081526004018080602001828103825260198152602001807f546865207469746c652063616e6e6f7420626520656d7074790000000000000081525060200191505060405180910390fd5b600086511115156132e6576040517f08c379a000000000000000000000000000000000000000000000000000000000815260040180806020018281038252601f8152602001807f546865206465736372697074696f6e2063616e6e6f7420626520656d7074790081525060200191505060405180910390fd5b60008511151561335e576040517f08c379a00000000000000000000000000000000000000000000000000000000081526004018080602001828103825260198152602001807f5468652070726963652063616e6e6f7420626520656d7074790000000000000081525060200191505060405180910390fd5b600084511115156133d7576040517f08c379a00000000000000000000000000000000000000000000000000000000081526004018080602001828103825260198152602001807f54686520696d6167652063616e6e6f7420626520656d7074790000000000000081525060200191505060405180910390fd5b600c60009054906101000a900473ffffffffffffffffffffffffffffffffffffffff1673ffffffffffffffffffffffffffffffffffffffff1663237f1a21336040518263ffffffff167c0100000000000000000000000000000000000000000000000000000000028152600401808273ffffffffffffffffffffffffffffffffffffffff1673ffffffffffffffffffffffffffffffffffffffff16815260200191505060206040518083038186803b15801561349257600080fd5b505afa1580156134a6573d6000803e3d6000fd5b505050506040513d60208110156134bc57600080fd5b8101908080519060200190929190505050151561358d576040517f08c379a000000000000000000000000000000000000000000000000000000000815260040180806020018281038252604b8152602001807f596f75206d757374206861766520616e2045494e206173736f6369617465642081526020017f7769746820796f757220457468657265756d206163636f756e7420746f20616481526020017f6420612070726f6475637400000000000000000000000000000000000000000081525060600191505060405180910390fd5b6135956153ca565b6101806040519081016040528060085481526020018981526020018a8152602001888152602001428152602001600c60009054906101000a900473ffffffffffffffffffffffffffffffffffffffff1673ffffffffffffffffffffffffffffffffffffffff166305c62c2f336040518263ffffffff167c0100000000000000000000000000000000000000000000000000000000028152600401808273ffffffffffffffffffffffffffffffffffffffff1673ffffffffffffffffffffffffffffffffffffffff16815260200191505060206040518083038186803b15801561367d57600080fd5b505afa158015613691573d6000803e3d6000fd5b505050506040513d60208110156136a757600080fd5b810190808051906020019092919050505081526020013373ffffffffffffffffffffffffffffffffffffffff1681526020018781526020018681526020018581526020018481526020018381525090506005819080600181540180825580915050906001820390600052602060002090600c020160009091929091909150600082015181600001556020820151816001015560408201518160020190805190602001906137559291906152cb565b5060608201518160030190805190602001906137729291906152cb565b506080820151816004015560a0820151816005015560c08201518160060160006101000a81548173ffffffffffffffffffffffffffffffffffffffff021916908373ffffffffffffffffffffffffffffffffffffffff16021790555060e082015181600701556101008201518160080190805190602001906137f59291906152cb565b5061012082015181600901908051906020019061381392919061534b565b5061014082015181600a01908051906020019061383192919061534b565b5061016082015181600b015550505080600260006008548152602001908152602001600020600082015181600001556020820151816001015560408201518160020190805190602001906138869291906152cb565b5060608201518160030190805190602001906138a39291906152cb565b506080820151816004015560a0820151816005015560c08201518160060160006101000a81548173ffffffffffffffffffffffffffffffffffffffff021916908373ffffffffffffffffffffffffffffffffffffffff16021790555060e082015181600701556101008201518160080190805190602001906139269291906152cb565b5061012082015181600901908051906020019061394492919061534b565b5061014082015181600a01908051906020019061396292919061534b565b5061016082015181600b0155905050600860008154809291906001019190505550505050505050505050565b600060026000838152602001908152602001600020600501549050919050565b60007f70656e64696e67000000000000000000000000000000000000000000000000008314156139f557600080838152602001908152602001600020805490509050613a3c565b7f636f6d706c657465640000000000000000000000000000000000000000000000831415613a3b5760016000838152602001908152602001600020805490509050613a3c565b5b92915050565b60085481565b600681815481101515613a5757fe5b9060005260206000209060030201600091509050806000015490806001018054600181600116156101000203166002900480601f016020809104026020016040519081016040528092919081815260200182805460018160011615610100020316600290048015613b095780601f10613ade57610100808354040283529160200191613b09565b820191906000526020600020905b815481529060010190602001808311613aec57829003601f168201915b5050505050905082565b613b1b61548c565b60036000838152602001908152602001600020610100604051908101604052908160008201548152602001600182015481526020016002820154815260200160038201548152602001600482015481526020016005820160009054906101000a900473ffffffffffffffffffffffffffffffffffffffff1673ffffffffffffffffffffffffffffffffffffffff1673ffffffffffffffffffffffffffffffffffffffff168152602001600682018054600181600116156101000203166002900480601f016020809104026020016040519081016040528092919081815260200182805460018160011615610100020316600290048015613c5c5780601f10613c3157610100808354040283529160200191613c5c565b820191906000526020600020905b815481529060010190602001808311613c3f57829003601f168201915b505050505081526020016007820154815250509050613c796153ca565b600260008360400151815260200190815260200160002061018060405190810160405290816000820154815260200160018201548152602001600282018054600181600116156101000203166002900480601f016020809104026020016040519081016040528092919081815260200182805460018160011615610100020316600290048015613d4a5780601f10613d1f57610100808354040283529160200191613d4a565b820191906000526020600020905b815481529060010190602001808311613d2d57829003601f168201915b50505050508152602001600382018054600181600116156101000203166002900480601f016020809104026020016040519081016040528092919081815260200182805460018160011615610100020316600290048015613dec5780601f10613dc157610100808354040283529160200191613dec565b820191906000526020600020905b815481529060010190602001808311613dcf57829003601f168201915b5050505050815260200160048201548152602001600582015481526020016006820160009054906101000a900473ffffffffffffffffffffffffffffffffffffffff1673ffffffffffffffffffffffffffffffffffffffff1673ffffffffffffffffffffffffffffffffffffffff16815260200160078201548152602001600882018054600181600116156101000203166002900480601f016020809104026020016040519081016040528092919081815260200182805460018160011615610100020316600290048015613f025780601f10613ed757610100808354040283529160200191613f02565b820191906000526020600020905b815481529060010190602001808311613ee557829003601f168201915b5050505050815260200160098201805480602002602001604051908101604052809291908181526020018280548015613f5a57602002820191906000526020600020905b815481526020019060010190808311613f46575b50505050508152602001600a8201805480602002602001604051908101604052809291908181526020018280548015613fb257602002820191906000526020600020905b815481526020019060010190808311613f9e575b50505050508152602001600b820154815250509050600c60009054906101000a900473ffffffffffffffffffffffffffffffffffffffff1673ffffffffffffffffffffffffffffffffffffffff1663237f1a21336040518263ffffffff167c0100000000000000000000000000000000000000000000000000000000028152600401808273ffffffffffffffffffffffffffffffffffffffff1673ffffffffffffffffffffffffffffffffffffffff16815260200191505060206040518083038186803b15801561408257600080fd5b505afa158015614096573d6000803e3d6000fd5b505050506040513d60208110156140ac57600080fd5b8101908080519060200190929190505050151561417d576040517f08c379a00000000000000000000000000000000000000000000000000000000081526004018080602001828103825260598152602001807f596f75206d757374206861766520616e2045494e206173736f6369617465642081526020017f7769746820796f757220457468657265756d206163636f756e7420746f206d6181526020017f726b20746865206f7264657220617320636f6d706c657465640000000000000081525060600191505060405180910390fd5b6000600c60009054906101000a900473ffffffffffffffffffffffffffffffffffffffff1673ffffffffffffffffffffffffffffffffffffffff166305c62c2f336040518263ffffffff167c0100000000000000000000000000000000000000000000000000000000028152600401808273ffffffffffffffffffffffffffffffffffffffff1673ffffffffffffffffffffffffffffffffffffffff16815260200191505060206040518083038186803b15801561423a57600080fd5b505afa15801561424e573d6000803e3d6000fd5b505050506040513d602081101561426457600080fd5b81019080805190602001909291905050509050808260a00151141515614318576040517f08c379a000000000000000000000000000000000000000000000000000000000815260040180806020018281038252602f8152602001807f4f6e6c79207468652073656c6c65722063616e206d61726b20746865206f726481526020017f657220617320636f6d706c65746564000000000000000000000000000000000081525060400191505060405180910390fd5b6040805190810160405280600981526020017f636f6d706c6574656400000000000000000000000000000000000000000000008152508360c0018190525060008090505b6000808460a0015181526020019081526020016000208054905081101561464157846000808560a001518152602001908152602001600020828154811015156143a157fe5b9060005260206000209060080201600001541415614634576143c161548c565b6003600060016000808860a00151815260200190815260200160002080549050038152602001908152602001600020610100604051908101604052908160008201548152602001600182015481526020016002820154815260200160038201548152602001600482015481526020016005820160009054906101000a900473ffffffffffffffffffffffffffffffffffffffff1673ffffffffffffffffffffffffffffffffffffffff1673ffffffffffffffffffffffffffffffffffffffff168152602001600682018054600181600116156101000203166002900480601f01602080910402602001604051908101604052809291908181526020018280546001816001161561010002031660029004801561451e5780601f106144f35761010080835404028352916020019161451e565b820191906000526020600020905b81548152906001019060200180831161450157829003601f168201915b505050505081526020016007820154815250509050806000808660a0015181526020019081526020016000208381548110151561455757fe5b9060005260206000209060080201600082015181600001556020820151816001015560408201518160020155606082015181600301556080820151816004015560a08201518160050160006101000a81548173ffffffffffffffffffffffffffffffffffffffff021916908373ffffffffffffffffffffffffffffffffffffffff16021790555060c08201518160060190805190602001906145fa9291906152cb565b5060e082015181600701559050506000808560a00151815260200190815260200160002080548091906001900361463191906154e8565b50505b808060010191505061435c565b5060016000846080015181526020019081526020016000208390806001815401808255809150509060018203906000526020600020906008020160009091929091909150600082015181600001556020820151816001015560408201518160020155606082015181600301556080820151816004015560a08201518160050160006101000a81548173ffffffffffffffffffffffffffffffffffffffff021916908373ffffffffffffffffffffffffffffffffffffffff16021790555060c082015181600601908051906020019061471a9291906152cb565b5060e082015181600701555050508260036000868152602001908152602001600020600082015181600001556020820151816001015560408201518160020155606082015181600301556080820151816004015560a08201518160050160006101000a81548173ffffffffffffffffffffffffffffffffffffffff021916908373ffffffffffffffffffffffffffffffffffffffff16021790555060c08201518160060190805190602001906147d19291906152cb565b5060e0820151816007015590505050505050565b60006020528160005260406000208181548110151561480057fe5b9060005260206000209060080201600091509150508060000154908060010154908060020154908060030154908060040154908060050160009054906101000a900473ffffffffffffffffffffffffffffffffffffffff1690806006018054600181600116156101000203166002900480601f0160208091040260200160405190810160405280929190818152602001828054600181600116156101000203166002900480156148f15780601f106148c6576101008083540402835291602001916148f1565b820191906000526020600020905b8154815290600101906020018083116148d457829003601f168201915b5050505050908060070154905088565b600060026000838152602001908152602001600020600701549050919050565b600c60009054906101000a900473ffffffffffffffffffffffffffffffffffffffff1673ffffffffffffffffffffffffffffffffffffffff1663237f1a21336040518263ffffffff167c0100000000000000000000000000000000000000000000000000000000028152600401808273ffffffffffffffffffffffffffffffffffffffff1673ffffffffffffffffffffffffffffffffffffffff16815260200191505060206040518083038186803b1580156149dc57600080fd5b505afa1580156149f0573d6000803e3d6000fd5b505050506040513d6020811015614a0657600080fd5b81019080805190602001909291905050501515614ad7576040517f08c379a000000000000000000000000000000000000000000000000000000000815260040180806020018281038252604e8152602001807f596f75206d757374206861766520616e2045494e206173736f6369617465642081526020017f7769746820796f757220457468657265756d206163636f756e7420746f20646581526020017f6c65746520612070726f6475637400000000000000000000000000000000000081525060600191505060405180910390fd5b6000600c60009054906101000a900473ffffffffffffffffffffffffffffffffffffffff1673ffffffffffffffffffffffffffffffffffffffff166305c62c2f336040518263ffffffff167c0100000000000000000000000000000000000000000000000000000000028152600401808273ffffffffffffffffffffffffffffffffffffffff1673ffffffffffffffffffffffffffffffffffffffff16815260200191505060206040518083038186803b158015614b9457600080fd5b505afa158015614ba8573d6000803e3d6000fd5b505050506040513d6020811015614bbe57600080fd5b81019080805190602001909291905050509050806002600084815260200190815260200160002060050154141515614c84576040517f08c379a000000000000000000000000000000000000000000000000000000000815260040180806020018281038252602b8152602001807f596f75206d75737420626520746865206f776e657220746f2064656c6574652081526020017f7468652070726f6475637400000000000000000000000000000000000000000081525060400191505060405180910390fd5b600260008381526020019081526020016000206000808201600090556001820160009055600282016000614cb8919061551a565b600382016000614cc8919061551a565b600482016000905560058201600090556006820160006101000a81549073ffffffffffffffffffffffffffffffffffffffff02191690556007820160009055600882016000614d17919061551a565b600982016000614d279190615562565b600a82016000614d379190615562565b600b820160009055505060008090505b60058054905081101561523e5782600582815481101515614d6457fe5b90600052602060002090600c020160000154141561523157614d846153ca565b6005600160058054905003815481101515614d9b57fe5b90600052602060002090600c020161018060405190810160405290816000820154815260200160018201548152602001600282018054600181600116156101000203166002900480601f016020809104026020016040519081016040528092919081815260200182805460018160011615610100020316600290048015614e635780601f10614e3857610100808354040283529160200191614e63565b820191906000526020600020905b815481529060010190602001808311614e4657829003601f168201915b50505050508152602001600382018054600181600116156101000203166002900480601f016020809104026020016040519081016040528092919081815260200182805460018160011615610100020316600290048015614f055780601f10614eda57610100808354040283529160200191614f05565b820191906000526020600020905b815481529060010190602001808311614ee857829003601f168201915b5050505050815260200160048201548152602001600582015481526020016006820160009054906101000a900473ffffffffffffffffffffffffffffffffffffffff1673ffffffffffffffffffffffffffffffffffffffff1673ffffffffffffffffffffffffffffffffffffffff16815260200160078201548152602001600882018054600181600116156101000203166002900480601f01602080910402602001604051908101604052809291908181526020018280546001816001161561010002031660029004801561501b5780601f10614ff05761010080835404028352916020019161501b565b820191906000526020600020905b815481529060010190602001808311614ffe57829003601f168201915b505050505081526020016009820180548060200260200160405190810160405280929190818152602001828054801561507357602002820191906000526020600020905b81548152602001906001019080831161505f575b50505050508152602001600a82018054806020026020016040519081016040528092919081815260200182805480156150cb57602002820191906000526020600020905b8154815260200190600101908083116150b7575b50505050508152602001600b820154815250509050806005838154811015156150f057fe5b90600052602060002090600c02016000820151816000015560208201518160010155604082015181600201908051906020019061512e9291906152cb565b50606082015181600301908051906020019061514b9291906152cb565b506080820151816004015560a0820151816005015560c08201518160060160006101000a81548173ffffffffffffffffffffffffffffffffffffffff021916908373ffffffffffffffffffffffffffffffffffffffff16021790555060e082015181600701556101008201518160080190805190602001906151ce9291906152cb565b506101208201518160090190805190602001906151ec92919061534b565b5061014082015181600a01908051906020019061520a92919061534b565b5061016082015181600b0155905050600580548091906001900361522e9190615583565b50505b8080600101915050614d47565b505050565b600b60009054906101000a900473ffffffffffffffffffffffffffffffffffffffff1681565b60006002600083815260200190815260200160002060060160009054906101000a900473ffffffffffffffffffffffffffffffffffffffff169050919050565b6060604051908101604052806000815260200160608152602001606081525090565b828054600181600116156101000203166002900490600052602060002090601f016020900481019282601f1061530c57805160ff191683800117855561533a565b8280016001018555821561533a579182015b8281111561533957825182559160200191906001019061531e565b5b50905061534791906155b5565b5090565b828054828255906000526020600020908101928215615387579160200282015b8281111561538657825182559160200191906001019061536b565b5b50905061539491906155da565b5090565b8154818355818111156153c5576003028160030283600052602060002091820191016153c491906155ff565b5b505050565b61018060405190810160405280600081526020016000801916815260200160608152602001606081526020016000815260200160008152602001600073ffffffffffffffffffffffffffffffffffffffff16815260200160008152602001606081526020016060815260200160608152602001600081525090565b60e060405190810160405280606081526020016060815260200160008019168152602001600080191681526020016000815260200160008019168152602001600081525090565b610100604051908101604052806000815260200160008152602001600081526020016000815260200160008152602001600073ffffffffffffffffffffffffffffffffffffffff16815260200160608152602001600081525090565b815481835581811115615515576008028160080283600052602060002091820191016155149190615646565b5b505050565b50805460018160011615610100020316600290046000825580601f10615540575061555f565b601f01602090049060005260206000209081019061555e91906155b5565b5b50565b508054600082559060005260206000209081019061558091906155da565b50565b8154818355818111156155b057600c0281600c0283600052602060002091820191016155af91906156cc565b5b505050565b6155d791905b808211156155d35760008160009055506001016155bb565b5090565b90565b6155fc91905b808211156155f85760008160009055506001016155e0565b5090565b90565b61564391905b8082111561563f57600080820160009055600182016000615626919061551a565b6002820160006156369190615562565b50600301615605565b5090565b90565b6156c991905b808211156156c55760008082016000905560018201600090556002820160009055600382016000905560048201600090556005820160006101000a81549073ffffffffffffffffffffffffffffffffffffffff02191690556006820160006156b4919061551a565b60078201600090555060080161564c565b5090565b90565b61578f91905b8082111561578b5760008082016000905560018201600090556002820160006156fb919061551a565b60038201600061570b919061551a565b600482016000905560058201600090556006820160006101000a81549073ffffffffffffffffffffffffffffffffffffffff0219169055600782016000905560088201600061575a919061551a565b60098201600061576a9190615562565b600a8201600061577a9190615562565b600b82016000905550600c016156d2565b5090565b9056fea165627a7a72305820624ea87d6345f5b8609a0e615cf51538b5ac2b815413be458f52de546c8088f00029",
  "source": "pragma solidity ^0.5.0;\r\n\r\ninterface HydroTokenTestnetInterface {\r\n    function transfer(address _to, uint256 _amount) external returns (bool success);\r\n    function transferFrom(address _from, address _to, uint256 _amount) external returns (bool success);\r\n    function doTransfer(address _from, address _to, uint _amount) external;\r\n    function balanceOf(address _owner) external view returns (uint256 balance);\r\n    function approve(address _spender, uint256 _amount) external returns (bool success);\r\n    function approveAndCall(address _spender, uint256 _value, bytes calldata _extraData) external returns (bool success);\r\n    function burn(uint256 _value) external;\r\n    function allowance(address _owner, address _spender) external view returns (uint256 remaining);\r\n    function totalSupply() external view returns (uint);\r\n    function setRaindropAddress(address _raindrop) external;\r\n    function authenticate(uint _value, uint _challenge, uint _partnerId) external;\r\n    function setBalances(address[] calldata _addressList, uint[] calldata _amounts) external;\r\n    function getMoreTokens() external;\r\n}\r\n\r\ninterface IdentityRegistryInterface {\r\n    function isSigned(address _address, bytes32 messageHash, uint8 v, bytes32 r, bytes32 s)\r\n        external pure returns (bool);\r\n    function identityExists(uint ein) external view returns (bool);\r\n    function hasIdentity(address _address) external view returns (bool);\r\n    function getEIN(address _address) external view returns (uint ein);\r\n    function isAssociatedAddressFor(uint ein, address _address) external view returns (bool);\r\n    function isProviderFor(uint ein, address provider) external view returns (bool);\r\n    function isResolverFor(uint ein, address resolver) external view returns (bool);\r\n    function getIdentity(uint ein) external view returns (\r\n        address recoveryAddress,\r\n        address[] memory associatedAddresses, address[] memory providers, address[] memory resolvers\r\n    );\r\n    function createIdentity(address recoveryAddress, address[] calldata providers, address[] calldata resolvers)\r\n        external returns (uint ein);\r\n    function createIdentityDelegated(\r\n        address recoveryAddress, address associatedAddress, address[] calldata providers, address[] calldata resolvers,\r\n        uint8 v, bytes32 r, bytes32 s, uint timestamp\r\n    ) external returns (uint ein);\r\n    function addAssociatedAddress(\r\n        address approvingAddress, address addressToAdd, uint8 v, bytes32 r, bytes32 s, uint timestamp\r\n    ) external;\r\n    function addAssociatedAddressDelegated(\r\n        address approvingAddress, address addressToAdd,\r\n        uint8[2] calldata v, bytes32[2] calldata r, bytes32[2] calldata s, uint[2] calldata timestamp\r\n    ) external;\r\n    function removeAssociatedAddress() external;\r\n    function removeAssociatedAddressDelegated(address addressToRemove, uint8 v, bytes32 r, bytes32 s, uint timestamp)\r\n        external;\r\n    function addProviders(address[] calldata providers) external;\r\n    function addProvidersFor(uint ein, address[] calldata providers) external;\r\n    function removeProviders(address[] calldata providers) external;\r\n    function removeProvidersFor(uint ein, address[] calldata providers) external;\r\n    function addResolvers(address[] calldata resolvers) external;\r\n    function addResolversFor(uint ein, address[] calldata resolvers) external;\r\n    function removeResolvers(address[] calldata resolvers) external;\r\n    function removeResolversFor(uint ein, address[] calldata resolvers) external;\r\n    function triggerRecoveryAddressChange(address newRecoveryAddress) external;\r\n    function triggerRecoveryAddressChangeFor(uint ein, address newRecoveryAddress) external;\r\n    function triggerRecovery(uint ein, address newAssociatedAddress, uint8 v, bytes32 r, bytes32 s, uint timestamp)\r\n        external;\r\n    function triggerDestruction(\r\n        uint ein, address[] calldata firstChunk, address[] calldata lastChunk, bool resetResolvers\r\n    ) external;\r\n}\r\n\r\ncontract Dispute {\r\n    event DisputeGenerated(uint256 indexed id, uint256 indexed orderId, string reason);\r\n\r\n    struct DisputeItem {\r\n        uint256 id;\r\n        uint256 orderId;\r\n        uint256 createdAt;\r\n        address refundReceiver;\r\n        string reason;\r\n        string counterReason;\r\n        bytes32 state; // Either pending, countered or resolved. Where pending indicates \"waiting for the seller to respond\", countered means \"the seller has responded\" and resolved is \"the dispute has been resolved\"\r\n    }\r\n    struct Product {\r\n        uint256 id;\r\n        bytes32 sku;\r\n        string title;\r\n        string description;\r\n        uint256 date;\r\n        uint256 einOwner; // EIN owner\r\n        address owner;\r\n        uint256 price;\r\n        string image;\r\n        bytes32[] attributes;\r\n        bytes32[] attributeValues;\r\n        uint256 quantity;\r\n    }\r\n    struct Order {\r\n        uint256 id; // Unique order ID\r\n        uint256 addressId;\r\n        uint256 productId;\r\n        uint256 date;\r\n        uint256 buyer; // EIN buyer\r\n        address addressBuyer;\r\n        string state; // Either 'pending', 'completed'\r\n        uint256 barcode;\r\n    }\r\n\r\n    // DisputeItem id => dispute struct\r\n    mapping(uint256 => DisputeItem) public disputeById;\r\n    DisputeItem[] public disputes;\r\n    Store public store;\r\n    address[] public operators;\r\n    address public owner;\r\n\r\n    modifier onlyOperator {\r\n        require(operatorExists(msg.sender), 'Only a valid operator can run this function');\r\n        _;\r\n    }\r\n\r\n    /// @notice To setup the store address\r\n    /// @param _store The address of the store contract that will be used in this contract\r\n    constructor(address _store) public {\r\n        store = Store(_store);\r\n        owner = msg.sender;\r\n        operators.push(msg.sender);\r\n    }\r\n\r\n    /// @notice To dispute an order for the specified reason as a buyer\r\n    /// @param _id The order id to dispute\r\n    /// @param _reason The string indicating why the buyer is disputing this order\r\n    function disputeOrder(uint256 _id, string memory _reason) public {\r\n        require(bytes(_reason).length > 0, 'The reason for disputing the order cannot be empty');\r\n        (uint256 id, uint256 addressId, uint256 productId, uint256 date, uint256 buyer, address addressBuyer, string memory state, uint256 barcode) = store.orderById(_id);\r\n        Order memory order = Order(id, addressId, productId, date, buyer, addressBuyer, state, barcode);\r\n        uint256 ein = IdentityRegistryInterface(store.identityRegistry()).getEIN(msg.sender);\r\n        require(order.buyer == ein, 'Only the buyer can dispute his order');\r\n        uint256 disputeId = disputes.length;\r\n        DisputeItem memory d = DisputeItem(disputeId, _id, now, msg.sender, _reason, '', 'pending');\r\n        disputes.push(d);\r\n        disputeById[disputeId] = d;\r\n        emit DisputeGenerated(disputeId, _id, _reason);\r\n    }\r\n\r\n    /// @notice To respond to a dispute as a seller\r\n    /// @param _disputeId The id of the dispute to respond to\r\n    /// @param _counterReason The reason for countering the argument of the buyer\r\n    function counterDispute(uint256 _disputeId, string memory _counterReason) public {\r\n        require(bytes(_counterReason).length > 0, 'The counter reason must be set');\r\n        DisputeItem memory d = disputeById[_disputeId];\r\n        (uint256 id, uint256 addressId, uint256 productId, uint256 date, uint256 buyer, address addressBuyer, string memory state, uint256 barcode) = store.orderById(d.orderId);\r\n        Order memory order = Order(id, addressId, productId, date, buyer, addressBuyer, state, barcode);\r\n\r\n        uint256 ein = IdentityRegistryInterface(store.identityRegistry()).getEIN(msg.sender);\r\n        require(store.getProductEinOwner(order.productId) == ein, 'Only the seller can counter dispute this order');\r\n        d.counterReason = _counterReason;\r\n        d.state = 'countered';\r\n        disputeById[_disputeId] = d;\r\n        for(uint256 i = 0; i < disputes.length; i++) {\r\n            if(disputes[i].id == _disputeId) {\r\n                disputes[i] = d;\r\n                break;\r\n            }\r\n        }\r\n    }\r\n\r\n    /// @notice To resolve a dispute and pay the buyer from the seller's approved balance\r\n    /// @param _disputeId The id of the dispute to resolve\r\n    /// @param _isBuyerWinner If the winner is the buyer or not to perform the transfer\r\n    function resolveDispute(uint256 _disputeId, bool _isBuyerWinner) public onlyOperator {\r\n        DisputeItem memory d = disputeById[_disputeId];\r\n        (uint256 id, uint256 addressId, uint256 productId, uint256 date, uint256 buyer, address addressBuyer, string memory state, uint256 barcode) = store.orderById(d.orderId);\r\n\r\n        if(_isBuyerWinner) {\r\n            // Pay the product price to the buyer as a refund\r\n            HydroTokenTestnetInterface(store.token()).transferFrom(store.getProductOwner(productId), addressBuyer, store.getProductPrice(productId));\r\n        }\r\n    }\r\n\r\n    /// @notice To add or delete operators by the owner\r\n    /// @param _user A valid address to add or remove from the list of operators\r\n    /// @param _isRemoved Whether you want to add or remove this operator\r\n    function setOperator(address _user, bool _isRemoved) public {\r\n        require(msg.sender == owner, 'Only the owner can add operators');\r\n        if(_isRemoved) {\r\n            for(uint256 i = 0; i < operators.length; i++) {\r\n                if(operators[i] == _user) {\r\n                    address lastElement = operators[operators.length - 1];\r\n                    operators[i] = lastElement;\r\n                    operators.length--;\r\n                }\r\n            }\r\n        } else {\r\n            operators.push(_user);\r\n        }\r\n    }\r\n\r\n    /// @notice To check if an operator exists\r\n    /// @param _operator The address of the operator to check\r\n    /// @return bool Whether he's a valid operator or not\r\n    function operatorExists(address _operator) internal view returns(bool) {\r\n        for(uint256 i = 0; i < operators.length; i++) {\r\n            if(_operator == operators[i]) {\r\n                return true;\r\n            }\r\n        }\r\n        return false;\r\n    }\r\n}\r\n\r\n\r\ncontract Store {\r\n    struct Product {\r\n        uint256 id;\r\n        bytes32 sku;\r\n        string title;\r\n        string description;\r\n        uint256 date;\r\n        uint256 einOwner; // EIN owner\r\n        address owner;\r\n        uint256 price;\r\n        string image;\r\n        bytes32[] attributes;\r\n        bytes32[] attributeValues;\r\n        uint256 quantity;\r\n    }\r\n    struct Order {\r\n        uint256 id; // Unique order ID\r\n        uint256 addressId;\r\n        uint256 productId;\r\n        uint256 date;\r\n        uint256 buyer; // EIN buyer\r\n        address addressBuyer;\r\n        string state; // Either 'pending', 'completed'\r\n        uint256 barcode;\r\n    }\r\n    struct Address {\r\n        string nameSurname;\r\n        string direction;\r\n        bytes32 city;\r\n        bytes32 stateRegion;\r\n        uint256 postalCode;\r\n        bytes32 country;\r\n        uint256 phone;\r\n    }\r\n    struct Inventory {\r\n        uint256 id;\r\n        string name;\r\n        bytes32[] skus;\r\n    }\r\n\r\n    // Seller ein => orders\r\n    mapping(uint256 => Order[]) public pendingOrders; // The products waiting to be fulfilled\r\n    // Buyer ein => orders\r\n    mapping(uint256 => Order[]) public completedOrders;\r\n    // Product id => product\r\n    mapping(uint256 => Product) public productById;\r\n    // Order id => order struct\r\n    mapping(uint256 => Order) public orderById;\r\n    // Id => address\r\n    mapping(uint256 => Address) public addressById;\r\n    Product[] public products;\r\n    Inventory[] public inventories;\r\n    address public owner;\r\n    uint256 public lastId;\r\n    uint256 public lastOrderId;\r\n    uint256 public lastAddressId;\r\n    address public token;\r\n    address public identityRegistry;\r\n\r\n    /// @notice To setup the address of the ERC-721 token to use for this contract\r\n    /// @param _token The token address\r\n    constructor(address _token, address _identityRegistry) public {\r\n        owner = msg.sender;\r\n        token = _token;\r\n        identityRegistry = _identityRegistry;\r\n    }\r\n\r\n    /// @notice To publish a product as a seller\r\n    /// @param _title The title of the product\r\n    /// @param _description The description of the product\r\n    /// @param _price The price of the product in ETH\r\n    /// @param _image The image URL of the product\r\n    function publishProduct(string memory _title, bytes32 _sku, string memory _description, uint256 _price, string memory _image, bytes32[] memory _attributes, bytes32[] memory _attributeValues, uint256 _quantity) public {\r\n        require(bytes(_title).length > 0, 'The title cannot be empty');\r\n        require(bytes(_description).length > 0, 'The description cannot be empty');\r\n        require(_price > 0, 'The price cannot be empty');\r\n        require(bytes(_image).length > 0, 'The image cannot be empty');\r\n        require(IdentityRegistryInterface(identityRegistry).hasIdentity(msg.sender), 'You must have an EIN associated with your Ethereum account to add a product');\r\n\r\n        Product memory p = Product(lastId, _sku, _title, _description, now, IdentityRegistryInterface(identityRegistry).getEIN(msg.sender), msg.sender, _price, _image, _attributes, _attributeValues, _quantity);\r\n        products.push(p);\r\n        productById[lastId] = p;\r\n        lastId++;\r\n    }\r\n\r\n    /// @notice To create an inventory in which to store product skus\r\n    /// @param _name The name of the inventory\r\n    /// @param _skus The array of skus to add to the inventory\r\n    function createInventory(string memory _name, bytes32[] memory _skus) public {\r\n        require(bytes(_name).length > 0, 'The name must be set');\r\n        require(_skus.length > 0, 'There must be at least one sku for this inventory');\r\n        Inventory memory inv = Inventory(inventories.length, _name, _skus);\r\n        inventories.push(inv);\r\n    }\r\n\r\n    /// @notice To delete an inventory by id\r\n    /// @param _id The id of the inventory to delete\r\n    function deleteInventory(uint256 _id) public {\r\n        // Delete the inventory from the array of inventories\r\n        for(uint256 i = 0; i < inventories.length; i++) {\r\n            if(inventories[i].id == _id) {\r\n                Inventory memory lastElement = inventories[inventories.length - 1];\r\n                inventories[i] = lastElement;\r\n                inventories.length--;\r\n            }\r\n        }\r\n    }\r\n\r\n    /// @notice To buy a new product, note that the seller must authorize this contract to manage the token\r\n    /// @param _id The id of the product to buy\r\n    /// @param _nameSurname The name and surname of the buyer\r\n    /// @param _lineOneDirection The first line for the user address\r\n    /// @param _lineTwoDirection The second, optional user address line\r\n    /// @param _city Buyer's city\r\n    /// @param _stateRegion The state or region where the buyer lives\r\n    /// @param _postalCode The postal code of his location\r\n    /// @param _country Buyer's country\r\n    /// @param _phone The optional phone number for the shipping company\r\n    /// The payment in HYDRO is made automatically by making a transferFrom after approving the right amount of tokens using the product price\r\n    function buyProduct(uint256 _id, string memory _nameSurname, string memory _direction, bytes32 _city, bytes32 _stateRegion, uint256 _postalCode, bytes32 _country, uint256 _phone, uint256 _barcode) public {\r\n        // The line 2 address and phone are optional, the rest are mandatory\r\n        require(bytes(_nameSurname).length > 0, 'The name and surname must be set');\r\n        require(bytes(_direction).length > 0, 'The line one direction must be set');\r\n        require(_city.length > 0, 'The city must be set');\r\n        require(_stateRegion.length > 0, 'The state or region must be set');\r\n        require(_postalCode > 0, 'The postal code must be set');\r\n        require(_country > 0, 'The country must be set');\r\n        require(IdentityRegistryInterface(identityRegistry).hasIdentity(msg.sender), 'You must have an EIN associated with your Ethereum account to purchase the product');\r\n\r\n        uint256 ein = IdentityRegistryInterface(identityRegistry).getEIN(msg.sender);\r\n        Product memory p = productById[_id];\r\n        require(bytes(p.title).length > 0, 'The product must exist to be purchased');\r\n        require(HydroTokenTestnetInterface(token).allowance(msg.sender, address(this)) >= p.price, 'You must have enough HYDRO tokens approved to purchase this product');\r\n        Address memory newAddress = Address(_nameSurname, _direction, _city, _stateRegion, _postalCode, _country, _phone);\r\n        Order memory newOrder = Order(lastOrderId, lastAddressId, _id, now, ein, msg.sender, 'pending', _barcode);\r\n\r\n        // Update the quantity of remaining products\r\n        if(p.quantity > 0) {\r\n            p.quantity--;\r\n            productById[_id] = p;\r\n        }\r\n\r\n        pendingOrders[ein].push(newOrder);\r\n        orderById[_id] = newOrder;\r\n        addressById[lastAddressId] = newAddress;\r\n        HydroTokenTestnetInterface(token).transferFrom(msg.sender, p.owner, p.price); // Pay the product price to the seller\r\n        lastOrderId++;\r\n        lastAddressId++;\r\n    }\r\n\r\n    /// @notice To mark an order as completed\r\n    /// @param _id The id of the order to mark as sent and completed\r\n    function markOrderCompleted(uint256 _id) public {\r\n        Order memory order = orderById[_id];\r\n        Product memory product = productById[order.productId];\r\n        require(IdentityRegistryInterface(identityRegistry).hasIdentity(msg.sender), 'You must have an EIN associated with your Ethereum account to mark the order as completed');\r\n        uint256 ein = IdentityRegistryInterface(identityRegistry).getEIN(msg.sender);\r\n        require(product.einOwner == ein, 'Only the seller can mark the order as completed');\r\n        order.state = 'completed';\r\n\r\n        // Delete the seller order from the array of pending orders\r\n        for(uint256 i = 0; i < pendingOrders[product.einOwner].length; i++) {\r\n            if(pendingOrders[product.einOwner][i].id == _id) {\r\n                Order memory lastElement = orderById[pendingOrders[product.einOwner].length - 1];\r\n                pendingOrders[product.einOwner][i] = lastElement;\r\n                pendingOrders[product.einOwner].length--;\r\n            }\r\n        }\r\n\r\n        completedOrders[order.buyer].push(order);\r\n        orderById[_id] = order;\r\n    }\r\n\r\n    /// @notice To delete a product\r\n    /// @param _id The id of the product to delete\r\n    function deleteProduct(uint256 _id) public {\r\n        require(IdentityRegistryInterface(identityRegistry).hasIdentity(msg.sender), 'You must have an EIN associated with your Ethereum account to delete a product');\r\n        uint256 ein = IdentityRegistryInterface(identityRegistry).getEIN(msg.sender);\r\n        require(productById[_id].einOwner == ein, 'You must be the owner to delete the product');\r\n        delete productById[_id];\r\n        // Delete the product from the array of products since we only want to purchase one product per order\r\n        for(uint256 i = 0; i < products.length; i++) {\r\n            if(products[i].id == _id) {\r\n                Product memory lastElement = products[products.length - 1];\r\n                products[i] = lastElement;\r\n                products.length--;\r\n            }\r\n        }\r\n    }\r\n\r\n    /// @notice Returns the product length\r\n    /// @return uint256 The number of products\r\n    function getProductsLength() public view returns(uint256) {\r\n        return products.length;\r\n    }\r\n\r\n    /// @notice To get the pending seller or buyer orders\r\n    /// @param _type If you want to get the pending seller, buyer or completed orders\r\n    /// @param _einOwner The EIN of the owner of those orders\r\n    /// @return uint256 The number of orders to get\r\n    function getOrdersLength(bytes32 _type, uint256 _einOwner) public view returns(uint256) {\r\n        if(_type == 'pending') return pendingOrders[_einOwner].length;\r\n        else if(_type == 'completed') return completedOrders[_einOwner].length;\r\n    }\r\n\r\n    /// @notice To get the ein owner of a product for the dispute contract\r\n    /// @param _id The id of the product\r\n    /// @return Returns the ein owner\r\n    function getProductEinOwner(uint256 _id) public view returns(uint256) {\r\n        return productById[_id].einOwner;\r\n    }\r\n\r\n    /// @notice To get the address owner of a product for the dispute contract\r\n    /// @param _id The id of the product\r\n    /// @return Returns the address\r\n    function getProductOwner(uint256 _id) public view returns(address) {\r\n        return productById[_id].owner;\r\n    }\r\n\r\n    /// @notice To get the price of a product for the dispute contract\r\n    /// @param _id The id of the product\r\n    /// @return Returns the price\r\n    function getProductPrice(uint256 _id) public view returns(uint256) {\r\n        return productById[_id].price;\r\n    }\r\n}\r\n",
  "sourcePath": "C:/Users/merun/Desktop/ethereum-store/contracts/Store.sol",
  "compiler": {
    "name": "solc",
    "version": "0.5.0+commit.1d4f565a.Emscripten.clang"
  },
  "schemaVersion": "3.0.5",
  "updatedAt": "2019-05-08T16:43:09.424Z",
  "devdoc": {
    "methods": {
      "constructor": {
        "params": {
          "_token": "The token address"
        }
      },
      "createInventory(string,bytes32[])": {
        "params": {
          "_skus": "The array of skus to add to the inventory"
        }
      },
      "deleteInventory(uint256)": {
        "params": {
          "_id": "The id of the inventory to delete"
        }
      },
      "deleteProduct(uint256)": {
        "params": {
          "_id": "The id of the product to delete"
        }
      },
      "getOrdersLength(bytes32,uint256)": {
        "return": "uint256 The number of orders to get"
      },
      "getProductEinOwner(uint256)": {
        "return": "Returns the ein owner"
      },
      "getProductOwner(uint256)": {
        "return": "Returns the address"
      },
      "getProductPrice(uint256)": {
        "return": "Returns the price"
      },
      "getProductsLength()": {
        "return": "uint256 The number of products"
      },
      "markOrderCompleted(uint256)": {
        "params": {
          "_id": "The id of the order to mark as sent and completed"
        }
      },
      "publishProduct(string,bytes32,string,uint256,string,bytes32[],bytes32[],uint256)": {
        "params": {
          "_image": "The image URL of the product"
        }
      }
    }
  },
  "userdoc": {
    "methods": {
      "buyProduct(uint256,string,string,bytes32,bytes32,uint256,bytes32,uint256,uint256)": {
        "notice": "The payment in HYDRO is made automatically by making a transferFrom after approving the right amount of tokens using the product price"
      }
    }
  }
}