{
  "contractName": "Store",
  "abi": [
    {
      "constant": true,
      "inputs": [],
      "name": "lastAddressId",
      "outputs": [
        {
          "name": "",
          "type": "uint256"
        }
      ],
      "payable": false,
      "stateMutability": "view",
      "type": "function"
    },
    {
      "constant": true,
      "inputs": [],
      "name": "identityRegistry",
      "outputs": [
        {
          "name": "",
          "type": "address"
        }
      ],
      "payable": false,
      "stateMutability": "view",
      "type": "function"
    },
    {
      "constant": true,
      "inputs": [],
      "name": "disputeContract",
      "outputs": [
        {
          "name": "",
          "type": "address"
        }
      ],
      "payable": false,
      "stateMutability": "view",
      "type": "function"
    },
    {
      "constant": true,
      "inputs": [],
      "name": "lastOrderId",
      "outputs": [
        {
          "name": "",
          "type": "uint256"
        }
      ],
      "payable": false,
      "stateMutability": "view",
      "type": "function"
    },
    {
      "constant": true,
      "inputs": [
        {
          "name": "",
          "type": "uint256"
        }
      ],
      "name": "products",
      "outputs": [
        {
          "name": "id",
          "type": "uint256"
        },
        {
          "name": "sku",
          "type": "bytes32"
        },
        {
          "name": "title",
          "type": "string"
        },
        {
          "name": "description",
          "type": "string"
        },
        {
          "name": "date",
          "type": "uint256"
        },
        {
          "name": "einOwner",
          "type": "uint256"
        },
        {
          "name": "owner",
          "type": "address"
        },
        {
          "name": "price",
          "type": "uint256"
        },
        {
          "name": "image",
          "type": "string"
        },
        {
          "name": "quantity",
          "type": "uint256"
        },
        {
          "name": "barcode",
          "type": "uint256"
        }
      ],
      "payable": false,
      "stateMutability": "view",
      "type": "function"
    },
    {
      "constant": true,
      "inputs": [
        {
          "name": "",
          "type": "uint256"
        }
      ],
      "name": "addressById",
      "outputs": [
        {
          "name": "nameSurname",
          "type": "string"
        },
        {
          "name": "direction",
          "type": "string"
        },
        {
          "name": "city",
          "type": "bytes32"
        },
        {
          "name": "stateRegion",
          "type": "bytes32"
        },
        {
          "name": "postalCode",
          "type": "uint256"
        },
        {
          "name": "country",
          "type": "bytes32"
        },
        {
          "name": "phone",
          "type": "uint256"
        }
      ],
      "payable": false,
      "stateMutability": "view",
      "type": "function"
    },
    {
      "constant": true,
      "inputs": [
        {
          "name": "",
          "type": "uint256"
        },
        {
          "name": "",
          "type": "uint256"
        }
      ],
      "name": "completedOrders",
      "outputs": [
        {
          "name": "id",
          "type": "uint256"
        },
        {
          "name": "addressId",
          "type": "uint256"
        },
        {
          "name": "productId",
          "type": "uint256"
        },
        {
          "name": "date",
          "type": "uint256"
        },
        {
          "name": "buyer",
          "type": "uint256"
        },
        {
          "name": "addressBuyer",
          "type": "address"
        },
        {
          "name": "state",
          "type": "bytes32"
        }
      ],
      "payable": false,
      "stateMutability": "view",
      "type": "function"
    },
    {
      "constant": true,
      "inputs": [
        {
          "name": "",
          "type": "uint256"
        }
      ],
      "name": "orderById",
      "outputs": [
        {
          "name": "id",
          "type": "uint256"
        },
        {
          "name": "addressId",
          "type": "uint256"
        },
        {
          "name": "productId",
          "type": "uint256"
        },
        {
          "name": "date",
          "type": "uint256"
        },
        {
          "name": "buyer",
          "type": "uint256"
        },
        {
          "name": "addressBuyer",
          "type": "address"
        },
        {
          "name": "state",
          "type": "bytes32"
        }
      ],
      "payable": false,
      "stateMutability": "view",
      "type": "function"
    },
    {
      "constant": true,
      "inputs": [],
      "name": "owner",
      "outputs": [
        {
          "name": "",
          "type": "address"
        }
      ],
      "payable": false,
      "stateMutability": "view",
      "type": "function"
    },
    {
      "constant": true,
      "inputs": [
        {
          "name": "",
          "type": "uint256"
        }
      ],
      "name": "productById",
      "outputs": [
        {
          "name": "id",
          "type": "uint256"
        },
        {
          "name": "sku",
          "type": "bytes32"
        },
        {
          "name": "title",
          "type": "string"
        },
        {
          "name": "description",
          "type": "string"
        },
        {
          "name": "date",
          "type": "uint256"
        },
        {
          "name": "einOwner",
          "type": "uint256"
        },
        {
          "name": "owner",
          "type": "address"
        },
        {
          "name": "price",
          "type": "uint256"
        },
        {
          "name": "image",
          "type": "string"
        },
        {
          "name": "quantity",
          "type": "uint256"
        },
        {
          "name": "barcode",
          "type": "uint256"
        }
      ],
      "payable": false,
      "stateMutability": "view",
      "type": "function"
    },
    {
      "constant": true,
      "inputs": [],
      "name": "lastId",
      "outputs": [
        {
          "name": "",
          "type": "uint256"
        }
      ],
      "payable": false,
      "stateMutability": "view",
      "type": "function"
    },
    {
      "constant": true,
      "inputs": [
        {
          "name": "",
          "type": "uint256"
        }
      ],
      "name": "inventories",
      "outputs": [
        {
          "name": "id",
          "type": "uint256"
        },
        {
          "name": "name",
          "type": "string"
        }
      ],
      "payable": false,
      "stateMutability": "view",
      "type": "function"
    },
    {
      "constant": true,
      "inputs": [
        {
          "name": "",
          "type": "uint256"
        },
        {
          "name": "",
          "type": "uint256"
        }
      ],
      "name": "pendingOrders",
      "outputs": [
        {
          "name": "id",
          "type": "uint256"
        },
        {
          "name": "addressId",
          "type": "uint256"
        },
        {
          "name": "productId",
          "type": "uint256"
        },
        {
          "name": "date",
          "type": "uint256"
        },
        {
          "name": "buyer",
          "type": "uint256"
        },
        {
          "name": "addressBuyer",
          "type": "address"
        },
        {
          "name": "state",
          "type": "bytes32"
        }
      ],
      "payable": false,
      "stateMutability": "view",
      "type": "function"
    },
    {
      "constant": true,
      "inputs": [],
      "name": "token",
      "outputs": [
        {
          "name": "",
          "type": "address"
        }
      ],
      "payable": false,
      "stateMutability": "view",
      "type": "function"
    },
    {
      "inputs": [
        {
          "name": "_token",
          "type": "address"
        },
        {
          "name": "_identityRegistry",
          "type": "address"
        }
      ],
      "payable": false,
      "stateMutability": "nonpayable",
      "type": "constructor"
    },
    {
      "constant": false,
      "inputs": [
        {
          "name": "_dispute",
          "type": "address"
        }
      ],
      "name": "setDisputeAddress",
      "outputs": [],
      "payable": false,
      "stateMutability": "nonpayable",
      "type": "function"
    },
    {
      "constant": false,
      "inputs": [
        {
          "name": "_title",
          "type": "string"
        },
        {
          "name": "_sku",
          "type": "bytes32"
        },
        {
          "name": "_description",
          "type": "string"
        },
        {
          "name": "_price",
          "type": "uint256"
        },
        {
          "name": "_image",
          "type": "string"
        },
        {
          "name": "_attributes",
          "type": "bytes32[]"
        },
        {
          "name": "_attributeValues",
          "type": "bytes32[]"
        },
        {
          "name": "_quantity",
          "type": "uint256"
        },
        {
          "name": "_barcode",
          "type": "uint256"
        }
      ],
      "name": "publishProduct",
      "outputs": [],
      "payable": false,
      "stateMutability": "nonpayable",
      "type": "function"
    },
    {
      "constant": false,
      "inputs": [
        {
          "name": "_name",
          "type": "string"
        },
        {
          "name": "_skus",
          "type": "bytes32[]"
        }
      ],
      "name": "createInventory",
      "outputs": [],
      "payable": false,
      "stateMutability": "nonpayable",
      "type": "function"
    },
    {
      "constant": false,
      "inputs": [
        {
          "name": "_id",
          "type": "uint256"
        },
        {
          "name": "_nameSurname",
          "type": "string"
        },
        {
          "name": "_direction",
          "type": "string"
        },
        {
          "name": "_city",
          "type": "bytes32"
        },
        {
          "name": "_stateRegion",
          "type": "bytes32"
        },
        {
          "name": "_postalCode",
          "type": "uint256"
        },
        {
          "name": "_country",
          "type": "bytes32"
        },
        {
          "name": "_phone",
          "type": "uint256"
        }
      ],
      "name": "buyProduct",
      "outputs": [],
      "payable": false,
      "stateMutability": "nonpayable",
      "type": "function"
    },
    {
      "constant": false,
      "inputs": [
        {
          "name": "_orderId",
          "type": "uint256"
        }
      ],
      "name": "receivePayment",
      "outputs": [],
      "payable": false,
      "stateMutability": "nonpayable",
      "type": "function"
    },
    {
      "constant": false,
      "inputs": [
        {
          "name": "_id",
          "type": "uint256"
        }
      ],
      "name": "markOrderSent",
      "outputs": [],
      "payable": false,
      "stateMutability": "nonpayable",
      "type": "function"
    },
    {
      "constant": true,
      "inputs": [
        {
          "name": "_id",
          "type": "uint256"
        }
      ],
      "name": "getProductEinOwner",
      "outputs": [
        {
          "name": "",
          "type": "uint256"
        }
      ],
      "payable": false,
      "stateMutability": "view",
      "type": "function"
    },
    {
      "constant": true,
      "inputs": [
        {
          "name": "_id",
          "type": "uint256"
        }
      ],
      "name": "getProductPrice",
      "outputs": [
        {
          "name": "",
          "type": "uint256"
        }
      ],
      "payable": false,
      "stateMutability": "view",
      "type": "function"
    }
  ],
  "bytecode": "0x608060405234801561001057600080fd5b506040516040806200542a8339810180604052604081101561003157600080fd5b81019080805190602001909291908051906020019092919050505033600760006101000a81548173ffffffffffffffffffffffffffffffffffffffff021916908373ffffffffffffffffffffffffffffffffffffffff16021790555081600b60006101000a81548173ffffffffffffffffffffffffffffffffffffffff021916908373ffffffffffffffffffffffffffffffffffffffff16021790555080600c60006101000a81548173ffffffffffffffffffffffffffffffffffffffff021916908373ffffffffffffffffffffffffffffffffffffffff160217905550505061530980620001216000396000f3fe608060405260043610610128576000357c0100000000000000000000000000000000000000000000000000000000900463ffffffff16806310c84b4d1461012d578063119a6fe7146102c9578063134e18f4146102f4578063210a7cfb1461034b578063292a0493146103865780634010b84e146106cd5780635662ecc7146107245780637acc0b201461074f57806387d3a0241461093f5780638cb0fe2714610a825780638d77eba514610b315780638da5cb5b14610bd65780639b90457614610c2d5780639dd162b514610c7e578063a30b475f14610dda578063a9a9243014610fca578063c1292cc314611019578063cd78ba0114611044578063e2eab483146110ff578063e4c0bc9b1461113a578063e7bf7dfc146111e9578063fc0c546a14611238575b600080fd5b34801561013957600080fd5b506102c7600480360361010081101561015157600080fd5b81019080803590602001909291908035906020019064010000000081111561017857600080fd5b82018360208201111561018a57600080fd5b803590602001918460018302840111640100000000831117156101ac57600080fd5b91908080601f016020809104026020016040519081016040528093929190818152602001838380828437600081840152601f19601f8201169050808301925050505050505091929192908035906020019064010000000081111561020f57600080fd5b82018360208201111561022157600080fd5b8035906020019184600183028401116401000000008311171561024357600080fd5b91908080601f016020809104026020016040519081016040528093929190818152602001838380828437600081840152601f19601f820116905080830192505050505050509192919290803590602001909291908035906020019092919080359060200190929190803590602001909291908035906020019092919050505061128f565b005b3480156102d557600080fd5b506102de61264e565b6040518082815260200191505060405180910390f35b34801561030057600080fd5b50610309612654565b604051808273ffffffffffffffffffffffffffffffffffffffff1673ffffffffffffffffffffffffffffffffffffffff16815260200191505060405180910390f35b34801561035757600080fd5b506103846004803603602081101561036e57600080fd5b810190808035906020019092919050505061267a565b005b34801561039257600080fd5b506106cb60048036036101208110156103aa57600080fd5b81019080803590602001906401000000008111156103c757600080fd5b8201836020820111156103d957600080fd5b803590602001918460018302840111640100000000831117156103fb57600080fd5b91908080601f016020809104026020016040519081016040528093929190818152602001838380828437600081840152601f19601f820116905080830192505050505050509192919290803590602001909291908035906020019064010000000081111561046857600080fd5b82018360208201111561047a57600080fd5b8035906020019184600183028401116401000000008311171561049c57600080fd5b91908080601f016020809104026020016040519081016040528093929190818152602001838380828437600081840152601f19601f820116905080830192505050505050509192919290803590602001909291908035906020019064010000000081111561050957600080fd5b82018360208201111561051b57600080fd5b8035906020019184600183028401116401000000008311171561053d57600080fd5b91908080601f016020809104026020016040519081016040528093929190818152602001838380828437600081840152601f19601f820116905080830192505050505050509192919290803590602001906401000000008111156105a057600080fd5b8201836020820111156105b257600080fd5b803590602001918460208302840111640100000000831117156105d457600080fd5b919080806020026020016040519081016040528093929190818152602001838360200280828437600081840152601f19601f8201169050808301925050505050505091929192908035906020019064010000000081111561063457600080fd5b82018360208201111561064657600080fd5b8035906020019184602083028401116401000000008311171561066857600080fd5b919080806020026020016040519081016040528093929190818152602001838360200280828437600081840152601f19601f8201169050808301925050505050505091929192908035906020019092919080359060200190929190505050612eb0565b005b3480156106d957600080fd5b506106e2613667565b604051808273ffffffffffffffffffffffffffffffffffffffff1673ffffffffffffffffffffffffffffffffffffffff16815260200191505060405180910390f35b34801561073057600080fd5b5061073961368d565b6040518082815260200191505060405180910390f35b34801561075b57600080fd5b506107886004803603602081101561077257600080fd5b8101908080359060200190929190505050613693565b604051808c81526020018b815260200180602001806020018a81526020018981526020018873ffffffffffffffffffffffffffffffffffffffff1673ffffffffffffffffffffffffffffffffffffffff1681526020018781526020018060200186815260200185815260200184810384528d818151815260200191508051906020019080838360005b8381101561082c578082015181840152602081019050610811565b50505050905090810190601f1680156108595780820380516001836020036101000a031916815260200191505b5084810383528c818151815260200191508051906020019080838360005b83811015610892578082015181840152602081019050610877565b50505050905090810190601f1680156108bf5780820380516001836020036101000a031916815260200191505b50848103825287818151815260200191508051906020019080838360005b838110156108f85780820151818401526020810190506108dd565b50505050905090810190601f1680156109255780820380516001836020036101000a031916815260200191505b509e50505050505050505050505050505060405180910390f35b34801561094b57600080fd5b506109786004803603602081101561096257600080fd5b81019080803590602001909291905050506138e4565b60405180806020018060200188815260200187815260200186815260200185815260200184815260200183810383528a818151815260200191508051906020019080838360005b838110156109da5780820151818401526020810190506109bf565b50505050905090810190601f168015610a075780820380516001836020036101000a031916815260200191505b50838103825289818151815260200191508051906020019080838360005b83811015610a40578082015181840152602081019050610a25565b50505050905090810190601f168015610a6d5780820380516001836020036101000a031916815260200191505b50995050505050505050505060405180910390f35b348015610a8e57600080fd5b50610ac560048036036040811015610aa557600080fd5b810190808035906020019092919080359060200190929190505050613a56565b604051808881526020018781526020018681526020018581526020018481526020018373ffffffffffffffffffffffffffffffffffffffff1673ffffffffffffffffffffffffffffffffffffffff16815260200182815260200197505050505050505060405180910390f35b348015610b3d57600080fd5b50610b6a60048036036020811015610b5457600080fd5b8101908080359060200190929190505050613ad4565b604051808881526020018781526020018681526020018581526020018481526020018373ffffffffffffffffffffffffffffffffffffffff1673ffffffffffffffffffffffffffffffffffffffff16815260200182815260200197505050505050505060405180910390f35b348015610be257600080fd5b50610beb613b36565b604051808273ffffffffffffffffffffffffffffffffffffffff1673ffffffffffffffffffffffffffffffffffffffff16815260200191505060405180910390f35b348015610c3957600080fd5b50610c7c60048036036020811015610c5057600080fd5b81019080803573ffffffffffffffffffffffffffffffffffffffff169060200190929190505050613b5c565b005b348015610c8a57600080fd5b50610dd860048036036040811015610ca157600080fd5b8101908080359060200190640100000000811115610cbe57600080fd5b820183602082011115610cd057600080fd5b80359060200191846001830284011164010000000083111715610cf257600080fd5b91908080601f016020809104026020016040519081016040528093929190818152602001838380828437600081840152601f19601f82011690508083019250505050505050919291929080359060200190640100000000811115610d5557600080fd5b820183602082011115610d6757600080fd5b80359060200191846020830284011164010000000083111715610d8957600080fd5b919080806020026020016040519081016040528093929190818152602001838360200280828437600081840152601f19601f820116905080830192505050505050509192919290505050613e42565b005b348015610de657600080fd5b50610e1360048036036020811015610dfd57600080fd5b8101908080359060200190929190505050613fff565b604051808c81526020018b815260200180602001806020018a81526020018981526020018873ffffffffffffffffffffffffffffffffffffffff1673ffffffffffffffffffffffffffffffffffffffff1681526020018781526020018060200186815260200185815260200184810384528d818151815260200191508051906020019080838360005b83811015610eb7578082015181840152602081019050610e9c565b50505050905090810190601f168015610ee45780820380516001836020036101000a031916815260200191505b5084810383528c818151815260200191508051906020019080838360005b83811015610f1d578082015181840152602081019050610f02565b50505050905090810190601f168015610f4a5780820380516001836020036101000a031916815260200191505b50848103825287818151815260200191508051906020019080838360005b83811015610f83578082015181840152602081019050610f68565b50505050905090810190601f168015610fb05780820380516001836020036101000a031916815260200191505b509e50505050505050505050505050505060405180910390f35b348015610fd657600080fd5b5061100360048036036020811015610fed57600080fd5b8101908080359060200190929190505050614241565b6040518082815260200191505060405180910390f35b34801561102557600080fd5b5061102e614261565b6040518082815260200191505060405180910390f35b34801561105057600080fd5b5061107d6004803603602081101561106757600080fd5b8101908080359060200190929190505050614267565b6040518083815260200180602001828103825283818151815260200191508051906020019080838360005b838110156110c35780820151818401526020810190506110a8565b50505050905090810190601f1680156110f05780820380516001836020036101000a031916815260200191505b50935050505060405180910390f35b34801561110b57600080fd5b506111386004803603602081101561112257600080fd5b8101908080359060200190929190505050614332565b005b34801561114657600080fd5b5061117d6004803603604081101561115d57600080fd5b810190808035906020019092919080359060200190929190505050614f18565b604051808881526020018781526020018681526020018581526020018481526020018373ffffffffffffffffffffffffffffffffffffffff1673ffffffffffffffffffffffffffffffffffffffff16815260200182815260200197505050505050505060405180910390f35b3480156111f557600080fd5b506112226004803603602081101561120c57600080fd5b8101908080359060200190929190505050614f96565b6040518082815260200191505060405180910390f35b34801561124457600080fd5b5061124d614fb6565b604051808273ffffffffffffffffffffffffffffffffffffffff1673ffffffffffffffffffffffffffffffffffffffff16815260200191505060405180910390f35b60008751111515611308576040517f08c379a00000000000000000000000000000000000000000000000000000000081526004018080602001828103825260208152602001807f546865206e616d6520616e64207375726e616d65206d7573742062652073657481525060200191505060405180910390fd5b600086511115156113a7576040517f08c379a00000000000000000000000000000000000000000000000000000000081526004018080602001828103825260228152602001807f546865206c696e65206f6e6520646972656374696f6e206d757374206265207381526020017f657400000000000000000000000000000000000000000000000000000000000081525060400191505060405180910390fd5b6000602060ff16111515611423576040517f08c379a00000000000000000000000000000000000000000000000000000000081526004018080602001828103825260148152602001807f5468652063697479206d7573742062652073657400000000000000000000000081525060200191505060405180910390fd5b6000602060ff1611151561149f576040517f08c379a000000000000000000000000000000000000000000000000000000000815260040180806020018281038252601f8152602001807f546865207374617465206f7220726567696f6e206d757374206265207365740081525060200191505060405180910390fd5b600083111515611517576040517f08c379a000000000000000000000000000000000000000000000000000000000815260040180806020018281038252601b8152602001807f54686520706f7374616c20636f6465206d75737420626520736574000000000081525060200191505060405180910390fd5b600060010282111515611592576040517f08c379a00000000000000000000000000000000000000000000000000000000081526004018080602001828103825260178152602001807f54686520636f756e747279206d7573742062652073657400000000000000000081525060200191505060405180910390fd5b600c60009054906101000a900473ffffffffffffffffffffffffffffffffffffffff1673ffffffffffffffffffffffffffffffffffffffff1663237f1a21336040518263ffffffff167c0100000000000000000000000000000000000000000000000000000000028152600401808273ffffffffffffffffffffffffffffffffffffffff1673ffffffffffffffffffffffffffffffffffffffff16815260200191505060206040518083038186803b15801561164d57600080fd5b505afa158015611661573d6000803e3d6000fd5b505050506040513d602081101561167757600080fd5b81019080805190602001909291905050501515611748576040517f08c379a00000000000000000000000000000000000000000000000000000000081526004018080602001828103825260528152602001807f596f75206d757374206861766520616e2045494e206173736f6369617465642081526020017f7769746820796f757220457468657265756d206163636f756e7420746f20707581526020017f726368617365207468652070726f64756374000000000000000000000000000081525060600191505060405180910390fd5b6000600c60009054906101000a900473ffffffffffffffffffffffffffffffffffffffff1673ffffffffffffffffffffffffffffffffffffffff166305c62c2f336040518263ffffffff167c0100000000000000000000000000000000000000000000000000000000028152600401808273ffffffffffffffffffffffffffffffffffffffff1673ffffffffffffffffffffffffffffffffffffffff16815260200191505060206040518083038186803b15801561180557600080fd5b505afa158015611819573d6000803e3d6000fd5b505050506040513d602081101561182f57600080fd5b8101908080519060200190929190505050905061184a614fdc565b600260008b81526020019081526020016000206101a060405190810160405290816000820154815260200160018201548152602001600282018054600181600116156101000203166002900480601f0160208091040260200160405190810160405280929190818152602001828054600181600116156101000203166002900480156119175780601f106118ec57610100808354040283529160200191611917565b820191906000526020600020905b8154815290600101906020018083116118fa57829003601f168201915b50505050508152602001600382018054600181600116156101000203166002900480601f0160208091040260200160405190810160405280929190818152602001828054600181600116156101000203166002900480156119b95780601f1061198e576101008083540402835291602001916119b9565b820191906000526020600020905b81548152906001019060200180831161199c57829003601f168201915b5050505050815260200160048201548152602001600582015481526020016006820160009054906101000a900473ffffffffffffffffffffffffffffffffffffffff1673ffffffffffffffffffffffffffffffffffffffff1673ffffffffffffffffffffffffffffffffffffffff16815260200160078201548152602001600882018054600181600116156101000203166002900480601f016020809104026020016040519081016040528092919081815260200182805460018160011615610100020316600290048015611acf5780601f10611aa457610100808354040283529160200191611acf565b820191906000526020600020905b815481529060010190602001808311611ab257829003601f168201915b5050505050815260200160098201805480602002602001604051908101604052809291908181526020018280548015611b2757602002820191906000526020600020905b815481526020019060010190808311611b13575b50505050508152602001600a8201805480602002602001604051908101604052809291908181526020018280548015611b7f57602002820191906000526020600020905b815481526020019060010190808311611b6b575b50505050508152602001600b8201548152602001600c8201548152505090506000816040015151111515611c41576040517f08c379a00000000000000000000000000000000000000000000000000000000081526004018080602001828103825260268152602001807f5468652070726f64756374206d75737420657869737420746f2062652070757281526020017f636861736564000000000000000000000000000000000000000000000000000081525060400191505060405180910390fd5b8060e00151600b60009054906101000a900473ffffffffffffffffffffffffffffffffffffffff1673ffffffffffffffffffffffffffffffffffffffff1663dd62ed3e33306040518363ffffffff167c0100000000000000000000000000000000000000000000000000000000028152600401808373ffffffffffffffffffffffffffffffffffffffff1673ffffffffffffffffffffffffffffffffffffffff1681526020018273ffffffffffffffffffffffffffffffffffffffff1673ffffffffffffffffffffffffffffffffffffffff1681526020019250505060206040518083038186803b158015611d3557600080fd5b505afa158015611d49573d6000803e3d6000fd5b505050506040513d6020811015611d5f57600080fd5b810190808051906020019092919050505010151515611e32576040517f08c379a00000000000000000000000000000000000000000000000000000000081526004018080602001828103825260438152602001807f596f75206d757374206861766520656e6f75676820485944524f20746f6b656e81526020017f7320617070726f76656420746f20707572636861736520746869732070726f6481526020017f756374000000000000000000000000000000000000000000000000000000000081525060600191505060405180910390fd5b611e3a61505e565b60e0604051908101604052808b81526020018a8152602001898152602001888152602001878152602001868152602001858152509050611e786150a5565b60e0604051908101604052806009548152602001600a5481526020018d81526020014281526020018581526020013373ffffffffffffffffffffffffffffffffffffffff1681526020017f70656e64696e67000000000000000000000000000000000000000000000000008152509050600083610160015111156121d95782610160018051809190600190038152505082600260008e815260200190815260200160002060008201518160000155602082015181600101556040820151816002019080519060200190611f4c9291906150fc565b506060820151816003019080519060200190611f699291906150fc565b506080820151816004015560a0820151816005015560c08201518160060160006101000a81548173ffffffffffffffffffffffffffffffffffffffff021916908373ffffffffffffffffffffffffffffffffffffffff16021790555060e08201518160070155610100820151816008019080519060200190611fec9291906150fc565b5061012082015181600901908051906020019061200a92919061517c565b5061014082015181600a01908051906020019061202892919061517c565b5061016082015181600b015561018082015181600c015590505060008090505b6005805490508110156121d757836000015160058281548110151561206957fe5b90600052602060002090600d02016000015414156121ca578360058281548110151561209157fe5b90600052602060002090600d0201600082015181600001556020820151816001015560408201518160020190805190602001906120cf9291906150fc565b5060608201518160030190805190602001906120ec9291906150fc565b506080820151816004015560a0820151816005015560c08201518160060160006101000a81548173ffffffffffffffffffffffffffffffffffffffff021916908373ffffffffffffffffffffffffffffffffffffffff16021790555060e0820151816007015561010082015181600801908051906020019061216f9291906150fc565b5061012082015181600901908051906020019061218d92919061517c565b5061014082015181600a0190805190602001906121ab92919061517c565b5061016082015181600b015561018082015181600c01559050506121d7565b8080600101915050612048565b505b6000808581526020019081526020016000208190806001815401808255809150509060018203906000526020600020906007020160009091929091909150600082015181600001556020820151816001015560408201518160020155606082015181600301556080820151816004015560a08201518160050160006101000a81548173ffffffffffffffffffffffffffffffffffffffff021916908373ffffffffffffffffffffffffffffffffffffffff16021790555060c0820151816006015550505080600360008e8152602001908152602001600020600082015181600001556020820151816001015560408201518160020155606082015181600301556080820151816004015560a08201518160050160006101000a81548173ffffffffffffffffffffffffffffffffffffffff021916908373ffffffffffffffffffffffffffffffffffffffff16021790555060c082015181600601559050508160046000600a54815260200190815260200160002060008201518160000190805190602001906123699291906150fc565b5060208201518160010190805190602001906123869291906150fc565b5060408201518160020155606082015181600301556080820151816004015560a0820151816005015560c08201518160060155905050600b60009054906101000a900473ffffffffffffffffffffffffffffffffffffffff1673ffffffffffffffffffffffffffffffffffffffff166323b872dd33308660e001516040518463ffffffff167c0100000000000000000000000000000000000000000000000000000000028152600401808473ffffffffffffffffffffffffffffffffffffffff1673ffffffffffffffffffffffffffffffffffffffff1681526020018373ffffffffffffffffffffffffffffffffffffffff1673ffffffffffffffffffffffffffffffffffffffff1681526020018281526020019350505050602060405180830381600087803b1580156124b957600080fd5b505af11580156124cd573d6000803e3d6000fd5b505050506040513d60208110156124e357600080fd5b810190808051906020019092919050505050600b60009054906101000a900473ffffffffffffffffffffffffffffffffffffffff1673ffffffffffffffffffffffffffffffffffffffff1663095ea7b3600d60009054906101000a900473ffffffffffffffffffffffffffffffffffffffff168560e001516040518363ffffffff167c0100000000000000000000000000000000000000000000000000000000028152600401808373ffffffffffffffffffffffffffffffffffffffff1673ffffffffffffffffffffffffffffffffffffffff16815260200182815260200192505050602060405180830381600087803b1580156125e057600080fd5b505af11580156125f4573d6000803e3d6000fd5b505050506040513d602081101561260a57600080fd5b810190808051906020019092919050505050600960008154809291906001019190505550600a60008154809291906001019190505550505050505050505050505050565b600a5481565b600c60009054906101000a900473ffffffffffffffffffffffffffffffffffffffff1681565b6126826150a5565b6003600083815260200190815260200160002060e0604051908101604052908160008201548152602001600182015481526020016002820154815260200160038201548152602001600482015481526020016005820160009054906101000a900473ffffffffffffffffffffffffffffffffffffffff1673ffffffffffffffffffffffffffffffffffffffff1673ffffffffffffffffffffffffffffffffffffffff168152602001600682015481525050905061273d614fdc565b60026000836040015181526020019081526020016000206101a060405190810160405290816000820154815260200160018201548152602001600282018054600181600116156101000203166002900480601f01602080910402602001604051908101604052809291908181526020018280546001816001161561010002031660029004801561280e5780601f106127e35761010080835404028352916020019161280e565b820191906000526020600020905b8154815290600101906020018083116127f157829003601f168201915b50505050508152602001600382018054600181600116156101000203166002900480601f0160208091040260200160405190810160405280929190818152602001828054600181600116156101000203166002900480156128b05780601f10612885576101008083540402835291602001916128b0565b820191906000526020600020905b81548152906001019060200180831161289357829003601f168201915b5050505050815260200160048201548152602001600582015481526020016006820160009054906101000a900473ffffffffffffffffffffffffffffffffffffffff1673ffffffffffffffffffffffffffffffffffffffff1673ffffffffffffffffffffffffffffffffffffffff16815260200160078201548152602001600882018054600181600116156101000203166002900480601f0160208091040260200160405190810160405280929190818152602001828054600181600116156101000203166002900480156129c65780601f1061299b576101008083540402835291602001916129c6565b820191906000526020600020905b8154815290600101906020018083116129a957829003601f168201915b5050505050815260200160098201805480602002602001604051908101604052809291908181526020018280548015612a1e57602002820191906000526020600020905b815481526020019060010190808311612a0a575b50505050508152602001600a8201805480602002602001604051908101604052809291908181526020018280548015612a7657602002820191906000526020600020905b815481526020019060010190808311612a62575b50505050508152602001600b8201548152602001600c820154815250509050600c60009054906101000a900473ffffffffffffffffffffffffffffffffffffffff1673ffffffffffffffffffffffffffffffffffffffff1663237f1a21336040518263ffffffff167c0100000000000000000000000000000000000000000000000000000000028152600401808273ffffffffffffffffffffffffffffffffffffffff1673ffffffffffffffffffffffffffffffffffffffff16815260200191505060206040518083038186803b158015612b5057600080fd5b505afa158015612b64573d6000803e3d6000fd5b505050506040513d6020811015612b7a57600080fd5b81019080805190602001909291905050501515612c4b576040517f08c379a00000000000000000000000000000000000000000000000000000000081526004018080602001828103825260598152602001807f596f75206d757374206861766520616e2045494e206173736f6369617465642081526020017f7769746820796f757220457468657265756d206163636f756e7420746f206d6181526020017f726b20746865206f7264657220617320636f6d706c657465640000000000000081525060600191505060405180910390fd5b6000600c60009054906101000a900473ffffffffffffffffffffffffffffffffffffffff1673ffffffffffffffffffffffffffffffffffffffff166305c62c2f336040518263ffffffff167c0100000000000000000000000000000000000000000000000000000000028152600401808273ffffffffffffffffffffffffffffffffffffffff1673ffffffffffffffffffffffffffffffffffffffff16815260200191505060206040518083038186803b158015612d0857600080fd5b505afa158015612d1c573d6000803e3d6000fd5b505050506040513d6020811015612d3257600080fd5b81019080805190602001909291905050509050808260a00151141515612de6576040517f08c379a000000000000000000000000000000000000000000000000000000000815260040180806020018281038252602a8152602001807f4f6e6c79207468652073656c6c65722063616e206d61726b20746865206f726481526020017f65722061732073656e740000000000000000000000000000000000000000000081525060400191505060405180910390fd5b7f73656e74000000000000000000000000000000000000000000000000000000008360c00181815250508260036000868152602001908152602001600020600082015181600001556020820151816001015560408201518160020155606082015181600301556080820151816004015560a08201518160050160006101000a81548173ffffffffffffffffffffffffffffffffffffffff021916908373ffffffffffffffffffffffffffffffffffffffff16021790555060c0820151816006015590505050505050565b60008951111515612f29576040517f08c379a00000000000000000000000000000000000000000000000000000000081526004018080602001828103825260198152602001807f546865207469746c652063616e6e6f7420626520656d7074790000000000000081525060200191505060405180910390fd5b60008751111515612fa2576040517f08c379a000000000000000000000000000000000000000000000000000000000815260040180806020018281038252601f8152602001807f546865206465736372697074696f6e2063616e6e6f7420626520656d7074790081525060200191505060405180910390fd5b60008611151561301a576040517f08c379a00000000000000000000000000000000000000000000000000000000081526004018080602001828103825260198152602001807f5468652070726963652063616e6e6f7420626520656d7074790000000000000081525060200191505060405180910390fd5b60008551111515613093576040517f08c379a00000000000000000000000000000000000000000000000000000000081526004018080602001828103825260198152602001807f54686520696d6167652063616e6e6f7420626520656d7074790000000000000081525060200191505060405180910390fd5b600c60009054906101000a900473ffffffffffffffffffffffffffffffffffffffff1673ffffffffffffffffffffffffffffffffffffffff1663237f1a21336040518263ffffffff167c0100000000000000000000000000000000000000000000000000000000028152600401808273ffffffffffffffffffffffffffffffffffffffff1673ffffffffffffffffffffffffffffffffffffffff16815260200191505060206040518083038186803b15801561314e57600080fd5b505afa158015613162573d6000803e3d6000fd5b505050506040513d602081101561317857600080fd5b81019080805190602001909291905050501515613249576040517f08c379a000000000000000000000000000000000000000000000000000000000815260040180806020018281038252604b8152602001807f596f75206d757374206861766520616e2045494e206173736f6369617465642081526020017f7769746820796f757220457468657265756d206163636f756e7420746f20616481526020017f6420612070726f6475637400000000000000000000000000000000000000000081525060600191505060405180910390fd5b613251614fdc565b6101a06040519081016040528060085481526020018a81526020018b8152602001898152602001428152602001600c60009054906101000a900473ffffffffffffffffffffffffffffffffffffffff1673ffffffffffffffffffffffffffffffffffffffff166305c62c2f336040518263ffffffff167c0100000000000000000000000000000000000000000000000000000000028152600401808273ffffffffffffffffffffffffffffffffffffffff1673ffffffffffffffffffffffffffffffffffffffff16815260200191505060206040518083038186803b15801561333957600080fd5b505afa15801561334d573d6000803e3d6000fd5b505050506040513d602081101561336357600080fd5b810190808051906020019092919050505081526020013373ffffffffffffffffffffffffffffffffffffffff1681526020018881526020018781526020018681526020018581526020018481526020018381525090506005819080600181540180825580915050906001820390600052602060002090600d020160009091929091909150600082015181600001556020820151816001015560408201518160020190805190602001906134179291906150fc565b5060608201518160030190805190602001906134349291906150fc565b506080820151816004015560a0820151816005015560c08201518160060160006101000a81548173ffffffffffffffffffffffffffffffffffffffff021916908373ffffffffffffffffffffffffffffffffffffffff16021790555060e082015181600701556101008201518160080190805190602001906134b79291906150fc565b506101208201518160090190805190602001906134d592919061517c565b5061014082015181600a0190805190602001906134f392919061517c565b5061016082015181600b015561018082015181600c015550505080600260006008548152602001908152602001600020600082015181600001556020820151816001015560408201518160020190805190602001906135539291906150fc565b5060608201518160030190805190602001906135709291906150fc565b506080820151816004015560a0820151816005015560c08201518160060160006101000a81548173ffffffffffffffffffffffffffffffffffffffff021916908373ffffffffffffffffffffffffffffffffffffffff16021790555060e082015181600701556101008201518160080190805190602001906135f39291906150fc565b5061012082015181600901908051906020019061361192919061517c565b5061014082015181600a01908051906020019061362f92919061517c565b5061016082015181600b015561018082015181600c015590505060086000815480929190600101919050555050505050505050505050565b600d60009054906101000a900473ffffffffffffffffffffffffffffffffffffffff1681565b60095481565b6005818154811015156136a257fe5b90600052602060002090600d0201600091509050806000015490806001015490806002018054600181600116156101000203166002900480601f01602080910402602001604051908101604052809291908181526020018280546001816001161561010002031660029004801561375a5780601f1061372f5761010080835404028352916020019161375a565b820191906000526020600020905b81548152906001019060200180831161373d57829003601f168201915b505050505090806003018054600181600116156101000203166002900480601f0160208091040260200160405190810160405280929190818152602001828054600181600116156101000203166002900480156137f85780601f106137cd576101008083540402835291602001916137f8565b820191906000526020600020905b8154815290600101906020018083116137db57829003601f168201915b5050505050908060040154908060050154908060060160009054906101000a900473ffffffffffffffffffffffffffffffffffffffff1690806007015490806008018054600181600116156101000203166002900480601f0160208091040260200160405190810160405280929190818152602001828054600181600116156101000203166002900480156138ce5780601f106138a3576101008083540402835291602001916138ce565b820191906000526020600020905b8154815290600101906020018083116138b157829003601f168201915b50505050509080600b01549080600c015490508b565b6004602052806000526040600020600091509050806000018054600181600116156101000203166002900480601f0160208091040260200160405190810160405280929190818152602001828054600181600116156101000203166002900480156139905780601f1061396557610100808354040283529160200191613990565b820191906000526020600020905b81548152906001019060200180831161397357829003601f168201915b505050505090806001018054600181600116156101000203166002900480601f016020809104026020016040519081016040528092919081815260200182805460018160011615610100020316600290048015613a2e5780601f10613a0357610100808354040283529160200191613a2e565b820191906000526020600020905b815481529060010190602001808311613a1157829003601f168201915b5050505050908060020154908060030154908060040154908060050154908060060154905087565b600160205281600052604060002081815481101515613a7157fe5b9060005260206000209060070201600091509150508060000154908060010154908060020154908060030154908060040154908060050160009054906101000a900473ffffffffffffffffffffffffffffffffffffffff16908060060154905087565b60036020528060005260406000206000915090508060000154908060010154908060020154908060030154908060040154908060050160009054906101000a900473ffffffffffffffffffffffffffffffffffffffff16908060060154905087565b600760009054906101000a900473ffffffffffffffffffffffffffffffffffffffff1681565b600760009054906101000a900473ffffffffffffffffffffffffffffffffffffffff1673ffffffffffffffffffffffffffffffffffffffff163373ffffffffffffffffffffffffffffffffffffffff16141515613c47576040517f08c379a000000000000000000000000000000000000000000000000000000000815260040180806020018281038252602b8152602001807f4f6e6c7920746865206f776e65722063616e207365742074686520646973707581526020017f746520636f6e747261637400000000000000000000000000000000000000000081525060400191505060405180910390fd5b600073ffffffffffffffffffffffffffffffffffffffff16600d60009054906101000a900473ffffffffffffffffffffffffffffffffffffffff1673ffffffffffffffffffffffffffffffffffffffff16141515613d33576040517f08c379a00000000000000000000000000000000000000000000000000000000081526004018080602001828103825260368152602001807f596f752063616e6e6f74206368616e6765207468652061646472657373206f6681526020017f2074686520636f6e7472616374206f6e6365207365740000000000000000000081525060400191505060405180910390fd5b600073ffffffffffffffffffffffffffffffffffffffff168173ffffffffffffffffffffffffffffffffffffffff1614151515613dfe576040517f08c379a00000000000000000000000000000000000000000000000000000000081526004018080602001828103825260238152602001807f546865206469737075746520616464726573732063616e6e6f7420626520656d81526020017f707479000000000000000000000000000000000000000000000000000000000081525060400191505060405180910390fd5b80600d60006101000a81548173ffffffffffffffffffffffffffffffffffffffff021916908373ffffffffffffffffffffffffffffffffffffffff16021790555050565b60008251111515613ebb576040517f08c379a00000000000000000000000000000000000000000000000000000000081526004018080602001828103825260148152602001807f546865206e616d65206d7573742062652073657400000000000000000000000081525060200191505060405180910390fd5b60008151111515613f5a576040517f08c379a00000000000000000000000000000000000000000000000000000000081526004018080602001828103825260318152602001807f5468657265206d757374206265206174206c65617374206f6e6520736b75206681526020017f6f72207468697320696e76656e746f727900000000000000000000000000000081525060400191505060405180910390fd5b613f626151c9565b606060405190810160405280600680549050815260200184815260200183815250905060068190806001815401808255809150509060018203906000526020600020906003020160009091929091909150600082015181600001556020820151816001019080519060200190613fd99291906150fc565b506040820151816002019080519060200190613ff692919061517c565b50505050505050565b6002602052806000526040600020600091509050806000015490806001015490806002018054600181600116156101000203166002900480601f0160208091040260200160405190810160405280929190818152602001828054600181600116156101000203166002900480156140b75780601f1061408c576101008083540402835291602001916140b7565b820191906000526020600020905b81548152906001019060200180831161409a57829003601f168201915b505050505090806003018054600181600116156101000203166002900480601f0160208091040260200160405190810160405280929190818152602001828054600181600116156101000203166002900480156141555780601f1061412a57610100808354040283529160200191614155565b820191906000526020600020905b81548152906001019060200180831161413857829003601f168201915b5050505050908060040154908060050154908060060160009054906101000a900473ffffffffffffffffffffffffffffffffffffffff1690806007015490806008018054600181600116156101000203166002900480601f01602080910402602001604051908101604052809291908181526020018280546001816001161561010002031660029004801561422b5780601f106142005761010080835404028352916020019161422b565b820191906000526020600020905b81548152906001019060200180831161420e57829003601f168201915b50505050509080600b01549080600c015490508b565b600060026000838152602001908152602001600020600501549050919050565b60085481565b60068181548110151561427657fe5b9060005260206000209060030201600091509050806000015490806001018054600181600116156101000203166002900480601f0160208091040260200160405190810160405280929190818152602001828054600181600116156101000203166002900480156143285780601f106142fd57610100808354040283529160200191614328565b820191906000526020600020905b81548152906001019060200180831161430b57829003601f168201915b5050505050905082565b61433a6150a5565b6003600083815260200190815260200160002060e0604051908101604052908160008201548152602001600182015481526020016002820154815260200160038201548152602001600482015481526020016005820160009054906101000a900473ffffffffffffffffffffffffffffffffffffffff1673ffffffffffffffffffffffffffffffffffffffff1673ffffffffffffffffffffffffffffffffffffffff16815260200160068201548152505090506143f5614fdc565b60026000836040015181526020019081526020016000206101a060405190810160405290816000820154815260200160018201548152602001600282018054600181600116156101000203166002900480601f0160208091040260200160405190810160405280929190818152602001828054600181600116156101000203166002900480156144c65780601f1061449b576101008083540402835291602001916144c6565b820191906000526020600020905b8154815290600101906020018083116144a957829003601f168201915b50505050508152602001600382018054600181600116156101000203166002900480601f0160208091040260200160405190810160405280929190818152602001828054600181600116156101000203166002900480156145685780601f1061453d57610100808354040283529160200191614568565b820191906000526020600020905b81548152906001019060200180831161454b57829003601f168201915b5050505050815260200160048201548152602001600582015481526020016006820160009054906101000a900473ffffffffffffffffffffffffffffffffffffffff1673ffffffffffffffffffffffffffffffffffffffff1673ffffffffffffffffffffffffffffffffffffffff16815260200160078201548152602001600882018054600181600116156101000203166002900480601f01602080910402602001604051908101604052809291908181526020018280546001816001161561010002031660029004801561467e5780601f106146535761010080835404028352916020019161467e565b820191906000526020600020905b81548152906001019060200180831161466157829003601f168201915b50505050508152602001600982018054806020026020016040519081016040528092919081815260200182805480156146d657602002820191906000526020600020905b8154815260200190600101908083116146c2575b50505050508152602001600a820180548060200260200160405190810160405280929190818152602001828054801561472e57602002820191906000526020600020905b81548152602001906001019080831161471a575b50505050508152602001600b8201548152602001600c8201548152505090506000600c60009054906101000a900473ffffffffffffffffffffffffffffffffffffffff1673ffffffffffffffffffffffffffffffffffffffff166305c62c2f336040518263ffffffff167c0100000000000000000000000000000000000000000000000000000000028152600401808273ffffffffffffffffffffffffffffffffffffffff1673ffffffffffffffffffffffffffffffffffffffff16815260200191505060206040518083038186803b15801561480a57600080fd5b505afa15801561481e573d6000803e3d6000fd5b505050506040513d602081101561483457600080fd5b81019080805190602001909291905050509050808260a001511415156148e8576040517f08c379a00000000000000000000000000000000000000000000000000000000081526004018080602001828103825260348152602001807f4f6e6c79207468652073656c6c65722063616e2072656365697665207468652081526020017f7061796d656e74206f6620746865206f7264657200000000000000000000000081525060400191505060405180910390fd5b7f73656e74000000000000000000000000000000000000000000000000000000008360c001511415156149a9576040517f08c379a00000000000000000000000000000000000000000000000000000000081526004018080602001828103825260378152602001807f546865206f72646572206d757374206265206d61726b65642061732073656e7481526020017f20746f207265636569766520746865207061796d656e7400000000000000000081525060400191505060405180910390fd5b6213c6808360600151420310151515614a50576040517f08c379a000000000000000000000000000000000000000000000000000000000815260040180806020018281038252602f8152602001807f596f752063616e206f6e6c7920726574726965766520746865207061796d656e81526020017f742061667465722031352064617973000000000000000000000000000000000081525060400191505060405180910390fd5b7f636f6d706c6574656400000000000000000000000000000000000000000000008360c001818152505060008090505b6000808460a00151815260200190815260200160002080549050811015614ca557846000808560a00151815260200190815260200160002082815481101515614ac557fe5b9060005260206000209060070201600001541415614c9857614ae56150a5565b6003600060016000808860a0015181526020019081526020016000208054905003815260200190815260200160002060e0604051908101604052908160008201548152602001600182015481526020016002820154815260200160038201548152602001600482015481526020016005820160009054906101000a900473ffffffffffffffffffffffffffffffffffffffff1673ffffffffffffffffffffffffffffffffffffffff1673ffffffffffffffffffffffffffffffffffffffff1681526020016006820154815250509050806000808660a00151815260200190815260200160002083815481101515614bd857fe5b9060005260206000209060070201600082015181600001556020820151816001015560408201518160020155606082015181600301556080820151816004015560a08201518160050160006101000a81548173ffffffffffffffffffffffffffffffffffffffff021916908373ffffffffffffffffffffffffffffffffffffffff16021790555060c082015181600601559050506000808560a001518152602001908152602001600020805480919060019003614c9591906151eb565b50505b8080600101915050614a80565b5060016000846080015181526020019081526020016000208390806001815401808255809150509060018203906000526020600020906007020160009091929091909150600082015181600001556020820151816001015560408201518160020155606082015181600301556080820151816004015560a08201518160050160006101000a81548173ffffffffffffffffffffffffffffffffffffffff021916908373ffffffffffffffffffffffffffffffffffffffff16021790555060c082015181600601555050508260036000868152602001908152602001600020600082015181600001556020820151816001015560408201518160020155606082015181600301556080820151816004015560a08201518160050160006101000a81548173ffffffffffffffffffffffffffffffffffffffff021916908373ffffffffffffffffffffffffffffffffffffffff16021790555060c08201518160060155905050600b60009054906101000a900473ffffffffffffffffffffffffffffffffffffffff1673ffffffffffffffffffffffffffffffffffffffff1663a9059cbb8360c001518460e001516040518363ffffffff167c0100000000000000000000000000000000000000000000000000000000028152600401808373ffffffffffffffffffffffffffffffffffffffff1673ffffffffffffffffffffffffffffffffffffffff16815260200182815260200192505050602060405180830381600087803b158015614ed657600080fd5b505af1158015614eea573d6000803e3d6000fd5b505050506040513d6020811015614f0057600080fd5b81019080805190602001909291905050505050505050565b600060205281600052604060002081815481101515614f3357fe5b9060005260206000209060070201600091509150508060000154908060010154908060020154908060030154908060040154908060050160009054906101000a900473ffffffffffffffffffffffffffffffffffffffff16908060060154905087565b600060026000838152602001908152602001600020600701549050919050565b600b60009054906101000a900473ffffffffffffffffffffffffffffffffffffffff1681565b6101a060405190810160405280600081526020016000801916815260200160608152602001606081526020016000815260200160008152602001600073ffffffffffffffffffffffffffffffffffffffff1681526020016000815260200160608152602001606081526020016060815260200160008152602001600081525090565b60e060405190810160405280606081526020016060815260200160008019168152602001600080191681526020016000815260200160008019168152602001600081525090565b60e0604051908101604052806000815260200160008152602001600081526020016000815260200160008152602001600073ffffffffffffffffffffffffffffffffffffffff168152602001600080191681525090565b828054600181600116156101000203166002900490600052602060002090601f016020900481019282601f1061513d57805160ff191683800117855561516b565b8280016001018555821561516b579182015b8281111561516a57825182559160200191906001019061514f565b5b509050615178919061521d565b5090565b8280548282559060005260206000209081019282156151b8579160200282015b828111156151b757825182559160200191906001019061519c565b5b5090506151c59190615242565b5090565b6060604051908101604052806000815260200160608152602001606081525090565b815481835581811115615218576007028160070283600052602060002091820191016152179190615267565b5b505050565b61523f91905b8082111561523b576000816000905550600101615223565b5090565b90565b61526491905b80821115615260576000816000905550600101615248565b5090565b90565b6152da91905b808211156152d65760008082016000905560018201600090556002820160009055600382016000905560048201600090556005820160006101000a81549073ffffffffffffffffffffffffffffffffffffffff021916905560068201600090555060070161526d565b5090565b9056fea165627a7a7230582088d49f662fd50502b287579e8af84081a6ae036f912326df3d2db58e179f83c60029",
  "source": "pragma solidity ^0.5.0;\r\n\r\ninterface HydroTokenTestnetInterface {\r\n    function transfer(address _to, uint256 _amount) external returns (bool success);\r\n    function transferFrom(address _from, address _to, uint256 _amount) external returns (bool success);\r\n    function doTransfer(address _from, address _to, uint _amount) external;\r\n    function balanceOf(address _owner) external view returns (uint256 balance);\r\n    function approve(address _spender, uint256 _amount) external returns (bool success);\r\n    function approveAndCall(address _spender, uint256 _value, bytes calldata _extraData) external returns (bool success);\r\n    function burn(uint256 _value) external;\r\n    function allowance(address _owner, address _spender) external view returns (uint256 remaining);\r\n    function totalSupply() external view returns (uint);\r\n    function setRaindropAddress(address _raindrop) external;\r\n    function authenticate(uint _value, uint _challenge, uint _partnerId) external;\r\n    function setBalances(address[] calldata _addressList, uint[] calldata _amounts) external;\r\n    function getMoreTokens() external;\r\n}\r\n\r\ninterface IdentityRegistryInterface {\r\n    function isSigned(address _address, bytes32 messageHash, uint8 v, bytes32 r, bytes32 s)\r\n        external pure returns (bool);\r\n    function identityExists(uint ein) external view returns (bool);\r\n    function hasIdentity(address _address) external view returns (bool);\r\n    function getEIN(address _address) external view returns (uint ein);\r\n    function isAssociatedAddressFor(uint ein, address _address) external view returns (bool);\r\n    function isProviderFor(uint ein, address provider) external view returns (bool);\r\n    function isResolverFor(uint ein, address resolver) external view returns (bool);\r\n    function getIdentity(uint ein) external view returns (\r\n        address recoveryAddress,\r\n        address[] memory associatedAddresses, address[] memory providers, address[] memory resolvers\r\n    );\r\n    function createIdentity(address recoveryAddress, address[] calldata providers, address[] calldata resolvers)\r\n        external returns (uint ein);\r\n    function createIdentityDelegated(\r\n        address recoveryAddress, address associatedAddress, address[] calldata providers, address[] calldata resolvers,\r\n        uint8 v, bytes32 r, bytes32 s, uint timestamp\r\n    ) external returns (uint ein);\r\n    function addAssociatedAddress(\r\n        address approvingAddress, address addressToAdd, uint8 v, bytes32 r, bytes32 s, uint timestamp\r\n    ) external;\r\n    function addAssociatedAddressDelegated(\r\n        address approvingAddress, address addressToAdd,\r\n        uint8[2] calldata v, bytes32[2] calldata r, bytes32[2] calldata s, uint[2] calldata timestamp\r\n    ) external;\r\n    function removeAssociatedAddress() external;\r\n    function removeAssociatedAddressDelegated(address addressToRemove, uint8 v, bytes32 r, bytes32 s, uint timestamp)\r\n        external;\r\n    function addProviders(address[] calldata providers) external;\r\n    function addProvidersFor(uint ein, address[] calldata providers) external;\r\n    function removeProviders(address[] calldata providers) external;\r\n    function removeProvidersFor(uint ein, address[] calldata providers) external;\r\n    function addResolvers(address[] calldata resolvers) external;\r\n    function addResolversFor(uint ein, address[] calldata resolvers) external;\r\n    function removeResolvers(address[] calldata resolvers) external;\r\n    function removeResolversFor(uint ein, address[] calldata resolvers) external;\r\n    function triggerRecoveryAddressChange(address newRecoveryAddress) external;\r\n    function triggerRecoveryAddressChangeFor(uint ein, address newRecoveryAddress) external;\r\n    function triggerRecovery(uint ein, address newAssociatedAddress, uint8 v, bytes32 r, bytes32 s, uint timestamp)\r\n        external;\r\n    function triggerDestruction(\r\n        uint ein, address[] calldata firstChunk, address[] calldata lastChunk, bool resetResolvers\r\n    ) external;\r\n}\r\n\r\ncontract Dispute {\r\n    event DisputeGenerated(uint256 indexed id, uint256 indexed orderId, string reason);\r\n\r\n    struct DisputeItem {\r\n        uint256 id;\r\n        uint256 orderId;\r\n        uint256 createdAt;\r\n        address refundReceiver;\r\n        string reason;\r\n        string counterReason;\r\n        bytes32 state; // Either pending, countered or resolved. Where pending indicates \"waiting for the seller to respond\", countered means \"the seller has responded\" and resolved is \"the dispute has been resolved\"\r\n    }\r\n\r\n    // DisputeItem id => dispute struct\r\n    mapping(uint256 => DisputeItem) public disputeById;\r\n    DisputeItem[] public disputes;\r\n    Store public store;\r\n    address[] public operators;\r\n    address public owner;\r\n\r\n    modifier onlyOperator {\r\n        require(operatorExists(msg.sender), 'Only a valid operator can run this function');\r\n        _;\r\n    }\r\n\r\n    /// @notice To setup the store address\r\n    /// @param _store The address of the store contract that will be used in this contract\r\n    constructor(address _store) public {\r\n        store = Store(_store);\r\n        owner = msg.sender;\r\n        operators.push(msg.sender);\r\n    }\r\n\r\n    /// @notice To dispute an order for the specified reason as a buyer\r\n    /// @param _id The order id to dispute\r\n    /// @param _reason The string indicating why the buyer is disputing this order\r\n    function disputeOrder(uint256 _id, string memory _reason) public {\r\n        require(bytes(_reason).length > 0, 'The reason for disputing the order cannot be empty');\r\n        DisputeItem memory d = disputeById[_id];\r\n        require(d.state == 0, 'The order state must be empty');\r\n        (uint256 id, uint256 addressId, uint256 productId, uint256 date, uint256 buyer, address addressBuyer, bytes32 state) = store.orderById(_id);\r\n        require(now - date < 15 days, 'You can only dispute an order that has not been closed yet');\r\n        uint256 ein = IdentityRegistryInterface(store.identityRegistry()).getEIN(msg.sender);\r\n        require(buyer == ein, 'Only the buyer can dispute his order');\r\n        uint256 disputeId = disputes.length;\r\n        d = DisputeItem(disputeId, _id, now, msg.sender, _reason, '', 'pending');\r\n        disputes.push(d);\r\n        disputeById[disputeId] = d;\r\n        emit DisputeGenerated(disputeId, _id, _reason);\r\n    }\r\n\r\n    /// @notice To respond to a dispute as a seller\r\n    /// @param _disputeId The id of the dispute to respond to\r\n    /// @param _counterReason The reason for countering the argument of the buyer\r\n    function counterDispute(uint256 _disputeId, string memory _counterReason) public {\r\n        require(bytes(_counterReason).length > 0, 'The counter reason must be set');\r\n        DisputeItem memory d = disputeById[_disputeId];\r\n        require(d.state == 'pending', 'The order state must be pending');\r\n        (uint256 id, uint256 addressId, uint256 productId, uint256 date, uint256 buyer, address addressBuyer, bytes32 state) = store.orderById(d.orderId);\r\n        require(now - date < 15 days, 'You can only dispute an order that has not been closed yet');\r\n\r\n        uint256 ein = IdentityRegistryInterface(store.identityRegistry()).getEIN(msg.sender);\r\n        require(store.getProductEinOwner(productId) == ein, 'Only the seller can counter dispute this order');\r\n        d.counterReason = _counterReason;\r\n        d.state = 'countered';\r\n        disputeById[_disputeId] = d;\r\n        for(uint256 i = 0; i < disputes.length; i++) {\r\n            if(disputes[i].id == _disputeId) {\r\n                disputes[i] = d;\r\n                break;\r\n            }\r\n        }\r\n    }\r\n\r\n    /// @notice To resolve a dispute and pay the buyer from the seller's approved balance\r\n    /// @param _disputeId The id of the dispute to resolve\r\n    /// @param _isBuyerWinner If the winner is the buyer or not to perform the transfer\r\n    function resolveDispute(uint256 _disputeId, bool _isBuyerWinner) public onlyOperator {\r\n        DisputeItem memory d = disputeById[_disputeId];\r\n        require(bytes(d.counterReason).length > 0, 'The counter reason must be set');\r\n        require(d.state == 'countered', 'The order state must be countered');\r\n        (uint256 id, uint256 addressId, uint256 productId, uint256 date, uint256 buyer, address addressBuyer, bytes32 state) = store.orderById(d.orderId);\r\n        require(now - date < 15 days, 'You can only dispute an order that has not been closed yet');\r\n\r\n        d.state = 'resolved';\r\n        disputeById[_disputeId] = d;\r\n        for(uint256 i = 0; i < disputes.length; i++) {\r\n            if(disputes[i].id == _disputeId) {\r\n                disputes[i] = d;\r\n                break;\r\n            }\r\n        }\r\n\r\n        if(_isBuyerWinner) {\r\n            // Pay the product price to the buyer as a refund\r\n            HydroTokenTestnetInterface(store.token()).transferFrom(address(store), addressBuyer, store.getProductPrice(productId));\r\n        }\r\n    }\r\n\r\n    /// @notice To add or delete operators by the owner\r\n    /// @param _user A valid address to add or remove from the list of operators\r\n    /// @param _isRemoved Whether you want to add or remove this operator\r\n    function setOperator(address _user, bool _isRemoved) public {\r\n        require(msg.sender == owner, 'Only the owner can add operators');\r\n        if(_isRemoved) {\r\n            for(uint256 i = 0; i < operators.length; i++) {\r\n                if(operators[i] == _user) {\r\n                    address lastElement = operators[operators.length - 1];\r\n                    operators[i] = lastElement;\r\n                    operators.length--;\r\n                }\r\n            }\r\n        } else {\r\n            operators.push(_user);\r\n        }\r\n    }\r\n\r\n    /// @notice To check if an operator exists\r\n    /// @param _operator The address of the operator to check\r\n    /// @return bool Whether he's a valid operator or not\r\n    function operatorExists(address _operator) internal view returns(bool) {\r\n        for(uint256 i = 0; i < operators.length; i++) {\r\n            if(_operator == operators[i]) {\r\n                return true;\r\n            }\r\n        }\r\n        return false;\r\n    }\r\n}\r\n\r\n\r\ncontract Store {\r\n    struct Product {\r\n        uint256 id;\r\n        bytes32 sku;\r\n        string title;\r\n        string description;\r\n        uint256 date;\r\n        uint256 einOwner; // EIN owner\r\n        address owner;\r\n        uint256 price;\r\n        string image;\r\n        bytes32[] attributes;\r\n        bytes32[] attributeValues;\r\n        uint256 quantity;\r\n        uint256 barcode;\r\n    }\r\n    struct Order {\r\n        uint256 id; // Unique order ID\r\n        uint256 addressId;\r\n        uint256 productId;\r\n        uint256 date;\r\n        uint256 buyer; // EIN buyer\r\n        address addressBuyer;\r\n        bytes32 state; // Either 'pending', 'sent', 'completed' completed means that the seller has sent the product and he's extracted the payment\r\n    }\r\n    struct Address {\r\n        string nameSurname;\r\n        string direction;\r\n        bytes32 city;\r\n        bytes32 stateRegion;\r\n        uint256 postalCode;\r\n        bytes32 country;\r\n        uint256 phone;\r\n    }\r\n    struct Inventory {\r\n        uint256 id;\r\n        string name;\r\n        bytes32[] skus;\r\n    }\r\n\r\n    // Seller ein => orders\r\n    mapping(uint256 => Order[]) public pendingOrders; // The products waiting to be fulfilled\r\n    // Buyer ein => orders\r\n    mapping(uint256 => Order[]) public completedOrders;\r\n    // Product id => product\r\n    mapping(uint256 => Product) public productById;\r\n    // Order id => order struct\r\n    mapping(uint256 => Order) public orderById;\r\n    // Id => address\r\n    mapping(uint256 => Address) public addressById;\r\n    Product[] public products;\r\n    Inventory[] public inventories;\r\n    address public owner;\r\n    uint256 public lastId;\r\n    uint256 public lastOrderId;\r\n    uint256 public lastAddressId;\r\n    address public token;\r\n    address public identityRegistry;\r\n    address public disputeContract;\r\n\r\n    /// @notice To setup the address of the ERC-721 token to use for this contract\r\n    /// @param _token The token address\r\n    constructor(address _token, address _identityRegistry) public {\r\n        owner = msg.sender;\r\n        token = _token;\r\n        identityRegistry = _identityRegistry;\r\n    }\r\n\r\n    /// @notice To set the address of the dispute contract for making disputes\r\n    /// @param _dispute The dispute address\r\n    function setDisputeAddress(address _dispute) public {\r\n        require(msg.sender == owner, 'Only the owner can set the dispute contract');\r\n        require(disputeContract == address(0), 'You cannot change the address of the contract once set');\r\n        require(_dispute != address(0), 'The dispute address cannot be empty');\r\n        disputeContract = _dispute;\r\n    }\r\n\r\n    /// @notice To publish a product as a seller\r\n    /// @param _title The title of the product\r\n    /// @param _description The description of the product\r\n    /// @param _price The price of the product in ETH\r\n    /// @param _image The image URL of the product\r\n    function publishProduct(string memory _title, bytes32 _sku, string memory _description, uint256 _price, string memory _image, bytes32[] memory _attributes, bytes32[] memory _attributeValues, uint256 _quantity, uint256 _barcode) public {\r\n        require(bytes(_title).length > 0, 'The title cannot be empty');\r\n        require(bytes(_description).length > 0, 'The description cannot be empty');\r\n        require(_price > 0, 'The price cannot be empty');\r\n        require(bytes(_image).length > 0, 'The image cannot be empty');\r\n        require(IdentityRegistryInterface(identityRegistry).hasIdentity(msg.sender), 'You must have an EIN associated with your Ethereum account to add a product');\r\n\r\n        Product memory p = Product(lastId, _sku, _title, _description, now, IdentityRegistryInterface(identityRegistry).getEIN(msg.sender), msg.sender, _price, _image, _attributes, _attributeValues, _quantity, _barcode);\r\n        products.push(p);\r\n        productById[lastId] = p;\r\n        lastId++;\r\n    }\r\n\r\n    /// @notice To create an inventory in which to store product skus\r\n    /// @param _name The name of the inventory\r\n    /// @param _skus The array of skus to add to the inventory\r\n    function createInventory(string memory _name, bytes32[] memory _skus) public {\r\n        require(bytes(_name).length > 0, 'The name must be set');\r\n        require(_skus.length > 0, 'There must be at least one sku for this inventory');\r\n        Inventory memory inv = Inventory(inventories.length, _name, _skus);\r\n        inventories.push(inv);\r\n    }\r\n\r\n    /// @notice To buy a new product, note that the seller must authorize this contract to manage the token\r\n    /// @param _id The id of the product to buy\r\n    /// @param _nameSurname The name and surname of the buyer\r\n    /// @param _lineOneDirection The first line for the user address\r\n    /// @param _lineTwoDirection The second, optional user address line\r\n    /// @param _city Buyer's city\r\n    /// @param _stateRegion The state or region where the buyer lives\r\n    /// @param _postalCode The postal code of his location\r\n    /// @param _country Buyer's country\r\n    /// @param _phone The optional phone number for the shipping company\r\n    /// The payment in HYDRO is made automatically by making a transferFrom after approving the right amount of tokens using the product price\r\n    function buyProduct(uint256 _id, string memory _nameSurname, string memory _direction, bytes32 _city, bytes32 _stateRegion, uint256 _postalCode, bytes32 _country, uint256 _phone) public {\r\n        // The line 2 address and phone are optional, the rest are mandatory\r\n        require(bytes(_nameSurname).length > 0, 'The name and surname must be set');\r\n        require(bytes(_direction).length > 0, 'The line one direction must be set');\r\n        require(_city.length > 0, 'The city must be set');\r\n        require(_stateRegion.length > 0, 'The state or region must be set');\r\n        require(_postalCode > 0, 'The postal code must be set');\r\n        require(_country > 0, 'The country must be set');\r\n        require(IdentityRegistryInterface(identityRegistry).hasIdentity(msg.sender), 'You must have an EIN associated with your Ethereum account to purchase the product');\r\n\r\n        uint256 ein = IdentityRegistryInterface(identityRegistry).getEIN(msg.sender);\r\n        Product memory p = productById[_id];\r\n        require(bytes(p.title).length > 0, 'The product must exist to be purchased');\r\n        require(HydroTokenTestnetInterface(token).allowance(msg.sender, address(this)) >= p.price, 'You must have enough HYDRO tokens approved to purchase this product');\r\n        Address memory newAddress = Address(_nameSurname, _direction, _city, _stateRegion, _postalCode, _country, _phone);\r\n        Order memory newOrder = Order(lastOrderId, lastAddressId, _id, now, ein, msg.sender, 'pending');\r\n\r\n        // Update the quantity of remaining products\r\n        if(p.quantity > 0) {\r\n            p.quantity--;\r\n            productById[_id] = p;\r\n            // Update the products array\r\n            for(uint256 i = 0; i < products.length; i++) {\r\n                if(products[i].id == p.id) {\r\n                    products[i] = p;\r\n                    break;\r\n                }\r\n            }\r\n        }\r\n\r\n        pendingOrders[ein].push(newOrder);\r\n        orderById[_id] = newOrder;\r\n        addressById[lastAddressId] = newAddress;\r\n        // TODO remember that the payment has been done to the store contract and not the seller yet\r\n        HydroTokenTestnetInterface(token).transferFrom(msg.sender, address(this), p.price); // Pay the product price to this contract\r\n        HydroTokenTestnetInterface(token).approve(disputeContract, p.price);\r\n        lastOrderId++;\r\n        lastAddressId++;\r\n    }\r\n\r\n    /// @notice To receive payments for sellers that sold a product, each product must be checked independently. You can only do it after the product has been marked as sent and the\r\n    /// @param _orderId The ID of the order that you want to mark as completed and receie the payment\r\n    function receivePayment(uint256 _orderId) public {\r\n        Order memory order = orderById[_orderId];\r\n        Product memory p = productById[order.productId];\r\n        uint256 ein = IdentityRegistryInterface(identityRegistry).getEIN(msg.sender);\r\n        require(p.einOwner == ein, 'Only the seller can receive the payment of the order');\r\n        require(order.state == 'sent', 'The order must be marked as sent to receive the payment');\r\n        require(now - order.date >= 15 days, 'You can only retrieve the payment after 15 days');\r\n\r\n        order.state = 'completed';\r\n        // Delete the seller order from the array of pending orders\r\n        for(uint256 i = 0; i < pendingOrders[p.einOwner].length; i++) {\r\n            if(pendingOrders[p.einOwner][i].id == _orderId) {\r\n                Order memory lastElement = orderById[pendingOrders[p.einOwner].length - 1];\r\n                pendingOrders[p.einOwner][i] = lastElement;\r\n                pendingOrders[p.einOwner].length--;\r\n            }\r\n        }\r\n        completedOrders[order.buyer].push(order);\r\n        orderById[_orderId] = order;\r\n        HydroTokenTestnetInterface(token).transfer(p.owner, p.price);\r\n    }\r\n\r\n    /// @notice To mark an order as sent\r\n    /// @param _id The id of the order to mark as sent and completed\r\n    function markOrderSent(uint256 _id) public {\r\n        Order memory order = orderById[_id];\r\n        Product memory product = productById[order.productId];\r\n        require(IdentityRegistryInterface(identityRegistry).hasIdentity(msg.sender), 'You must have an EIN associated with your Ethereum account to mark the order as completed');\r\n        uint256 ein = IdentityRegistryInterface(identityRegistry).getEIN(msg.sender);\r\n        require(product.einOwner == ein, 'Only the seller can mark the order as sent');\r\n        order.state = 'sent';\r\n        orderById[_id] = order;\r\n    }\r\n\r\n    /// @notice To get the ein owner of a product for the dispute contract\r\n    /// @param _id The id of the product\r\n    /// @return Returns the ein owner\r\n    function getProductEinOwner(uint256 _id) public view returns(uint256) {\r\n        return productById[_id].einOwner;\r\n    }\r\n\r\n    /// @notice To get the price of a product for the dispute contract\r\n    /// @param _id The id of the product\r\n    /// @return Returns the price\r\n    function getProductPrice(uint256 _id) public view returns(uint256) {\r\n        return productById[_id].price;\r\n    }\r\n}\r\n",
  "sourcePath": "C:/Users/merun/Desktop/ethereum-store/contracts/Store.sol",
  "compiler": {
    "name": "solc",
    "version": "0.5.0+commit.1d4f565a.Emscripten.clang"
  },
  "schemaVersion": "3.0.5",
  "updatedAt": "2019-05-11T11:04:04.678Z",
  "devdoc": {
    "methods": {
      "constructor": {
        "params": {
          "_token": "The token address"
        }
      },
      "createInventory(string,bytes32[])": {
        "params": {
          "_skus": "The array of skus to add to the inventory"
        }
      },
      "getProductEinOwner(uint256)": {
        "return": "Returns the ein owner"
      },
      "getProductPrice(uint256)": {
        "return": "Returns the price"
      },
      "markOrderSent(uint256)": {
        "params": {
          "_id": "The id of the order to mark as sent and completed"
        }
      },
      "publishProduct(string,bytes32,string,uint256,string,bytes32[],bytes32[],uint256,uint256)": {
        "params": {
          "_image": "The image URL of the product"
        }
      },
      "receivePayment(uint256)": {
        "params": {
          "_orderId": "The ID of the order that you want to mark as completed and receie the payment"
        }
      },
      "setDisputeAddress(address)": {
        "params": {
          "_dispute": "The dispute address"
        }
      }
    }
  },
  "userdoc": {
    "methods": {
      "buyProduct(uint256,string,string,bytes32,bytes32,uint256,bytes32,uint256)": {
        "notice": "The payment in HYDRO is made automatically by making a transferFrom after approving the right amount of tokens using the product price"
      }
    }
  }
}